:020000040800F2
:1000000048090020CD010008D7180008A9130008EE
:10001000D5180008D30200089F1E00080000000049
:100020000000000000000000000000008D1A000821
:10003000D502000800000000D91800088F1A000837
:10004000E7010008E7010008E7010008E7010008F0
:10005000E7010008E7010008E7010008E7010008E0
:10006000E7010008E7010008E7010008E7010008D0
:10007000E7010008E7010008E7010008E7010008C0
:10008000E7010008E7010008E7010008E7010008B0
:10009000E7010008E7010008E7010008E7010008A0
:1000A000E7010008E7010008E7010008E701000890
:1000B000F51A0008011B00080D1B0008E7010008E5
:1000C000E7010008E7010008E7010008E701000870
:1000D000E7010008E7010008E7010008E701000860
:1000E000E7010008E7010008E7010008E701000850
:1000F000E7010008E7010008E7010008E701000840
:10010000E7010008E7010008E7010008E70100082F
:10011000E7010008E7010008191B0008E7010008D3
:10012000E7010008E7010008E7010008E70100080F
:1001300000F002F800F03AF80AA090E8000C8244BF
:100140008344AAF10107DA4501D100F02FF8AFF29C
:10015000090EBAE80F0013F0010F18BFFB1A43F0A5
:10016000010318471824000038240000103A24BF67
:1001700078C878C1FAD8520724BF30C830C144BF0C
:1001800004680C607047000000230024002500264E
:10019000103A28BF78C1FBD8520728BF30C148BFEA
:1001A0000B6070471FB51FBD10B510BD00F058F8AB
:1001B0001146FFF7F7FF01F0FBFE00F076F803B4FD
:1001C000FFF7F2FF03BC00F07DF80000094880470C
:1001D00009480047FEE7FEE7FEE7FEE7FEE7FEE729
:1001E000FEE7FEE7FEE7FEE704480549054A064B41
:1001F00070470000F11A0008310100084803002090
:100200004809002048050020480500204FF0000262
:1002100000B5134694469646203922BFA0E80C50FC
:10022000A0E80C50B1F12001BFF4F7AF090728BFD7
:10023000A0E80C5048BF0CC05DF804EB890028BF53
:1002400040F8042B08BF704748BF20F8022B11F07C
:10025000804F18BF00F8012B7047704770477047F8
:10026000754600F02BF8AE4605006946534620F06F
:100270000700854618B020B5FFF7B6FFBDE820405F
:100280004FF000064FF000074FF000084FF0000B52
:1002900021F00701AC46ACE8C009ACE8C009ACE805
:1002A000C009ACE8C0098D46704710B50446AFF3ED
:1002B00000802046BDE81040FFF781BF004870472E
:1002C000E802002001491820ABBEFEE7260002002C
:1002D0007047FEE77047000002490868002200B23C
:1002E0000A6070472404004002490868002200B2F6
:1002F0000A6070472408004002490868002200B2E2
:100300000A607047240C00404FF08041486A002288
:1003100000B24A62704772B6FEE700002DE9F84F5E
:10032000DFF8C8910024A9F1040B23460F2709F137
:10033000040AABF1040ED1E00125A54006EA05024E
:10034000AA4276D1DFF8A8C14E68A6EB0C08664534
:100350002BD00DDC032E34D005DC36B3012E19D0A2
:10036000022E2FD11BE0112E16D0122E2AD119E009
:10037000B8F5881F19D006DCB8F5803F15D0B8F560
:10038000801F1FD111E0B8F5001F0ED0B8F5041F73
:1003900018D10AE0CB6815E0CB681B1D12E0CB68D2
:1003A00008330FE0CB680C330CE08B682BB1012BCA
:1003B0004FF0080303D0456104E0042302E0056127
:1003C00000E00023FF2A01D8064601E000F1040600
:1003D0004FEA840501D9A5F12005D6F8008007FA77
:1003E00005FC28EA0C0803FA05F548EA0508C6F8F2
:1003F00000804D68ED0070D53E4DAE6946F00106B7
:10040000AE61AD6924F0030605F0010500953A4D93
:1004100006EB050CDCF80850A607360F07FA06F8BD
:1004200025EA0805DFF8D480404503D14FF00008E5
:1004300025E052E0DFF8C880404502D14FF00108C6
:100440001DE0DFF8C080404502D14FF0020816E001
:10045000DFF8B480404502D14FF003080FE0DFF829
:10046000AC80404502D14FF0040808E0DFF8A080DE
:10047000404502D14FF0050801E04FF0060808FAA8
:1004800006F848EA0508CCF808804D68D9F80060FD
:10049000ED024D4601D5164300E096432E604D68AF
:1004A000DAF80060AD02554601D5164300E09643E8
:1004B0002E604D68DBF80060AD035D4601D5164344
:1004C00000E096432E604D68DEF80060ED0375464F
:1004D00001D5164300E096432E60641C0A68164658
:1004E000E2407FF429AFBDE8F88F00000804014026
:1004F00000001110001002400000014000080140FF
:10050000000C01400010014000140140001801409F
:10051000001C01400AB1016170470904FBE70000BB
:100520000148806870470000380000200248816858
:10053000027811448160704738000020074810B5E8
:10054000016841F010010160032000F075F80F20F0
:1005500000F006F800F024F8002010BD0020024052
:1005600070B50D4D04464FF47A712878B1FBF0F068
:100570000A490968B1FBF0F000F0DCFA48B9102C28
:1005800007D200222146501E00F036F800206C6091
:1005900070BD012070BD0000380000204400002024
:1005A0000C4808B5816941F001018161816901F060
:1005B00001010091C16941F08051C161C06900F041
:1005C000805000900448416821F0E06141F00071E2
:1005D000416008BD0010024000000140002809DB16
:1005E00000F01F02012191404009800000F1E0204D
:1005F000C0F8001170470000F0B40E4B1B680C46A9
:10060000C3F30223C3F10705042D00D90425191DE6
:10061000072901D2002300E0DB1E012606FA05F1BE
:10062000491E214099409E40761E16403143F0BC41
:1006300001F036BC0CED00E0064900F00702086846
:100640004FF6FF03184040EA0220034A10430860B7
:10065000704700000CED00E00000FA052DE9F047BE
:100660000F46050061D0434E306800F00700B842E5
:1006700009D2306820F0070038433060306800F05D
:100680000700B84251D128683B4C810712D540077A
:1006900003D5606840F4E06060602878000703D507
:1006A000606840F4605060606068A96820F0F00005
:1006B000084360602878C00728D06868012810D0F7
:1006C0002168022810D0890700292EDA616821F0FC
:1006D000030101436160FFF723FF804641F288393F
:1006E0000DE021688903EFE78901EDE7FFF718FFC7
:1006F000A0EB0801494502D90320BDE8F0876068F6
:10070000696800F00C00B0EB810FEFD1306800F0A9
:100710000700B8420BD9306820F00700384330603A
:10072000306800F00700B84201D00120E5E72878E2
:10073000400705D56068E96820F4E0600843606020
:100740002878000706D56068296920F4605040EADF
:10075000C100606000F038F86168084AC1F3031115
:10076000515CC8400649086006480068FFF7F8FE7B
:100770000020C2E70020024000100240642500086B
:10078000440000203C0000200448054900684968F6
:10079000044AC1F30221515CC84070474400002064
:1007A00000100240742500080448054900684968A3
:1007B000044AC1F3C221515CC84070474400002084
:1007C00000100240742500080E4A51680E4801F0DE
:1007D0000C03042B11D0082B0FD10C48C1F3834319
:1007E000C903C05C0AD55168084AC1F34041921E52
:1007F000515C054A5043B0FBF1F07047044948434F
:10080000704700000010024000127A0054250008D2
:1008100000093D002DE9F84F040070D02078C04D4C
:10082000C00749D06868C0F38100012807D0686814
:10083000C0F38100022809D16868C00306D5286882
:10084000800339D560680028E7D035E06068B0F5EE
:10085000803F0BD010B1B0F5A02F11D0286820F444
:1008600080302860286820F4802002E0286840F466
:1008700080302860606890B1FFF752FE06460AE0BB
:10088000286840F480202860F0E700BFFFF748FEAA
:10089000801B642873D828688003F7D50CE0FFF725
:1008A0003FFE064605E000BFFFF73AFE801B6428C6
:1008B000F0D828688003F7D420789A4E80074FF04C
:1008C00001094FF0000839D5686810F00C0F07D007
:1008D0006868C0F38100022809D16868C00306D4A3
:1008E0002868800714D52069012808D110E0206904
:1008F000B0B1C6F80090FFF713FE074605E00AE125
:10090000FFF70EFEC01B0228C4D828688007F7D561
:100910002868616920F0F80040EAC10028600DE015
:10092000C6F80080FFF7FCFD074604E0FFF7F8FD7E
:10093000C01B022823D828688007F7D42078000736
:100940002CD57948A169D9B1C0F80090FFF7E8FD2E
:10095000074604E0FFF7E4FDC01B02280FD8686AD1
:100960008007F7D571484FF4FA510068B0FBF1F0F9
:10097000009000BF0098411E0091FAD20EE080E086
:10098000C0F80080FFF7CCFD074604E0FFF7C8FD84
:10099000C01B022875D8686A8007F7D42078400702
:1009A00060D5E8690027C00008D4E86940F08050AD
:1009B000E861E869012700F0805000905C48016818
:1009C000C90513D40168834641F480710160FFF7C3
:1009D000A7FD824606E000BFFFF7A2FDA0EB0A00DC
:1009E00064284ED8DBF80000C005F5D5E068012882
:1009F0000AD008B1052813D0286A20F00100286227
:100A0000286A20F0040002E0286A40F00100286211
:100A1000E06841F2883B98B1FFF782FD82460BE027
:100A2000286A40F004002862EEE700BFFFF778FD77
:100A3000A0EB0A0159455AD8286A8007F6D50CE080
:100A4000FFF76EFD824605E0FFF76AFDA0EB0A01A5
:100A500059454CD8286A8007F6D41FB1E86920F0C0
:100A60008050E861E06988B36968C1F381010229B7
:100A700044D00228C6F8608004D0FFF751FD044638
:100A800038E034E0FFF74CFD074604E0FFF748FD8F
:100A9000C01B02282BD828688001F7D4206AB0F543
:100AA000803F05D16868A16820F400300843686081
:100AB000D4E908010843696821F4741108436860A7
:100AC000C6F86090FFF72CFD044606E025E000BF65
:100AD000FFF726FD001B022809D828688001F7D5FA
:100AE0001BE000BFFFF71CFD001B022802D90320FA
:100AF000BDE8F88F28688001F4D40EE00128F7D013
:100B00006868226A00F48031914204D1616A00F47D
:100B10007010884201D00120EAE70020E8E70000D9
:100B20000010024000004242800442424400002083
:100B30000070004010B5401EB0F1807F01D301204D
:100B400010BD4FF0E02460610F21601701F0A8F99B
:100B50000020A06107202061002010BD7047704771
:100B600010B590F83C20012A22D0012280F83C20C8
:100B7000CA688C6822F4407222434C6822F4806276
:100B800022430C6822F4006222430C6922F4805252
:100B900022434C6922F400522243C969002322F403
:100BA00080420A4301684A6480F83C30002010BD4E
:100BB000022010BD70B590F83C20012A2CD00124F1
:100BC00080F83C40022280F83D2003685A689D6806
:100BD00022F070060A6832435A60104B02689A424B
:100BE0000ED00F4B9A420BD0B2F1804F08D00D4B74
:100BF0009A4205D00C4B9A4202D00C4B9A4204D137
:100C0000496825F080031943916080F83D40002138
:100C100080F83C10084670BD022070BD002C0140D9
:100C2000003401400004004000080040000C004077
:100C300010B5040003D094F83D0010B107E0012086
:100C400010BD002084F83C00204600F01FF8022070
:100C500084F83D00211D206800F064FF012084F825
:100C6000460084F83E0084F83F0084F8400084F891
:100C7000410084F8420084F8430084F8440084F87A
:100C8000450084F83D00002010BD000008B5114A61
:100C900001681148914211D1C16941F01001C1614F
:100CA000C069002200F01000009011463620FFF7C6
:100CB000A3FCBDE808403620FFF790BC074A9142EC
:100CC00007D1816941F400518161806900F40050CD
:100CD000009008BD001000400010024000340140A8
:100CE00070B5044690F83C000025012817D0012675
:100CF00084F83C60022084F83D002068826822F07D
:100D0000770222F47F4282600868502838D00DDCD8
:100D100020284FD005DC90B3102811D14AE00220E2
:100D200070BD302846D040280AD13BE060282FD043
:100D300070280DD0B0F5805F03D0B0F5005F12D001
:100D4000012584F83D60002084F83C00284670BDF1
:100D5000CB68D1E90121206800F032FF206881686A
:100D600041F0770109E0CB68D1E90121206800F06A
:100D700027FF2068816841F480418160E1E719E044
:100D8000CA684968206800F0EFFF5021206806E03B
:100D9000CA684968206800F0F8FF6021206800F008
:100DA00019FFCEE7CA684968206800F0DDFF4021DE
:100DB0002068F4E7226801461046F0E72DE9F0418B
:100DC0000D46040003D094F83D0018B108E001205E
:100DD000BDE8F081002084F83C00204600F040F897
:100DE000022084F83D002068816844F207029143A4
:100DF0008160211D206800F095FE2268906891694D
:100E0000166A2B68AF69034340F20330814341EA1D
:100E10000721A868EF6908434FF6FC418843E96859
:100E200040EA0720014328692F6A000140EA0730A1
:100E3000084369686D6926F0220646EA05152943CC
:100E400093602268906154F8460B0162012004F817
:100E50001F09E0752076E0762077A0750020B7E7BF
:100E600030B585B000240094019402940394006886
:100E70004C494D4B4D4DB0F1804F23D04C4CC022CE
:100E8000A04256D1C86940F00200C861C86900F0AC
:100E900002000490886940F004008861886969460E
:100EA00000F00400049000921846FFF737FA002281
:100EB00011461D20FFF7A0FB5FF01D00FFF78EFB22
:100EC00005B030BDC86940F00100C861C86900F0D4
:100ED00001000490886940F004008861886900F08E
:100EE00004000490886940F00800886188696946B8
:100EF00000F0080004904FF4004000901846FFF7FF
:100F00000DFA0820CDE90004694628460294FFF74F
:100F100005FA2848416821F4407141F0E06141F44C
:100F200080714160002211461C20FFF765FB1C20E8
:100F3000C4E7214CA0421BD1C86940F00400C8613D
:100F4000C86900F004000490886940F008008861D6
:100F50008869694600F00800049000922846FFF76F
:100F6000DDF9002211461E20FFF746FB1E20A5E7F3
:100F7000124A9042A4D1C86940F00800C861C8690B
:100F800000F008000490886940F0040088618869D6
:100F9000694600F004000490032000901846FFF713
:100FA000BDF98DE70010024000080140000C01402F
:100FB000000400400000014000080040000C004018
:100FC00070472DE9F04104460068C66805694FF096
:100FD0000007A90713D5B10711D5F91E016101203A
:100FE0002077206880698007204602D0FFF7E8FF5D
:100FF00004E000F0A5F8204600F037F927776807ED
:1010000016D5700714D521686FF00400086102201E
:1010100020772068806910F4407F204602D0FFF7D7
:10102000CFFF04E000F08CF8204600F01EF927778F
:10103000280715D5300713D521686FF0080008611F
:10104000042020772068C0698007204602D0FFF77F
:10105000B7FF04E000F074F8204600F006F92777A7
:10106000E80616D5F00614D521686FF01000086167
:10107000082020772068C06910F4407F204602D005
:10108000FFF79EFF04E000F05BF8204600F0EDF86B
:101090002777E80708D0F00706D021686FF0010035
:1010A0000861204600F0E2F8280608D5300606D58B
:1010B00021686FF0800008612046FFF74FFD680649
:1010C00008D5700606D521686FF0400008612046FB
:1010D00000F0CEF8A8060AD5B00608D521686FF052
:1010E000200008612046BDE8F041FFF738BDBDE8AB
:1010F000F081000000B585B00021009101910291BE
:10110000039100680B49884212D10B48816941F074
:10111000100181618069694600F0100004904FF46D
:10112000707000900220019003900448FFF7F6F8D9
:1011300005B000BD00340140001002400010014025
:10114000704770B5044690F83C0000260D46012813
:101150000FD0012084F83C006AB1042A1DD0082A6F
:101160002FD00C2A3FD00126002084F83C003046C6
:1011700070BD022070BD206800F034FD20688169D8
:1011800041F0080181612068816921F004018161D9
:10119000206881692A69114311E0206800F052FD3E
:1011A0002068816941F4006181612068816921F4CE
:1011B00080618161206881692A6941EA0221816137
:1011C000D2E7206800F074FD2068C16941F0080191
:1011D000C1612068C16921F00401C1612068C16951
:1011E0002A69114311E0206800F096FD2068C1696A
:1011F00041F40061C1612068C16921F48061C1616D
:101200002068C1692A6941EA0221C161ACE710B5D1
:10121000040003D094F83D0010B107E0012010BD98
:10122000002084F83C00204600F01EF8022084F8DC
:101230003D00211D206800F075FC012084F8460067
:1012400084F83E0084F83F0084F8400084F84100B0
:1012500084F8420084F8430084F8440084F8450090
:1012600084F83D00002010BD7047704700F028BE94
:10127000704770B5040004D094F84100002510B107
:1012800006E0012070BD84F84050204600F024F8AC
:10129000242084F841002068C16821F40051C16015
:1012A000204600F085FD2068016921F4904101612C
:1012B0002068416921F02A0141612068C16841F438
:1012C0000051C1606564202084F8410084F8420028
:1012D0006563002070BD000030B585B00024009427
:1012E000019402940394244D0368244802210322AC
:1012F000AB421AD1C36943F40033C361C36903F439
:1013000000330493836943F00403836180691C4DB7
:1013100000F0040004900420CDE900010392694626
:101320002846FEF7FBFF08201CE0164DAB4220D1FB
:10133000C36943F48023C361C36903F48023049326
:10134000836943F0080383618069039200F0080019
:1013500004902815CDE900010B4D69462846FEF79B
:10136000DDFFE814CDE90004694628460294FEF743
:10137000D5FF05B030BD0000004400400010024021
:101380000008014000480040000C014090F8423045
:10139000202B01D00220704721B11AB10023036332
:1013A00000F062BD01207047FEE7000030B40E4B34
:1013B00002464FF4FA640D481B684FF40061A242E4
:1013C00001DD224606E00A4CA24201DA224604E090
:1013D000002A02DD9A63002203E002F5FA629A63B2
:1013E000012230BCFFF796B810020020000801402F
:1013F00030F8FFFF30B40E4B02464FF4FA640D484C
:101400001B684FF48061A24201DD224606E00A4CCF
:10141000A24201DA224604E0002A02DD1A64002218
:1014200003E002F5FA621A64012230BCFFF772B8D9
:10143000100200200010014030F8FFFF30B40E4BC6
:1014400002464FF4FA640D481B684FF48071A242C3
:1014500001DD224606E00A4CA24201DA224604E0FF
:10146000002A02DD5A63002203E002F5FA625A63A1
:10147000012230BCFFF74EB81002002000080140E6
:1014800030F8FFFF30B40E4B02464FF4FA640D48BB
:101490001B684FF48051A24201DD224606E00A4C4F
:1014A000A24201DA224604E0002A02DDDA630022C9
:1014B00003E002F5FA62DA63012230BCFFF72AB8D2
:1014C000100200200008014030F8FFFF2DE9F04332
:1014D00085B0002425480094019402940394816906
:1014E00041F020018161816901F02001049181694D
:1014F00041F004018161816901F004010491816975
:1015000041F008018161816901F00801049181695C
:1015100041F0100181618069DFF8548000F0100013
:101520004FF4C8550490002229464046FEF7F2FFCA
:10153000DFF840904FF48067002239464846FEF7B6
:10154000E9FF0095022601250396CDE9015469467D
:101550004046FEF7E3FE00970396CDE90154694645
:101560004846FEF7DBFE05B0BDE8F0830010024000
:10157000000801400010014010B58CB024216846DD
:10158000FEF744FE0024154809944FF080410A9468
:10159000C0E900144FF6FF71C0E9024104618461A3
:1015A0000320CDE900040120CDE902040494CDE933
:1015B00005400794694609480894FFF7FFFB08B106
:1015C000FEF7A9FE099409A904480A94FFF7F2FA64
:1015D000002801D0FEF79FFE0CB010BDA80000202F
:1015E00010B58CB024216846FEF710FE0024164882
:1015F000099414490A94C0E900144FF6FF71C0E938
:101600000241046184610320CDE900040120CDE999
:1016100002040494CDE90540079469460A480894F9
:10162000FFF7CCFB08B1FEF776FE099409A906483E
:101630000A94FFF7BFFA002801D0FEF76CFE0CB049
:1016400010BD000000040040F000002010B58CB078
:1016500024216846FEF7DAFD00241648099414494F
:101660000A94C0E900144FF6FF71C0E90241046119
:1016700084610320CDE900040120CDE90204049433
:10168000CDE90540079469460A480894FFF796FBA0
:1016900008B1FEF740FE099409A906480A94FFF72D
:1016A00089FA002801D0FEF736FE0CB010BD00000C
:1016B000000800403801002010B58CB02421684695
:1016C000FEF7A4FD00241648099414490A94C0E9C1
:1016D00000144FF6FF71C0E90241046184610320E8
:1016E000CDE900040120CDE902040494CDE90540D0
:1016F000079469460A480894FFF760FB08B1FEF7B3
:101700000AFE099409A906480A94FFF753FA00282B
:1017100001D0FEF700FE0CB010BD0000000C004030
:10172000800100201CB500240F4800940D4901944D
:10173000016041F61F41C0E90114C721C160802149
:101740008161FFF775FA08B1FEF7E5FD009469467F
:1017500005480194FFF72EFA002801D0FEF7DBFDC3
:101760001CBD000000100040C801002010B596B05C
:1017700000240F9410941194129413941C21684621
:101780001494FEF743FD202107A8FEF73FFD3448DF
:10179000324901600121C0E901144FF4FA61C0E946
:1017A000031444618461FFF743FA08B1FEF7B3FD07
:1017B0004FF480500F900FA92948FFF791FA08B114
:1017C000FEF7A9FD2648FFF722FD08B1FEF7A3FDAD
:1017D000139413A922481494FFF7ECF908B1FEF70B
:1017E0009AFD6020CDE900040294039404940594CA
:1017F000002269461A480694FFF7A3FC08B1FEF7D9
:101800008AFD042269461648FFF79BFC08B1FEF7E3
:1018100082FD082269461248FFF793FC08B1FEF7E3
:101820007AFD0C2269460E48FFF78BFC08B1FEF7E3
:1018300072FD0794089409944FF400500A94CDE97E
:101840000B4007A906480E94FFF78AF908B1FEF786
:1018500062FD0348FFF74EFC16B010BD0034014096
:10186000100200200C4810B50A4901604FF41651CF
:101870004160002181600C22C160C0E904128161D5
:10188000C161FFF7F6FC002803D0BDE81040FEF769
:1018900042BD10BD00440040580200200C4810B565
:1018A0000A4901604FF416514160002181600C2209
:1018B000C160C0E904128161C161FFF7DAFC002850
:1018C00003D0BDE81040FEF726BD10BD0048004023
:1018D000A0020020FEE7FEE77047000070B500F0B0
:1018E000C3FD184C0546216900F0BEFD0646B4F95B
:1018F000020000F0D5FC314600F0EAFC0646B4F9DF
:10190000000000F0CDFC294600F0E2FC314600F07A
:1019100049FC0646B4F9040000F0C2FC314600F070
:1019200041FC00F0A1FC01B2A1804FF4FA602561F6
:10193000814202DC4042814200DAA080B4F9040016
:1019400070BD00000000002070B500F08DFD184C47
:101950000546A16900F088FD0646B4F9020000F0D2
:101960009FFC314600F0B4FC0646B4F9000000F0DC
:1019700097FC294600F0ACFC314600F013FC06460B
:10198000B4F9060000F08CFC314600F00BFC00F0CE
:101990006BFC01B2E1804FF4FA60A561814202DC88
:1019A0004042814200DAE080B4F9060070BD0000D8
:1019B0000000002070B500F057FD184C0546216A64
:1019C00000F052FD0646B4F9020000F069FC314611
:1019D00000F07EFC0646B4F9000000F061FC2946E8
:1019E00000F076FC314600F0DDFB0646B4F9080055
:1019F00000F056FC314600F0D5FB00F035FC01B29A
:101A000021814FF4FA602562814202DC404281422A
:101A100000DA2081B4F9080070BD00000000002049
:101A200070B500F021FD184C0546A16A00F01CFDC0
:101A30000646B4F9020000F033FC314600F048FCE1
:101A40000646B4F9000000F02BFC294600F040FCEB
:101A5000314600F0A7FB0646B4F90A0000F020FC6E
:101A6000314600F09FFB00F0FFFB01B261814FF4B3
:101A7000FA60A562814202DC4042814200DA608164
:101A8000B4F90A0070BD0000000000207047FEF7A6
:101A90004DBD30B58FB028216846FEF7B7FB142145
:101AA0000AA8FEF7B3FB01210804CDE900100024C9
:101AB000029402250491CDE907504FF4E0100990FB
:101AC0006846FEF7A7FE08B172B6FEE70F20CDE923
:101AD0000A054FF48060CDE90C4002210AA80E945B
:101AE000FEF7BCFD002801D072B6FEE70FB030BD96
:101AF000704700000148FFF764BA0000A80000200A
:101B00000148FFF75EBA0000F00000200148FFF72F
:101B100058BA0000380100200148FFF752BA00000F
:101B2000C8010020F0B50268204C214D214E224F03
:101B3000224B4FF0804CA04209D0984207D060451C
:101B400005D0A84203D0B04201D0B84204D122F05F
:101B5000700E4A6842EA0E02A04209D0984207D0AD
:101B6000604505D0A84203D0B04201D0B84203D1AD
:101B700022F44075CA682A434D6922F080022A4344
:101B800002608A68C2620A688262A04201D09842FA
:101B900001D109690163012141610169C90703D0CC
:101BA000016921F001010161F0BD0000002C01403C
:101BB0000004004000080040000C004000340140D8
:101BC00010B5846842EA032224F47F440A43224386
:101BD000826010BD826822F070020A4342F0070161
:101BE00081607047F0B5036A026A22F00102026266
:101BF00042688469124E24F073050C682C4323F06C
:101C000002058B682B430D4DA84201D0B04205D18F
:101C100023F00807CB683B4323F00403A84201D01C
:101C2000B04205D14D6922F4407215438A692A43B6
:101C300042608461496841630362F0BD002C014049
:101C400000340140F0B5026A036A23F01003036216
:101C5000436884690D6824F4E64444EA05248D68E9
:101C600022F0200242EA05120F4D104EA84201D088
:101C7000B04206D1CF6822F0800242EA071222F079
:101C80004002A84201D0B04207D14D6923F440631D
:101C900043EA85038D6943EA8503436084614968AB
:101CA00081630262F0BD0000002C0140003401405D
:101CB000F0B5026A036A23F4807303624368C4695F
:101CC00022F4007224F073050C68124E2C438D68C8
:101CD00042EA05220E4DA84201D0B04206D1CF689B
:101CE00022F4006242EA072222F48062A84201D074
:101CF000B04207D14D6923F4405343EA05138D697F
:101D000043EA05134360C4614968C1630262F0BDE0
:101D1000002C01400034014030B5046A026A22F40C
:101D2000805202624268C3690D6823F4E64343EAC5
:101D300005238D6824F4005444EA0534084DA84274
:101D400002D0084DA84204D14D6922F4804242EAF3
:101D500085124260C36149680164046230BD0000BD
:101D6000002C01400034014010B5036A046A24F0DD
:101D700001040462846924F0F00444EA021423F0AC
:101D80000A020A438461026210BD10B5036A046A44
:101D900024F010040462846923F0A00324F4704446
:101DA00044EA023243EA01118261016210BD00007F
:101DB00070B5044600680169E26821F4405111439E
:101DC00001612169A0680843616908432168CA6804
:101DD00041F20C639A430243CA6020684169A269D8
:101DE00021F44071114341611E492068884202D1AB
:101DF000FEF7DAFC01E0FEF7C7FC00EBC00101EBE7
:101E00000012606864218000B2FBF0F3B3FBF1F3D1
:101E10006FF018067343B2FBF0F5B2FBF0F605EB7A
:101E20008305322303EB0515B5FBF1F5B6FBF1F69F
:101E300005F0F00505EB0615B2FBF0F6B2FBF0F08D
:101E4000B0FBF1F06FF01802504306EB800003EB9B
:101E50000010B0FBF1F0216800F00F00284488600A
:101E600070BD00000038014081628285C28500217A
:101E70004164222180F84210016921B10168CA68D9
:101E800042F48072CA6001684A6942F001024A6104
:101E90000068C16841F02001C16000207047FEE782
:101EA0000907090E002804DB00F1E02080F8001487
:101EB000704700F00F0000F1E02080F8141D70471B
:101EC0002DE9F041FEF708FA00F0EAF9364F3946FD
:101ED00000F0FEF900F03AF9344CC4E90201FEF7D3
:101EE00003FA00F0DDF9394600F0F2F900F02EF9BE
:101EF00004F11805C5E90201FEF7FEF900F0D0F97A
:101F0000394600F0E5F900F021F904F13006C6E9A0
:101F10000201FEF7F9F900F0C3F9394600F0D8F9EB
:101F200000F014F904F14807C7E90201D4E90201FD
:101F300000F086F80146206980F00040FFF7CEFCF3
:101F4000A082D5E9020100F07BF801462869FFF77D
:101F5000FBFCA882D6E9020100F072F80146306964
:101F600080F00040FFF726FDB082D7E9020100F0C3
:101F700067F801463869FFF753FDB882A08A4042EE
:101F800000B2FFF713FAA88A404200B2FFF732FA14
:101F9000B08A404200B2FFF751FAB88ABDE8F0417A
:101FA000404200B2FFF76EBAA7FA033C4800002097
:101FB00007221A491A48FFF7E9F9FEF7B1FA174C58
:101FC0000023241F1A4620601946184600F02AF8FC
:101FD000FEF7B4FAFFF75DFDFFF778FAFFF742FC72
:101FE000FFF75CFCFFF7C8FAFFF7FAFAFFF72EFBE2
:101FF000FFF762FBFFF7BAFBFFF794FBFEF790FADF
:102000002168401A6428F9D300231A461946184655
:1020100000F008F8FFF754FFF0E700003000002060
:10202000A002002010B5054C206104F118000161E8
:10203000183002611830036110BD00004800002014
:1020400021F00042A2F16052B2F5801F01F000437E
:1020500028BFD2F17F6C0BD95FEA001C43EAC202B1
:1020600042EB507018BF704728BF20F00100704746
:10207000B2F5801FBCBF184670474FEA410C1CF5F3
:10208000001F02D2084600F0EAB970B500F009F866
:1020900000000089FFF7F6BF4FF00040A0F5800078
:1020A00070470EF1020E2EF0030E5EF8046B3642FE
:1020B00005D4012A43EB030515F5001F12D80128AA
:1020C00041EB010C1CF5001F0CD80ED14FEAD17C5E
:1020D00015F5001F0CEB4C0C0CF1020C08BF4CEB7F
:1020E000D37C04E04FF0080C01E04FEAD37C0CEB0A
:1020F0004C0526FA05F606F00706B6F1040C06D2E2
:102100000EEB860CBDE870404CF0010C6047DFE838
:102110000CF0090B02024FF000414FF00000A1F556
:10212000002170BD19461046012851EB010418BF6B
:10213000D4F5001484BF002001F0004170BD0808F0
:10214000A0F500114FEA31017047000043004FEA4B
:10215000D30C4FEA3C0C43401FBF40070CF16051C9
:1021600013F0FE4F70471CF0006F03D100200CF0FD
:10217000004170470CF0004343EA507010B540EA4C
:10218000CC0000F026F900BF000000924FEA0001E9
:10219000FFF7D5BF4FF000414FF00000A1F500213F
:1021A0007047000090EA010F48BF81F0004100F144
:1021B0006281421A3CBF801A89184FEAD0524FF010
:1021C0007F4C1CEA410FA2EBD15318BF9CEA026F6F
:1021D00000F03B804FF0004C4CEA00204CEA01211B
:1021E00021FA03FC10EB0C0C1ED202F1FF325FEA65
:1021F0001C2040EBC25038BF70471CF07F0F4FEAE5
:10220000400C18BFBCF17F4F38BF7047C3F12003AB
:10221000994008BF20F00100BCF17F4F38BF7047E4
:10222000A0F1C04000F01BB94FEA3C00000A40EBAF
:10223000C25028BF1CF0FF0F4FEA400CE6D018BF79
:10224000BCF17F4F38BF7047EAE79CEA026F05D0C8
:1022500010EA5C0F08BF00F00040704710B500F0B6
:10226000B8F800BF64FBBE3E41000B0ED3F19E02E6
:1022700008D950F400034FEA032323FA02F048BFC1
:102280004042704710B500F0A4F800BF4992248086
:10229000002070476FF0004282EA20007047000083
:1022A00010F0004148BF4042B0FA80F310FA03F248
:1022B000C3F19D030BD051EAC35101EB1220530629
:1022C00038BF704700F1010008BF20F001007047DF
:1022D0004FF47F0C1CEAD0121EBF1CEAD11392EA05
:1022E0000C0F93EA0C0F00F0478090EA010F48BFF3
:1022F00042F480724FF0004C4CEA00204CEA01217D
:1023000002EB0302A0FB0113A2F50002002918BF93
:1023100043F001035B0028BF4FEA330342EB224244
:102320005FEA132C4CEBC2502EBFBCEB436FB2F5EF
:102330007C0F70474FEA036CBCF1004F08BF20F0E0
:102340000100B2F57C0F38BF70470BD582F0FF0259
:1023500012F5803FC8BF704700F1C040D8BF00F001
:102360000040704700F5000C5FEA4C0C48BF704716
:10237000B0F1C04000F073B890EA010F0CEAD1133D
:1023800048BF42F48072624538BF634504D280EA98
:10239000010000F00040704710B500F01AF800BFCF
:1023A0008900013E00F007B800F009B85FEA410C6F
:1023B0005FEA1C6C08D080EA010000F050B85FEAC8
:1023C000400C5FEA1C6CF6D14FF00040A0F5800095
:1023D00070470EF1020E2EF0030E5EF8044B2442FD
:1023E00004D44FEA4102B2F17F4F11D84FEA4003C3
:1023F000B3F17F4F0CD80ED14FEAD07CB2F17F4FB2
:102400000CEB4C0C0CF1020C08BF4CEBD17C04E043
:102410004FF0080C01E04FEAD17C0CEB4C0324FA9E
:1024200003F404F00704B4F1040C06D20EEB840CA0
:10243000BDE810404CF0010C6047DFE80CF00708E5
:1024400002024FF00040A0F5800010BD0846420097
:1024500018BFD2F1807288BF00F0004010BDFF218C
:1024600041EAD050C005704790EA010F48BF81F0A3
:1024700000413FF59EAE421A04D882F00042A0EB24
:10248000020011444FEAD0524FF07F4C1CEA410F3A
:10249000A2EBD15318BF9CEA026F4AD04FF0004C18
:1024A0004CEA00204CEA012121FA03FCB0EB0C0CB1
:1024B0000FD412F0FE0F36D05FEA4C001DD500128B
:1024C00040EBC25038BF70471CF03F0F18BF704739
:1024D0000BE0A2F101025FEA1C2040EBC25038BFC2
:1024E00070471CF07F0F18BF7047C3F1200399405D
:1024F00014BF401E20F00100704780084FEA1223ED
:1025000008BF7047B0FA80FCA2EB0C02CCF1280C9B
:1025100060FA0CF093EA122F04BF00EBC250704730
:102520004FEAC3707047130A5FEADC1008BF7047B8
:10253000F6E79CEA026F04D010EA5C0F08BF0020A7
:10254000704710B5FFF745FF40DFF63E81F00040D1
:102550007047010202030405060708090A0B0C0D67
:102560000E0F101000000000000000000102030424
:102570000607080900000000010203049C2500086A
:1025800000000020480000006C010008E42500085D
:102590004800002000090000880100082003900185
:1025A000000000000000000000000000000000002B
:1025B000000000000000000000000000000000001B
:1025C000000000000000000000000000000000000B
:1025D00000000000010000001000000000000000EA
:0425E00000127A006B
:0400000508000131BD
:00000001FF
