:020000040800F2
:1000000078050020450100089B120008E90E000851
:1000100099120008B10100088F15000800000000C7
:100020000000000000000000000000009F12000817
:10003000B3010008000000009D120008A112000892
:100040005F0100085F0100085F0100085F01000810
:100050005F0100085F0100085F0100085F01000800
:100060005F0100085F0100085F0100085F010008F0
:100070005F0100085F0100085F0100085F010008E0
:100080005F0100085F0100085F0100085F010008D0
:100090005F0100085F0100085F0100085F010008C0
:1000A0005F0100085F0100085F0100085F010008B0
:1000B0005F0100085F0100085F0100085F010008A0
:1000C0005F0100085F0100085F0100085F01000890
:1000D0005F0100085F0100085F0100085F01000880
:1000E0005F0100085F0100085F0100085F01000870
:1000F0005F0100085F0100085F0100085F01000860
:100100005F0100085F0100085F0100085F0100084F
:100110005F0100085F0100085F0100085F0100083F
:100120005F0100085F0100085F0100085F0100082F
:10013000DFF80CD000F02AF800480047CF1500087F
:10014000780500200648804706480047FEE7FEE79E
:10015000FEE7FEE7FEE7FEE7FEE7FEE7FEE7FEE777
:100160000313000831010008D2B201E000F8012BAE
:10017000491EFBD270470022F6E710B513460A4627
:1001800004461946FFF7F0FF204610BD064C074D08
:1001900006E0E06840F0010394E807009847103457
:1001A000AC42F6D3FFF7C8FF141600083416000857
:1001B000FEE7704772B6FEE72DE9F84FDFF8C89109
:1001C0000024A9F1040B23460F2709F1040AABF11F
:1001D000040ED1E00125A54006EA0502AA4276D127
:1001E000DFF8A8C14E68A6EB0C0866452BD00DDCE5
:1001F000032E34D005DC36B3012E19D0022E2FD1B8
:100200001BE0112E16D0122E2AD119E0B8F5881F46
:1002100019D006DCB8F5803F15D0B8F5801F1FD186
:1002200011E0B8F5001F0ED0B8F5041F18D10AE090
:10023000CB6815E0CB681B1D12E0CB6808330FE0DC
:10024000CB680C330CE08B682BB1012B4FF008030B
:1002500003D0456104E0042302E0056100E00023CF
:10026000FF2A01D8064601E000F104064FEA8405A2
:1002700001D9A5F12005D6F8008007FA05FC28EA87
:100280000C0803FA05F548EA0508C6F800804D6831
:10029000ED0070D53E4DAE6946F00106AE61AD6928
:1002A00024F0030605F0010500953A4D06EB050C18
:1002B000DCF80850A607360F07FA06F825EA080505
:1002C000DFF8D480404503D14FF0000825E052E02C
:1002D000DFF8C880404502D14FF001081DE0DFF88B
:1002E000C080404502D14FF0020816E0DFF8B4802C
:1002F000404502D14FF003080FE0DFF8AC804045E5
:1003000002D14FF0040808E0DFF8A080404502D198
:100310004FF0050801E04FF0060808FA06F848EA31
:100320000508CCF808804D68D9F80060ED024D460C
:1003300001D5164300E096432E604D68DAF8006060
:10034000AD02554601D5164300E096432E604D6838
:10035000DBF80060AD035D4601D5164300E096432F
:100360002E604D68DEF80060ED03754601D516433A
:1003700000E096432E60641C0A681646E2407FF453
:1003800029AFBDE8F88F00000804014000001110FB
:10039000001002400000014000080140000C014034
:1003A000001001400014014000180140001C0140F1
:1003B0000AB1016170470904FBE700000148806849
:1003C0007047000000000020024881680278114454
:1003D0008160704700000020074810B5016841F0B7
:1003E00010010160032000F067F80F2000F006F80C
:1003F00000F024F8002010BD0020024070B50D4D23
:1004000004464FF47A712878B1FBF0F00A49096884
:10041000B1FBF0F000F0AEFA48B9102C07D2002280
:100420002146501E00F028F800206C6070BD0120AD
:1004300070BD0000000000200C0000200C4808B532
:10044000816941F001018161816901F0010100913F
:10045000C16941F08051C161C06900F080500090D5
:100460000448416821F0E06141F00071416008BD3D
:100470000010024000000140F0B40E4B1B680C4617
:10048000C3F30223C3F10705042D00D90425191D68
:10049000072901D2002300E0DB1E012606FA05F140
:1004A000491E214099409E40761E16403143F0BCC3
:1004B00001F06EB80CED00E0064900F00702086894
:1004C0004FF6FF03184040EA0220034A1043086039
:1004D000704700000CED00E00000FA052DE9F04740
:1004E0000F46050061D0434E306800F00700B84267
:1004F00009D2306820F0070038433060306800F0DF
:100500000700B84251D128683B4C810712D54007FB
:1005100003D5606840F4E06060602878000703D588
:10052000606840F4605060606068A96820F0F00086
:10053000084360602878C00728D06868012810D078
:100540002168022810D0890700292EDA616821F07D
:10055000030101436160FFF731FF804641F28839B2
:100560000DE021688903EFE78901EDE7FFF726FF3A
:10057000A0EB0801494502D90320BDE8F087606877
:10058000696800F00C00B0EB810FEFD1306800F02B
:100590000700B8420BD9306820F0070038433060BC
:1005A000306800F00700B84201D00120E5E7287864
:1005B000400705D56068E96820F4E06008436060A2
:1005C0002878000706D56068296920F4605040EA61
:1005D000C100606000F018F86168084AC1F30311B7
:1005E000515CC8400649086006480068FFF706FFEE
:1005F0000020C2E70020024000100240021600085E
:100600000C000020040000200E4A51680E4801F042
:100610000C03042B11D0082B0FD10C48C1F38343DA
:10062000C903C05C0AD55168084AC1F34041921E13
:10063000515C054A5043B0FBF1F070470449484310
:10064000704700000010024000127A00F215000806
:1006500000093D002DE9F84F040070D02078C04D0E
:10066000C00749D06868C0F38100012807D06868D6
:10067000C0F38100022809D16868C00306D5286844
:10068000800339D560680028E7D035E06068B0F5B0
:10069000803F0BD010B1B0F5A02F11D0286820F406
:1006A00080302860286820F4802002E0286840F428
:1006B00080302860606890B1FFF780FE06460AE04F
:1006C000286840F480202860F0E700BFFFF776FE3E
:1006D000801B642873D828688003F7D50CE0FFF7E7
:1006E0006DFE064605E000BFFFF768FE801B64282C
:1006F000F0D828688003F7D420789A4E80074FF00E
:1007000001094FF0000839D5686810F00C0F07D0C8
:100710006868C0F38100022809D16868C00306D464
:100720002868800714D52069012808D110E02069C5
:10073000B0B1C6F80090FFF741FE074605E00AE1B8
:10074000FFF73CFEC01B0228C4D828688007F7D5F5
:100750002868616920F0F80040EAC10028600DE0D7
:10076000C6F80080FFF72AFE074604E0FFF726FEE2
:10077000C01B022823D828688007F7D420780007F8
:100780002CD57948A169D9B1C0F80090FFF716FEC1
:10079000074604E0FFF712FEC01B02280FD8686A64
:1007A0008007F7D571484FF4FA510068B0FBF1F0BB
:1007B000009000BF0098411E0091FAD20EE080E048
:1007C000C0F80080FFF7FAFD074604E0FFF7F6FDEA
:1007D000C01B022875D8686A8007F7D420784007C4
:1007E00060D5E8690027C00008D4E86940F080506F
:1007F000E861E869012700F0805000905C480168DA
:10080000C90513D40168834641F480710160FFF784
:10081000D5FD824606E000BFFFF7D0FDA0EB0A0041
:1008200064284ED8DBF80000C005F5D5E068012843
:100830000AD008B1052813D0286A20F001002862E8
:10084000286A20F0040002E0286A40F001002862D3
:10085000E06841F2883B98B1FFF7B0FD82460BE0BB
:10086000286A40F004002862EEE700BFFFF7A6FD0B
:10087000A0EB0A0159455AD8286A8007F6D50CE042
:10088000FFF79CFD824605E0FFF798FDA0EB0A010B
:1008900059454CD8286A8007F6D41FB1E86920F082
:1008A0008050E861E06988B36968C1F38101022979
:1008B00044D00228C6F8608004D0FFF77FFD0446CC
:1008C00038E034E0FFF77AFD074604E0FFF776FDF5
:1008D000C01B02282BD828688001F7D4206AB0F505
:1008E000803F05D16868A16820F400300843686043
:1008F000D4E908010843696821F474110843686069
:10090000C6F86090FFF75AFD044606E025E000BFF8
:10091000FFF754FD001B022809D828688001F7D58D
:100920001BE000BFFFF74AFD001B022802D903208D
:10093000BDE8F88F28688001F4D40EE00128F7D0D4
:100940006868226A00F48031914204D1616A00F43F
:100950007010884201D00120EAE70020E8E700009B
:100960000010024000004242800442420C0000207D
:100970000070004010B5401EB0F1807F01D301200F
:1009800010BD4FF0E02460610F21601700F000FE01
:100990000020A06107202061002010BD70B590F8F4
:1009A0003C20012A2CD0012480F83C40022280F80F
:1009B0003D2003685A689D6822F070060A68324339
:1009C0005A60104B02689A420ED00F4B9A420BD0DD
:1009D000B2F1804F08D00D4B9A4205D00C4B9A4291
:1009E00002D00C4B9A4204D1496825F08003194388
:1009F000916080F83D40002180F83C10084670BDB1
:100A0000022070BD002C0140003401400004004071
:100A100000080040000C004010B5040003D094F81A
:100A20003D0010B107E0012010BD002084F83C001B
:100A3000204600F01FF8022084F83D00211D2068A8
:100A400000F060FC012084F8460084F83E0084F841
:100A50003F0084F8400084F8410084F8420084F8A4
:100A6000430084F8440084F8450084F83D000020E9
:100A700010BD000008B500680649884208D1064844
:100A8000C16941F00801C161C06900F0080000902F
:100A900008BD0000000C00400010024070B5044684
:100AA00090F83C000025012817D0012684F83C600E
:100AB000022084F83D002068826822F0770222F448
:100AC0007F4282600868502838D00DDC20284FD043
:100AD00005DC90B3102811D14AE0022070BD302807
:100AE00046D040280AD13BE060282FD070280DD096
:100AF000B0F5805F03D0B0F5005F12D0012584F817
:100B00003D60002084F83C00284670BDCB68D1E9E8
:100B10000121206800F044FC2068816841F07701E1
:100B200009E0CB68D1E90121206800F039FC206898
:100B3000816841F480418160E1E719E0CA68496851
:100B4000206800F001FD5021206806E0CA6849686D
:100B5000206800F00AFD6021206800F02BFCCEE741
:100B6000CA684968206800F0EFFC40212068F4E77B
:100B7000226801461046F0E72DE9F0410D460400D9
:100B800003D094F83D0018B108E00120BDE8F081E1
:100B9000002084F83C00204600F040F8022084F851
:100BA0003D002068816844F2070291438160211D65
:100BB000206800F0A7FB226890689169166A2B688C
:100BC000AF69034340F20330814341EA0721A8683B
:100BD000EF6908434FF6FC418843E96840EA072083
:100BE000014328692F6A000140EA07300843696819
:100BF0006D6926F0220646EA0515294393602268AE
:100C0000906154F8460B0162012004F81F09E07559
:100C10002076E0762077A0750020B7E730B585B064
:100C200000250095019502950395026848484949B9
:100C3000494C82421ED1886940F40060886188690D
:100C400000F400600490886940F040008861886981
:100C5000694600F0400004904FF4206000903F4847
:100C6000FFF7AAFA606820F0C00040F0E06040F0B2
:100C7000C0004AE03A48B2F1804F19D0394B9A424D
:100C800045D1CA6942F00202CA61CA6902F0020291
:100C900004928A6942F004028A61896901F00401C0
:100CA0000491C02100916946FFF786FA05B030BD76
:100CB000CA6942F00102CA61CA6902F001020492E3
:100CC0008A6942F004028A618A6902F0040204928D
:100CD0008A6942F008028A61896901F00801049179
:100CE0004FF4004100916946FFF766FA0820CDE90C
:100CF000000569461C480295FFF75EFA606820F41B
:100D0000407040F0E06040F480706060CEE71748CB
:100D10008242CBD1C86940F00400C861C86900F0C4
:100D200004000490886940F0200088618869694661
:100D300000F0200004904FF4405000900C48FFF762
:100D40003BFA606840F0E06040F48050DDE700006E
:100D5000002C01400010024000000140001801403A
:100D60000008014000040040000C01400008004061
:100D70000014014000B585B000210091019102915D
:100D8000039100680B49884211D10B48816941F0F9
:100D9000040181618069694600F0040004900F201D
:100DA00000900220019003900448FFF705FA05B077
:100DB00000BD0000000C004000100240000801408F
:100DC00070B5044690F83C0000260D4601280FD06F
:100DD000012084F83C006AB1042A1DD0082A2FD0D3
:100DE0000C2A3FD00126002084F83C00304670BD1C
:100DF000022070BD206800F0E5FA2068816941F0AA
:100E0000080181612068816921F004018161206805
:100E100081692A69114311E0206800F003FB206812
:100E2000816941F4006181612068816921F48061F8
:100E30008161206881692A6941EA02218161D2E7E2
:100E4000206800F025FB2068C16941F00801C161FC
:100E50002068C16921F00401C1612068C1692A6963
:100E6000114311E0206800F047FB2068C16941F49C
:100E70000061C1612068C16921F48061C16120689D
:100E8000C1692A6941EA0221C161ACE710B50400D9
:100E900003D094F83D0010B107E0012010BD002000
:100EA00084F83C00204600F01EF8022084F83D0043
:100EB000211D206800F026FA012084F8460084F8FD
:100EC0003E0084F83F0084F8400084F8410084F834
:100ED000420084F8430084F8440084F8450084F814
:100EE0003D00002010BD7047FEE700002DE9F04FE7
:100EF00085B00024474800940194029403948169CA
:100F000041F004018161816901F00401049181696A
:100F100041F010018161816901F010010491816942
:100F200041F008018161816901F008010491816942
:100F300041F080018161816901F080010491816942
:100F400041F480718161816901F48071049181694A
:100F500041F040018161816901F0400104918169A2
:100F600041F0200181618069DFF8AC8000F0200051
:100F70000490002220214046FFF71AFADFF89C90E7
:100F8000002205214846FFF713FADFF894A04FF43A
:100F90004847002239465046FFF70AFADFF884B086
:100FA000002202215846FFF703FA002280211E4842
:100FB000FFF7FEF920200126CDE90006022569464B
:100FC0004046CDE90245FFF7F7F80520CDE90006D8
:100FD00069464846CDE90245FFF7EEF8CDE90076CF
:100FE00069465046CDE90245FFF7E6F8CDE90056DF
:100FF00069465846CDE90245FFF7DEF88020CDE985
:10100000000669460848CDE90245FFF7D5F805B066
:10101000BDE8F08F0010024000100140000C0140BC
:10102000001C0140002001400018014010B58CB0A8
:1010300024216846FFF79FF80024164809941449B4
:101040000A94C0E900144FF6FF71C0E9024104613F
:10105000446184610120CDE90004CDE902040494D7
:10106000CDE90540079469460A480894FFF784FDD6
:1010700008B1FFF79FF8099409A906480A94FFF7F9
:101080008DFC002801D0FFF795F80CB010BD0000D2
:10109000002C01401000002010B58CB024216846BF
:1010A000FFF769F80024154809944FF080410A942D
:1010B000C0E900144FF6FF71C0E902410461846188
:1010C0000120CDE90004CDE902040494CDE90540F6
:1010D0000794694609480894FFF74EFD08B1FFF7E9
:1010E00069F8099409A905480A94FFF757FC0028F4
:1010F00001D0FFF75FF80CB010BD000058000020D1
:1011000010B58CB024216846FFF735F80024154847
:10111000099413490A94C0E900144FF6FF71C0E91D
:101120000241046184610120CDE90004CDE902049B
:101130000494CDE90540079469460A480894FFF7EE
:101140001BFD08B1FFF736F8099409A905480A9470
:10115000FFF724FC002801D0FFF72CF80CB010BDDD
:1011600000040040A000002010B58CB02421684687
:10117000FFF701F800241548099413490A94C0E9BF
:1011800000144FF6FF71C0E902410461846101203F
:10119000CDE90004CDE902040494CDE905400794AB
:1011A00069460A480894FFF7E7FC08B1FFF702F820
:1011B000099409A905480A94FFF7F0FB002801D01B
:1011C000FEF7F8FF0CB010BD00080040E80000205A
:1011D00010B58EB000240794089409940A940B94D7
:1011E0001C2168460C94FEF7C6FF2A482849016076
:1011F0004721C0E9011440F2CF71C0E903148461B2
:10120000FFF70AFC08B1FEF7D5FF4FF480500790B6
:1012100007A92048FFF742FC08B1FEF7CBFF1D48A5
:10122000FFF734FE08B1FEF7C5FF0B940BA9194870
:101230000C94FFF7B3FB08B1FEF7BCFF6020CDE9CB
:10124000000402940022694612480494FFF7B8FD96
:1012500008B1FEF7AFFF042269460E48FFF7B0FD64
:1012600008B1FEF7A7FF082269460A48FFF7A8FD64
:1012700008B1FEF79FFF0C2269460648FFF7A0FD64
:1012800008B1FEF797FF0348FFF774FD0EB010BDDD
:10129000000C004030010020FEE7FEE77047704779
:1012A000FFF792B830B58FB028216846FEF763FF8C
:1012B00014210AA8FEF75FFF01210804CDE9001000
:1012C0000024029402250491CDE907504FF4E01068
:1012D00009906846FFF7BEF908B172B6FEE70F2025
:1012E000CDE90A054FF48060CDE90C4002210AA83F
:1012F0000E94FFF7F3F8002801D072B6FEE70FB0A6
:1013000030BD7047F0B50268204C214D214E224F70
:10131000224B4FF0804CA04209D0984207D0604544
:1013200005D0A84203D0B04201D0B84204D122F087
:10133000700E4A6842EA0E02A04209D0984207D0D5
:10134000604505D0A84203D0B04201D0B84203D1D5
:1013500022F44075CA682A434D6922F080022A436C
:1013600002608A68C2620A688262A04201D0984222
:1013700001D109690163012141610169C90703D0F4
:10138000016921F001010161F0BD0000002C014064
:101390000004004000080040000C00400034014000
:1013A00010B5846842EA032224F47F440A432243AE
:1013B000826010BD826822F070020A4342F0070189
:1013C00081607047F0B5036A026A22F0010202628E
:1013D00042688469124E24F073050C682C4323F094
:1013E00002058B682B430D4DA84201D0B04205D1B8
:1013F00023F00807CB683B4323F00403A84201D045
:10140000B04205D14D6922F4407215438A692A43DE
:1014100042608461496841630362F0BD002C014071
:1014200000340140F0B5026A036A23F0100303623E
:10143000436884690D6824F4E64444EA05248D6811
:1014400022F0200242EA05120F4D104EA84201D0B0
:10145000B04206D1CF6822F0800242EA071222F0A1
:101460004002A84201D0B04207D14D6923F4406345
:1014700043EA85038D6943EA8503436084614968D3
:1014800081630262F0BD0000002C01400034014085
:10149000F0B5026A036A23F4807303624368C46987
:1014A00022F4007224F073050C68124E2C438D68F0
:1014B00042EA05220E4DA84201D0B04206D1CF68C3
:1014C00022F4006242EA072222F48062A84201D09C
:1014D000B04207D14D6923F4405343EA05138D69A7
:1014E00043EA05134360C4614968C1630262F0BD09
:1014F000002C01400034014030B5046A026A22F435
:10150000805202624268C3690D6823F4E64343EAED
:1015100005238D6824F4005444EA0534084DA8429C
:1015200002D0084DA84204D14D6922F4804242EA1B
:1015300085124260C36149680164046230BD0000E5
:10154000002C01400034014010B5036A046A24F005
:1015500001040462846924F0F00444EA021423F0D4
:101560000A020A438461026210BD10B5036A046A6C
:1015700024F010040462846923F0A00324F470446E
:1015800044EA023243EA01118261016210BDFEE7C2
:101590000907090E002804DB00F1E02080F80014A0
:1015A000704700F00F0000F1E02080F8141D704734
:1015B00002E008C8121F08C1002AFAD1704770471C
:1015C000002001E001C1121F002AFBD17047FEF785
:1015D00003FFFFF767FEFFF789FCFFF727FDFFF723
:1015E0005BFDFFF78DFDFFF7BFFDFFF7F1FDFEE7A8
:1015F000010202030405060708090A0B0C0D0E0F71
:1016000010100000000000000000010203040607A3
:101610000809000034160008000000201000000037
:10162000B0150008441600081000002068050000EE
:10163000C0150008010000001000000000000000BC
:0416400000127A001A
:0400000508000131BD
:00000001FF
