:020000040800F2
:10000000A005002001010008E919000841150008B9
:10001000191900086D010008ED1E0008000000001D
:10002000000000000000000000000000251A000889
:100030006F01000800000000EB190008271A0008F3
:100040001B0100081B0100081B0100081B01000820
:100050001B0100081B0100081B0100081B01000810
:100060001B0100081B0100081B0100081B01000800
:100070001B0100081B0100081B0100081B010008F0
:100080001B0100081B0100081B0100081B010008E0
:100090001B0100081B0100081B0100081B010008D0
:1000A0001B0100081B0100081B0100081B010008C0
:1000B0001B0100081B0100081B0100081B010008B0
:1000C0001B0100081B0100081B0100081B010008A0
:1000D0001B0100081B010008E11E00081B010008AD
:1000E0001B0100081B0100081B010008DFF80CD0F1
:1000F00000F02AF8004800472D1F0008A005002046
:100100000648804706480047FEE7FEE7FEE7FEE7B1
:10011000FEE7FEE7FEE7FEE7FEE7FEE7891A0008D6
:10012000ED000008D2B201E000F8012B491EFBD21D
:1001300070470022F6E710B513460A4604461946F2
:10014000FFF7F0FF204610BD064C074D06E0E068C3
:1001500040F0010394E8070098471034AC42F6D30E
:10016000FFF7C8FF2020000840200008FEE7704786
:1001700072B6FEE710B590F821100022022905D0D2
:100180000421816380F82020012010BD01680B68E4
:1001900023F00E030B6001680B6823F001030B6072
:1001A00090F84030C46B012101FA03F3636080F8DA
:1001B000211080F82020104610BD000010B590F8E6
:1001C00021100024022903D00421816301243DE091
:1001D00001680A6822F00E020A6001680A6822F0CB
:1001E00001020A601A4A0168914201D1012121E00D
:1001F000174A1432914201D110211BE0144A2832CF
:10020000914201D1891515E0114A3C32914201D148
:1002100089140FE00E4A5032914202D14FF48031DE
:1002200008E00B4A6432914202D14FF4801101E0A0
:100230004FF08071064A083A5160012180F8211080
:10024000002180F82010416B01B18847204610BD85
:10025000080002402DE9F84FDFF8B8910024A9F119
:10026000040B23460F2709F1040AABF1040EC9E081
:100270000125A5402A40AA427DD1674ED1F804C08D
:10028000ACEB0608B44532D014DCBCF1030F3AD015
:1002900009DCBCF1000F2AD0BCF1010F1CD0BCF16D
:1002A000020F31D11DE0BCF1110F17D0BCF1120FBC
:1002B0002AD119E0B8F5881F19D006DCB8F5803FBF
:1002C00015D0B8F5801F1FD111E0B8F5001F0ED072
:1002D000B8F5041F18D10AE0CB6815E0CB681B1DE8
:1002E00012E0CB6808330FE0CB680C330CE08B686E
:1002F0002BB1012B4FF0080303D0456104E0042328
:1003000002E0056100E00023FF2A01D8064601E073
:1003100000F104064FEA840501D9A5F12005D6F8BD
:10032000008007FA05FC28EA0C0803FA05F548EAFC
:100330000508C6F800804D68ED0062D5374DAE69FE
:1003400046F00106AE61AD6924F0030605F0010533
:100350000095334D06EB050CDCF80850A607360F68
:1003600007FA06F825EA0805DFF8B880404503D10A
:100370004FF0000817E044E0DFF8AC80404502D1C0
:100380004FF001080FE0DFF8A480404502D14FF0A4
:10039000020808E0DFF89880404502D14FF00308DA
:1003A00001E04FF0040808FA06F848EA0508CCF81E
:1003B00008804D68D9F80060ED024D4601D516431E
:1003C00000E096432E604D68DAF80060AD025546B5
:1003D00001D5164300E096432E604D68DBF80060BF
:1003E000AD035D4601D5164300E096432E604D688F
:1003F000DEF80060ED03754601D5164300E0964334
:100400002E60641C0D682A46E5407FF431AFBDE8DC
:10041000F88F000008040140000011100010024095
:100420000000014000080140000C014000100140A4
:10043000001401400AB1016170470904FBE70000A4
:10044000014880687047000014000020024881685D
:10045000027811448160704714000020074810B5ED
:10046000016841F010010160032000F075F80F20D1
:1004700000F006F800F024F8002010BD0020024033
:1004800070B50D4D04464FF47A712878B1FBF0F049
:100490000A490968B1FBF0F000F0DCFA48B9102C09
:1004A00007D200222146501E00F036F800206C6072
:1004B00070BD012070BD000014000020200000204D
:1004C0000C4808B5816941F001018161816901F041
:1004D00001010091C16941F08051C161C06900F022
:1004E000805000900448416821F0E06141F00071C3
:1004F000416008BD0010024000000140002809DBF7
:1005000000F01F02012191404009800000F1E0202D
:10051000C0F8001170470000F0B40E4B1B680C4689
:10052000C3F30223C3F10705042D00D90425191DC7
:10053000072901D2002300E0DB1E012606FA05F19F
:10054000491E214099409E40761E16403143F0BC22
:1005500001F0CDBC0CED00E0064900F00702086890
:100560004FF6FF03184040EA0220034A1043086098
:10057000704700000CED00E00000FA052DE9F0479F
:100580000F46050061D0434E306800F00700B842C6
:1005900009D2306820F0070038433060306800F03E
:1005A0000700B84251D128683B4C810712D540075B
:1005B00003D5606840F4E06060602878000703D5E8
:1005C000606840F4605060606068A96820F0F000E6
:1005D000084360602878C00728D06868012810D0D8
:1005E0002168022810D0890700292EDA616821F0DD
:1005F000030101436160FFF723FF804641F2883920
:100600000DE021688903EFE78901EDE7FFF718FFA7
:10061000A0EB0801494502D90320BDE8F0876068D6
:10062000696800F00C00B0EB810FEFD1306800F08A
:100630000700B8420BD9306820F00700384330601B
:10064000306800F00700B84201D00120E5E72878C3
:10065000400705D56068E96820F4E0600843606001
:100660002878000706D56068296920F4605040EAC0
:10067000C100606000F038F86168084AC1F30311F6
:10068000515CC8400649086006480068FFF7F8FE5C
:100690000020C2E7002002400010024006200008AF
:1006A000200000201800002004480549006849681F
:1006B000044AC1F30221515CC84070472000002069
:1006C00000100240162000080448054900684968E7
:1006D000044AC1F3C221515CC84070472000002089
:1006E00000100240162000080E4A51680E4801F022
:1006F0000C03042B11D0082B0FD10C48C1F38343FA
:10070000C903C05C0AD55168084AC1F34041921E32
:10071000515C054A5043B0FBF1F07047044948432F
:10072000704700000010024000127A00F61F000817
:1007300000093D002DE9F84F040070D02078C04D2D
:10074000C00749D06868C0F38100012807D06868F5
:10075000C0F38100022809D16868C00306D5286863
:10076000800339D560680028E7D035E06068B0F5CF
:10077000803F0BD010B1B0F5A02F11D0286820F425
:1007800080302860286820F4802002E0286840F447
:1007900080302860606890B1FFF752FE06460AE09C
:1007A000286840F480202860F0E700BFFFF748FE8B
:1007B000801B642873D828688003F7D50CE0FFF706
:1007C0003FFE064605E000BFFFF73AFE801B6428A7
:1007D000F0D828688003F7D420789A4E80074FF02D
:1007E00001094FF0000839D5686810F00C0F07D0E8
:1007F0006868C0F38100022809D16868C00306D484
:100800002868800714D52069012808D110E02069E4
:10081000B0B1C6F80090FFF713FE074605E00AE105
:10082000FFF70EFEC01B0228C4D828688007F7D542
:100830002868616920F0F80040EAC10028600DE0F6
:10084000C6F80080FFF7FCFD074604E0FFF7F8FD5F
:10085000C01B022823D828688007F7D42078000717
:100860002CD57948A169D9B1C0F80090FFF7E8FD0F
:10087000074604E0FFF7E4FDC01B02280FD8686AB2
:100880008007F7D571484FF4FA510068B0FBF1F0DA
:10089000009000BF0098411E0091FAD20EE080E067
:1008A000C0F80080FFF7CCFD074604E0FFF7C8FD65
:1008B000C01B022875D8686A8007F7D420784007E3
:1008C00060D5E8690027C00008D4E86940F080508E
:1008D000E861E869012700F0805000905C480168F9
:1008E000C90513D40168834641F480710160FFF7A4
:1008F000A7FD824606E000BFFFF7A2FDA0EB0A00BD
:1009000064284ED8DBF80000C005F5D5E068012862
:100910000AD008B1052813D0286A20F00100286207
:10092000286A20F0040002E0286A40F001002862F2
:10093000E06841F2883B98B1FFF782FD82460BE008
:10094000286A40F004002862EEE700BFFFF778FD58
:10095000A0EB0A0159455AD8286A8007F6D50CE061
:10096000FFF76EFD824605E0FFF76AFDA0EB0A0186
:1009700059454CD8286A8007F6D41FB1E86920F0A1
:100980008050E861E06988B36968C1F38101022998
:1009900044D00228C6F8608004D0FFF751FD044619
:1009A00038E034E0FFF74CFD074604E0FFF748FD70
:1009B000C01B02282BD828688001F7D4206AB0F524
:1009C000803F05D16868A16820F400300843686062
:1009D000D4E908010843696821F474110843686088
:1009E000C6F86090FFF72CFD044606E025E000BF46
:1009F000FFF726FD001B022809D828688001F7D5DB
:100A00001BE000BFFFF71CFD001B022802D90320DA
:100A1000BDE8F88F28688001F4D40EE00128F7D0F3
:100A20006868226A00F48031914204D1616A00F45E
:100A30007010884201D00120EAE70020E8E70000BA
:100A40000010024000004242800442422000002088
:100A50000070004010B5401EB0F1807F01D301202E
:100A600010BD4FF0E02460610F21601701F03FFAE4
:100A70000020A06107202061002010BD10B590F873
:100A80003C20012A22D0012280F83C20CA688C68D0
:100A900022F4407222434C6822F4806222430C68A4
:100AA00022F4006222430C6922F4805222434C69F2
:100AB00022F400522243C969002322F480420A43EF
:100AC00001684A6480F83C30002010BD022010BD4F
:100AD00070B590F83C20012A26D0012480F83C40D3
:100AE000022280F83D2003685A689D6822F0700653
:100AF0000A6832435A600D4B02689A4208D0B2F13C
:100B0000804F05D00A4B9A4202D00A4B9A4204D138
:100B1000496825F080031943916080F83D40002129
:100B200080F83C10084670BD022070BD002C0140CA
:100B3000000400400008004010B5040003D094F801
:100B40003D0010B107E0012010BD002084F83C00FA
:100B5000204600F01FF8022084F83D00211D206887
:100B600000F094FF012084F8460084F83E0084F8E9
:100B70003F0084F8400084F8410084F8420084F883
:100B8000430084F8440084F8450084F83D000020C8
:100B900010BD000008B5174A01681748914207D1F7
:100BA000816941F400618161806900F4006014E0B2
:100BB000B1F1804F0AD0114A914210D1C16941F080
:100BC0000201C161C06900F0020006E0C16941F0A4
:100BD0000101C161C06900F00100009008BD084A30
:100BE0009142FBD1C16941F00401C161C06900F0CB
:100BF0000400F2E7002C0140001002400004004015
:100C00000008004090F83D10012901D001207047F4
:100C1000022180F83D100168CA6842F00102CA60F2
:100C200000680B49884208D0B0F1804F05D00949CF
:100C3000884202D00849884204D1816801F0070146
:100C4000062903D0016841F00101016000207047CE
:100C5000002C0140000400400008004070B504462C
:100C600090F83C000025012817D0012684F83C604C
:100C7000022084F83D002068826822F0770222F486
:100C80007F4282600868502838D00DDC20284FD081
:100C900005DC90B3102811D14AE0022070BD302845
:100CA00046D040280AD13BE060282FD070280DD0D4
:100CB000B0F5805F03D0B0F5005F12D0012584F855
:100CC0003D60002084F83C00284670BDCB68D1E927
:100CD0000121206800F023FF2068816841F077013E
:100CE00009E0CB68D1E90121206800F018FF2068F5
:100CF000816841F480418160E1E719E0CA68496890
:100D0000206800F0C1FF5021206806E0CA684968E9
:100D1000206800F0CAFF6021206800F00AFFCEE7DB
:100D2000CA684968206800F0AFFF40212068F4E7F6
:100D3000226801461046F0E710B586B00021009108
:100D40000191029103911C4C03681C4A02211C482A
:100D5000A3420AD1936943F004039361926902F0BC
:100D6000040204924FF470621EE0B3F1804F12D07F
:100D7000144883421ED1906940F008009061906948
:100D8000039100F0080004904FF47070CDE9000169
:100D900069460D480CE0936943F00403936192693E
:100DA00002F0040204920322CDE900210391694676
:100DB000FFF750FA06B010BD002C014000100240B1
:100DC0000008014000080040000C014070B50446D6
:100DD00090F83C0000260D4601280FD0012084F831
:100DE0003C006AB1042A1DD0082A2FD00C2A3FD01B
:100DF0000126002084F83C00304670BD022070BD02
:100E0000206800F09FFE2068816941F0080181613F
:100E10002068816921F004018161206881692A6963
:100E2000114311E0206800F0B5FE2068816941F4AB
:100E3000006181612068816921F48061816120689D
:100E400081692A6941EA02218161D2E7206800F0C4
:100E5000CDFE2068C16941F00801C1612068C16907
:100E600021F00401C1612068C1692A69114311E0C0
:100E7000206800F0E7FE2068C16941F40061C161AB
:100E80002068C16921F48061C1612068C1692A6953
:100E900041EA0221C161ACE710B5040003D094F827
:100EA0003D0010B107E0012010BD002084F83C0097
:100EB000204600F01EF8022084F83D00211D206825
:100EC00000F0E4FD012084F8460084F83E0084F838
:100ED0003F0084F8400084F8410084F8420084F820
:100EE000430084F8440084F8450084F83D00002065
:100EF00010BD704710B50446022249B104290ED036
:100F0000082913D094F84100012816D0012010BD03
:100F100094F83E000128F9D184F83E200FE094F8BF
:100F20003F000128F2D184F83F2008E094F8400007
:100F30000128EBD184F8402001E084F8412001220F
:100F4000206800F0DFFD0F492068884203D1426C21
:100F500042F4004242642068884208D0B0F1804FD9
:100F600005D00949884202D00849884204D18168E5
:100F700001F00701062903D0016841F00101016079
:100F8000002010BD002C014000040040000800407B
:100F900030B504460D460068002200F0B3FD174B43
:100FA00041F2111120688A10984209D1036A0B425C
:100FB00006D1036A134203D1436C23F40043436414
:100FC0002068036A0B4206D1016A114203D101680D
:100FD00021F00101016001203DB1042D08D0082D50
:100FE00009D084F84100002030BD84F83E00FAE7C3
:100FF00084F83F00F7E784F84000F4E7002C014054
:1010000070477047F8B5016804460868CA684B69BC
:1010100010F00F0F4FF0000559D003F0010602F455
:101020009077374365D0C10705D0D10503D5616CF2
:1010300041F001016164410705D5D90703D0616C16
:1010400041F002016164810705D5D90703D0616CC5
:1010500041F004016164010707D502F0200131432A
:1010600003D0616C41F008016164616C00293AD0E1
:10107000800604D5900602D5204600F057FE206871
:101080004069616CC0F38010090700D460B320464A
:1010900000F025FE20684069400621D52068143004
:1010A00050E8001F21F0400140E80012002AF5D16D
:1010B000E06BA8B16D494163E06BFFF77FF8002852
:1010C00011D0E06B416B01B0BDE8F04008478306EA
:1010D0000FD593060DD52046BDE8F84000F026BE9A
:1010E0002046FFF78EFFF8BD2046FFF78AFF6564B4
:1010F000F8BD266B2023012E7CD1C6067AD5D606F4
:1011000078D508684868009048694FF002064006A4
:1011100040D5E16B086840680004000CE8D0A28D5F
:101120008242E5D9E085886920282DD020680C30DE
:1011300050E8001F21F4807140E80012002AF5D128
:101140002068143050E8001F21F0010140E800122F
:10115000002AF5D12068143050E8001F21F040012A
:1011600040E80012002AF5D184F842302563206857
:101170000C3050E8001F21F0100140E80012002A56
:10118000F5D1E06BFEF7F6FF6663A08DE18D401AA6
:1011900081B22AE0A08DE18D401A81B2E08D002855
:1011A000A6D00029A4D022680C3252E8000F20F407
:1011B000907042E80007002FF5D12068143050E805
:1011C000002F22F0010240E80027002FF5D184F81B
:1011D0004230256320680C3050E8002F22F01002C6
:1011E00040E80023002BF5D166632046FFF708FF97
:1011F000F8BDFFE705062BD5150629D594F8410063
:101200002128F5D1A068B0F5805F01D12069B0B187
:10121000206A411C2162216800784860E08C401EF1
:101220000004000CE084E3D12068C16821F0800153
:10123000C1602068C16841F04001C160D8E7206A00
:101240000088C0F308004860206A801C2062E5E73F
:101250004006CDD55006CBD5CA68204622F04002C4
:10126000CA6084F8413000F06AF9C1E7CF1C000879
:1012700070B5040004D094F84100002510B106E0D8
:10128000012070BD84F84050204600F023F824204F
:1012900084F841002068C16821F40051C1602046F3
:1012A00000F0A6FD2068016921F4904101612068E9
:1012B000416921F02A0141612068C16841F400516F
:1012C000C1606564202084F8410084F842006563B1
:1012D000002070BD30B585B00024009401940294C4
:1012E00003940068184988422BD11848C16941F419
:1012F0000031C161C16901F400310491816941F09B
:10130000040181618069124D00F004000490042002
:101310000090022001900320039069462846FEF7C2
:1013200099FF0820CDE90004694628460294FEF79B
:1013300091FF002211462620FFF7EEF82620FFF746
:10134000DDF805B030BD0000004400400010024050
:101350000008014090F84230202B01D00220704755
:1013600021B11AB10023036300F09EBD0120704734
:101370002DE9F0416049884272D1604D604CA978F6
:10138000E878012922D001284FF0000225D002215F
:101390002046FFF74FF8012211462046FFF74AF892
:1013A000297AA87900F022FB687A564DE0B101282D
:1013B0002BD0AE142F154FF4005802283FD003282D
:1013C0004FD004286AD005287ED08CE0002201216D
:1013D0002046FFF72FF8012204E001212046FFF705
:1013E00029F800220221D8E7002210212846FFF721
:1013F00021F8002240212846FFF71CF80122202175
:101400002846FFF717F801220FE000221021284696
:10141000FFF710F8002240212846FFF70BF80022C2
:1014200020212846FFF706F8002220212846FFF752
:1014300001F800213448FFF75DFD04212AE0002275
:1014400004212046FEF7F6FF002231462046FEF733
:10145000F1FF012239462046FEF7ECFF012210E0A1
:1014600048E0002204212046FEF7E4FF0022314636
:101470002046FEF7DFFF002239462046FEF7DAFF5E
:10148000002241462046FEF7D5FF08211E48FFF7FF
:1014900031FD0C211C48FFF72DFD24E00022042122
:1014A0002046FEF7C7FF002231462046FEF7C2FF66
:1014B000012239462046FEF7BDFF01224146204663
:1014C000FEF7B8FF082100E007E00F48FFF712FD24
:1014D0000C210D48FFF70EFD86E7002000F05EFAB4
:1014E000012000F05BFABDE8F0410D2203490248FB
:1014F000FFF730BFBDE8F081540100202400002038
:10150000000C0140000801403400002090F84130F8
:10151000202B01D00220704779B172B10162828420
:10152000C28400214164212180F841100068C16813
:1015300041F08001C1600020704701207047704772
:10154000FEE700002DE9F04786B000242D48009406
:10155000019402940394816941F0100181618169D1
:1015600001F010010491816941F0200181618169DC
:1015700001F020010491816941F0040181618169D8
:1015800001F004010491816941F0080181618069E1
:10159000DFF8748000F008004FF4604504900022EA
:1015A00029464046FEF746FFDFF860900022F02112
:1015B0004846FEF73FFFDFF858A043F207470022F6
:1015C00039465046FEF736FF009502260125039660
:1015D000CDE9015469464046FEF73CFEF020CDE9D6
:1015E0000005CDE9024669464846FEF733FE0097FE
:1015F0000396CDE9015469465046FEF72BFE06B02E
:10160000BDE8F087001002400010014000080140D2
:10161000000C014010B596B000240F941094119462
:10162000129413941C2168461494FEF782FD202125
:1016300007A8FEF77EFD3448324901604721C0E922
:10164000011440F2E731C0E9031444618461FFF7FB
:1016500073FA08B1FEF78CFD4FF480500F900FA97C
:101660002948FFF7FBFA08B1FEF782FD2648FFF78D
:1016700013FC08B1FEF77CFD139413A922481494BF
:10168000FFF726FA08B1FEF773FD6020CDE90004EC
:101690000294039404940594002269461A4806941F
:1016A000FFF794FB08B1FEF763FD04226946164874
:1016B000FFF78CFB08B1FEF75BFD08226946124874
:1016C000FFF784FB08B1FEF753FD0C2269460E4874
:1016D000FFF77CFB08B1FEF74BFD079408940994D3
:1016E0004FF400500A94CDE90B4007A906480E9428
:1016F000FFF7C4F908B1FEF73BFD0348FFF71CFBF9
:1017000016B010BD002C01403400002010B58EB082
:1017100000240794089409940A940B941C216846A9
:101720000C94FEF706FD22484FF08041016040F224
:10173000CF21C0E9011440F2CF71C0E903148461E4
:10174000FFF7FAF908B1FEF713FD4FF48050079048
:1017500007A91748FFF782FA08B1FEF709FD1448F8
:10176000FFF79AFB08B1FEF703FD0B940BA9104895
:101770000C94FFF7ADF908B1FEF7FAFC6020CDE953
:10178000000402940022694609480494FFF71EFBF6
:1017900008B1FEF7EDFC042269460548FFF716FB89
:1017A00008B1FEF7E5FC0248FFF7C6FA0EB010BD1F
:1017B0007C00002010B586B00024164800940194E7
:1017C00002940394049412490594C0E900144FF65E
:1017D000FF71C0E9024104618461FFF7ADF908B10E
:1017E000FEF7C6FC4FF48050009069460948FFF7A9
:1017F00035FA08B1FEF7BCFC049404A90548059429
:10180000FFF766F9002801D0FEF7B2FC06B010BD64
:1018100000040040C400002010B58EB000240794DE
:10182000089409940A940B941C2168460C94FEF7C2
:1018300080FC2A48284901604721C0E9011440F290
:10184000E731C0E903148461FFF776F908B1FEF7C8
:101850008FFC4FF48050079007A92048FFF7FEF94E
:1018600008B1FEF785FC1D48FFF716FB08B1FEF72F
:101870007FFC0B940BA919480C94FFF729F908B1C8
:10188000FEF776FC6020CDE9000402940022694650
:1018900012480494FFF79AFA08B1FEF769FC042293
:1018A00069460E48FFF792FA08B1FEF761FC08227C
:1018B00069460A48FFF78AFA08B1FEF759FC0C227C
:1018C00069460648FFF782FA08B1FEF751FC034863
:1018D000FFF732FA0EB010BD000800400C010020E6
:1018E0000C4810B50A4901604FF4165141600021BF
:1018F00081600C22C160C0E904128161C161FFF7FF
:10190000B7FC002803D0BDE81040FEF731BC10BD85
:101910000044004054010020FEE7000070B51C4C5C
:10192000002201212046FEF785FD002202212046EB
:10193000FEF780FD174D002201212846FEF77AFDB3
:10194000002202212846FEF775FD012204212046CF
:10195000FEF770FD012208212046FEF76BFD0122F3
:1019600004212846FEF766FD012208212846FEF7DD
:1019700061FD3C210848FFF70BFB07480068C16880
:1019800041F00101C160BDE870400348FFF73AB97A
:1019900000080140000C01403400002010B598B14F
:1019A0000C210D48FFF7F4FA01220C4C04212046CB
:1019B000FEF740FD012208212046FEF73BFD0849C5
:1019C00000204860886010BD04210348FFF7E0FA5A
:1019D00001220421034CEAE734000020000C0140FE
:1019E0000000002000080140FEE7704770B50C467B
:1019F0000B4D4FF40051012807D000280FD10022D1
:101A00002846BDE87040FEF715BD01222846FEF7C6
:101A100011FD4FF48041012CF1D10122F0E770BD9E
:101A2000001001407047FEF711BD30B58FB028217E
:101A30006846FEF77EFB14210AA8FEF77AFB012117
:101A40000804CDE900100024029402250491CDE998
:101A500007504FF4E01009906846FEF76BFE08B19E
:101A600072B6FEE70F20CDE90A054FF48060CDE99C
:101A70000C4002210AA80E94FEF780FD002801D038
:101A800072B6FEE70FB030BD70470000F0B50268D7
:101A9000194B1A4C1A4D4FF08047984205D0B84266
:101AA00003D0A04201D0A84203D122F070064A68B8
:101AB0003243984205D0B84203D0A04201D0A84298
:101AC00003D122F44074CA6822434C6922F0800298
:101AD000224302608A68C2620A688262984201D127
:101AE00009690163012141610169C90703D00169E5
:101AF00021F001010161F0BD002C01400004004013
:101B00000008004010B501F01F030121046A99404C
:101B10008C430462016A9A401143016210BD10B502
:101B2000846842EA032224F47F440A432243826009
:101B300010BD826822F070020A4342F00701816002
:101B40007047000030B5036A026A22F001020262A7
:101B50004268846924F073050C682C4323F0020565
:101B60008B682B430A4DA8420BD123F00805CB68A4
:101B700022F440722B434D6923F0040315438A6914
:101B80002A434260846149684163036230BD0000BA
:101B9000002C014030B5026A036A23F0100303628F
:101BA000436884690D6824F4E64444EA05248D689A
:101BB00022F0200242EA05120B4DA8420ED1CD6858
:101BC00022F0800242EA05124D6923F4406343EAA1
:101BD00085038D6922F0400243EA850343608461F6
:101BE00049688163026230BD002C014030B5036A50
:101BF000026A22F4807202624268C46923F40073AC
:101C000024F073050C682C438D6843EA05230C4DC2
:101C1000A8420ED1CD6823F4006343EA05234D6941
:101C200022F4405242EA05128D6923F4806342EAAD
:101C300005124260C4614968C163036230BD00009F
:101C4000002C014030B5046A026A22F4805202621C
:101C50004268C3690D6823F4E64343EA05238D68AF
:101C600024F4005444EA0534064DA84204D14D69D9
:101C700022F4804242EA85124260C36149680164ED
:101C8000046230BD002C014010B5036A046A24F0E0
:101C900001040462846924F0F00444EA021423F08D
:101CA0000A020A438461026210BD10B5036A046A25
:101CB00024F010040462846923F0A00324F4704427
:101CC00044EA023243EA01118261016210BD10B59B
:101CD000406A0021C185C184FFF793F910BD0168F6
:101CE0000C3151E8002F22F4907241E80023002BC0
:101CF000F5D10168143151E8002F22F0010241E8CA
:101D00000023002BF5D1016B012909D101680C31A9
:101D100051E8002F22F0100241E80023002BF5D1FA
:101D2000202180F8421000210163704708B590F827
:101D30004210222901D0022008BD82684FF480534E
:101D40009A4201D1016921B1816A9A421BD04AB1FC
:101D50000AE00268816A5268C2F308020A80816A56
:101D6000891C08E0026972B10268526802F07F02C1
:101D70000A70816A491C8162C18D491E0904090CDF
:101D8000C18503D01BE002685268F1E70168CA68A8
:101D900022F02002CA600168CA6822F48072CA6018
:101DA00001684A6922F001024A61202180F842104C
:101DB00000214163026B012A03D0FFF7D9FA00200A
:101DC00008BD016301680C3151E8002F22F01002B8
:101DD00041E80023002BF5D101680A68D20602D53C
:101DE0000A6849680091818DFFF70AF9E7E700006A
:101DF00070B5044600680169E26821F4405111435E
:101E000001612169A0680843616908432168CA68C3
:101E100041F20C639A430243CA6020684169A26997
:101E200021F44071114341611E492068884202D16A
:101E3000FEF74AFC01E0FEF737FC00EBC00101EBC6
:101E40000012606864218000B2FBF0F3B3FBF1F391
:101E50006FF018067343B2FBF0F5B2FBF0F605EB3A
:101E60008305322303EB0515B5FBF1F5B6FBF1F65F
:101E700005F0F00505EB0615B2FBF0F6B2FBF0F04D
:101E8000B0FBF1F06FF01802504306EB800003EB5B
:101E90000010B0FBF1F0216800F00F0028448860CA
:101EA00070BD00000038014081628285C28500213A
:101EB0004164222180F84210016921B10168CA6899
:101EC00042F48072CA6001684A6942F001024A61C4
:101ED0000068C16841F02001C16000207047000027
:101EE0000148FFF78FB8000054010020FEE7090702
:101EF000090E002804DB00F1E02080F80014704790
:101F000000F00F0000F1E02080F8141D704702E09F
:101F100008C8121F08C1002AFAD170477047002074
:101F200001E001C1121F002AFBD17047FEF796FAAB
:101F3000FFF77BFDFFF706FBFFF76CFBFFF7D0FC1D
:101F4000FFF7E4FBFFF736FCFFF766FC0D222449A0
:101F50002448FFF7FFF900212348FEF7CBFF0421B7
:101F60002148FEF7C7FF00212048FEF7C3FF0421E8
:101F70001E48FEF7BFFF08211C48FEF7BBFF0C21DF
:101F80001A48FEF7B7FFFFF7C9FC154D164FDFF8EB
:101F90005C80174C4FF44879322600BFD8F80020F7
:101FA000C2F83490D8F80010C1F83890687801224F
:101FB00006EB400020700E490A48FFF7A7FA39687F
:101FC0002078486368790A4906EB40006070012276
:101FD000491C0448FFF79AFA396860788863DDE79E
:101FE00024000020540100207C0000200C0100206F
:101FF00010000020010202030405060708090A0B6D
:102000000C0D0E0F10100000000000000000010277
:102010000304060708090000000001020304000091
:102020004020000800000020240000000E1F0008CF
:1020300064200008240000207C0500001E1F00080A
:102040000000000000000000000000000000000090
:10205000000000000100000010000000000000006F
:0420600000127A00F0
:04000005080000ED02
:00000001FF
