:020000040800F2
:10000000D0070020CD010008A3260008E71C000847
:10001000A1260008F1020008992C00080000000049
:100020000000000000000000000000006127000840
:10003000F302000800000000A5260008632700085E
:10004000E7010008E7010008E7010008E7010008F0
:10005000E7010008E7010008E7010008E7010008E0
:10006000E7010008E7010008E7010008E7010008D0
:10007000E7010008E7010008E7010008E7010008C0
:10008000E7010008E7010008E7010008E7010008B0
:10009000E7010008E7010008E7010008E7010008A0
:1000A000E7010008E7010008E7010008E701000890
:1000B000E7010008C9270008E7010008E701000878
:1000C000E7010008E7010008E7010008E701000870
:1000D000E70100088D2C0008E7010008E70100088F
:1000E000E7010008E7010008E7010008E701000850
:1000F000E7010008E7010008E7010008E701000840
:10010000E7010008E7010008E7010008E70100082F
:10011000E7010008E7010008E7010008E70100081F
:10012000E7010008E7010008E7010008E70100080F
:1001300000F002F800F03AF80AA090E8000C8244BF
:100140008344AAF10107DA4501D100F02FF8AFF29C
:10015000090EBAE80F0013F0010F18BFFB1A43F0A5
:10016000010318470832000028320000103A24BF6B
:1001700078C878C1FAD8520724BF30C830C144BF0C
:1001800004680C607047000000230024002500264E
:10019000103A28BF78C1FBD8520728BF30C148BFEA
:1001A0000B6070471FB51FBD10B510BD00F058F8AB
:1001B0001146FFF7F7FF02F0DDFD00F076F803B41B
:1001C000FFF7F2FF03BC00F07DF80000094880470C
:1001D00009480047FEE7FEE7FEE7FEE7FEE7FEE729
:1001E000FEE7FEE7FEE7FEE704480549054A064B41
:1001F00070470000C527000831010008D001002029
:10020000D0070020D0030020D00300204FF00002D0
:1002100000B5134694469646203922BFA0E80C50FC
:10022000A0E80C50B1F12001BFF4F7AF090728BFD7
:10023000A0E80C5048BF0CC05DF804EB890028BF53
:1002400040F8042B08BF704748BF20F8022B11F07C
:10025000804F18BF00F8012B7047704770477047F8
:10026000754600F02BF8AE4605006946534620F06F
:100270000700854618B020B5FFF7B6FFBDE820405F
:100280004FF000064FF000074FF000084FF0000B52
:1002900021F00701AC46ACE8C009ACE8C009ACE805
:1002A000C009ACE8C0098D46704710B50446AFF3ED
:1002B00000802046BDE81040FFF781BF004870472E
:1002C0006C01002001491820ABBEFEE726000200A9
:1002D000704710B5002001F045FF002002F010FA31
:1002E000002001F013FFBDE81040002002F0DCB94F
:1002F000FEE7704772B6FEE710B590F821100022B5
:10030000022905D00421816380F82020012010BD3E
:1003100001680B6823F00E030B6001680B6823F083
:1003200001030B6090F84030C46B012101FA03F324
:10033000636080F8211080F82020104610BD000076
:100340002DE9F05F90F821100024022903D0042148
:100350008163012485E001680A6822F00E020A60C8
:1003600001680A6822F001020A603F4E3E4FB21552
:10037000DFF8F4C0DFF8F090DFF8ECA0DFF8E8B0C9
:10038000DFF8E4E00168783F13011502ACF1640C7A
:10039000A9F15009AAF13C0AABF1280BAEF1140EF9
:1003A0004FF48018B14227D9B9420ED0614512D01E
:1003B00049451DD0514518D0594518D0714501D136
:1003C000424615E0294EB14201D1012210E0274EEC
:1003D0001436B14201D110220AE0244E2836B1422F
:1003E00006D0224A3C32914201D11A4600E02A4608
:1003F0001E49091F0A602BE0B94213D0614517D08E
:10040000494522D051451DD059451DD0714501D1D6
:1004100042461AE0B14202D14FF0807215E0134E0D
:10042000B14201D1012210E0104E1436B14201D187
:1004300010220AE00D4E2836B14206D00B4A3C325B
:10044000914201D11A4600E02A46074980394A60A4
:10045000012180F82110002180F82010416B01B1AA
:1004600088472046BDE8F09F800002400804024013
:1004700070B5044600F010F90546601C02D004482F
:100480000078044400F008F9401BA042FAD370BD84
:10049000200000202DE9F84FDFF8C8910024A9F1D1
:1004A000040B23460F2709F1040AABF1040ED1E037
:1004B0000125A54006EA0502AA4276D1DFF8A8C1C7
:1004C0004E68A6EB0C0866452BD00DDC032E34D00D
:1004D00005DC36B3012E19D0022E2FD11BE0112ED0
:1004E00016D0122E2AD119E0B8F5881F19D006DCD3
:1004F000B8F5803F15D0B8F5801F1FD111E0B8F5D1
:10050000001F0ED0B8F5041F18D10AE0CB6815E023
:10051000CB681B1D12E0CB6808330FE0CB680C33AF
:100520000CE08B682BB1012B4FF0080303D0456121
:1005300004E0042302E0056100E00023FF2A01D863
:10054000064601E000F104064FEA840501D9A5F151
:100550002005D6F8008007FA05FC28EA0C0803FA03
:1005600005F548EA0508C6F800804D68ED0070D52D
:100570003E4DAE6946F00106AE61AD6924F003065A
:1005800005F0010500953A4D06EB050CDCF8085026
:10059000A607360F07FA06F825EA0805DFF8D48023
:1005A000404503D14FF0000825E052E0DFF8C88055
:1005B000404502D14FF001081DE0DFF8C080404502
:1005C00002D14FF0020816E0DFF8B480404502D1B6
:1005D0004FF003080FE0DFF8AC80404502D14FF048
:1005E000040808E0DFF8A080404502D14FF005087C
:1005F00001E04FF0060808FA06F848EA0508CCF8CA
:1006000008804D68D9F80060ED024D4601D51643CB
:1006100000E096432E604D68DAF80060AD02554662
:1006200001D5164300E096432E604D68DBF800606C
:10063000AD035D4601D5164300E096432E604D683C
:10064000DEF80060ED03754601D5164300E09643E1
:100650002E60641C0A681646E2407FF429AFBDE8AC
:10066000F88F000008040140000011100010024043
:100670000000014000080140000C01400010014052
:100680000014014000180140001C01400AB1016142
:1006900070470904FBE700000148806870470000CC
:1006A0002000002070B5040025D094F83D000025FE
:1006B00020B984F83C50204600F076FA242084F8D3
:1006C0003D002068016821F0010101602068016897
:1006D00041F4004101602068016821F4004101609B
:1006E00000F0BEFB4D4A6168914201D84C4900E0E0
:1006F0004C49884201D2012070BD4B492368B0FBB0
:10070000F1F15E6826F03F060E435E606368934237
:1007100006D94FF4967359434FF47A73B1FBF3F152
:100720002368491C1E6A26F03F063143196261683E
:10073000914210D84900401EB0FBF1F2521CC2F3A6
:100740000B02042A01D2042022E0B0FBF1F0401C8D
:10075000C0F30B001CE0A268F2B301EBC10303EB92
:100760000116431EB3FBF6F35B1C43F480431B05E9
:1007700049D092B301EBC10202EB0111401EB0FB64
:10078000F1F0401CC0F30B0040F4804040F4004006
:100790002168CA694CF6FF739A431043C861D4E9D3
:1007A000071001432068026822F0C0021143016073
:1007B000D4E9030101432068826848F2FF339A4379
:1007C00011438160D4E9050108432168CA6822F019
:1007D000FF021043C86001E00EE016E020680168E7
:1007E00041F0010101602564202084F83D0025636B
:1007F00084F83E50002070BD01EB4106431EB3FB60
:10080000F6F35B1CB3E70120C2E701EB4101401E98
:10081000B0FBF1F0401CC0F30B00B7E7A08601006D
:1008200080841E0000093D0040420F002DE9F84F72
:100830000025DDF82890984617468A46044600951C
:10084000FFF72AFF064694F83D0020287AD11923A5
:10085000012286492046009601F04EFB0028F5D182
:1008600094F83C0001286DD0012084F83C002068F9
:100870000168C90703D1016841F0010101602068E6
:10088000016821F400610160222084F83D001020FD
:1008900084F83E0025646762A4F82A80608D208574
:1008A0007348E06233464A465146204601F034FA26
:1008B00000287CD1208DDFF8BC81202768B1012879
:1008C00014D00228206801681ED041F480610160C4
:1008D0002068416980690090BBE0206841698169B6
:1008E0000091016841F400710160B2E02068016884
:1008F00021F48061016072B62068416981690091CC
:10090000016841F400710AE041F40061016072B6CF
:100910002068416981690091016821F4806101606A
:1009200062B696E0032865D801280CD002284B4611
:100930004FF000024146204600960BD001F0DCFA51
:10094000A8BB0CE090E032464946204601F07AFB15
:1009500068BB71E001F0D0FA48BB72B633E02068A2
:10096000016821F48061016072B620680069616AE3
:100970000870606A401C6062208D401E2085608D7A
:10098000401E60853C4846F2A8110068B0FBF1F0BB
:10099000C0EBC00000EB80000090401E009007D02C
:1009A00020684069C04340070DD50098F5E727E06F
:1009B00044F8305F6773A573206940F02000206120
:1009C00062B625731CE02068016841F40071016083
:1009D00020680069616A0870606A401C6062218D4D
:1009E000491E2185618D491E618562B621680969AC
:1009F000017025E032464946204601F023FB10B144
:100A00000120BDE8F88F20680069616A0870606A9B
:100A1000401C6062208D401E81B22185608D401E89
:100A2000608520684269D243520712D4032903D15A
:100A3000016821F48061016020680069616A0870C2
:100A4000606A401C6062208D401E2085608D401EC3
:100A50006085208D00287FF465AF84F83D7084F8B0
:100A60003E5084F83C50CCE70220CAE70200100058
:100A70000000FFFF040001002C0000202DE9F84FCA
:100A80001F4690468A460446DDF82890FFF704FE8C
:100A9000054694F83D0020287FD1192301224049C2
:100AA0002046009501F028FA002876D194F83C0001
:100AB000012872D0012084F83C0020680168C90731
:100AC00003D1016841F0010101602068016821F44F
:100AD00000610160212084F83D00102084F83E0070
:100AE00000262664C4F824806785608D20852D4803
:100AF000E0622B464A465146204601F083F990B900
:100B0000206841698069009036E02A4649462046BF
:100B100001F0D0FA50B1206C042804D1206801689B
:100B200041F4007101600120BDE8F88F606A21681E
:100B300000780861606A401C6062618D491E6185B1
:100B4000218D491E89B2218522685369DB435B07E9
:100B50000BD451B100781061606A401C6062608DF6
:100B6000401E6085208D401E20852A46494620462D
:100B700001F096F90028CED1208D0028C5D154F877
:100B80003D0B016841F400710160202004F81E094A
:100B9000E67766770020C7E7FFE70220C4E700009A
:100BA000020010000000FFFF10B586B00021009188
:100BB00001910291039100680F4988421AD10F4CAC
:100BC000A06940F00800A061A069694600F0080033
:100BD0000490C02000901220019003200390084848
:100BE000FFF758FCE06940F40010E061E06900F4B0
:100BF0000010049006B010BD0054004000100240E8
:100C0000000C0140024881680278114481607047FD
:100C100020000020074810B5016841F01001016074
:100C2000032000F075F80F2000F006F800F024F81B
:100C3000002010BD0020024070B50D4D04464FF459
:100C40007A712878B1FBF0F00A490968B1FBF0F03D
:100C500000F0DCFA48B9102C07D200222146501EC1
:100C600000F036F800206C6070BD012070BD0000FF
:100C7000200000202C0000200C4808B5816941F0BC
:100C800001018161816901F001010091C16941F0B7
:100C90008051C161C06900F08050009004484168F3
:100CA00021F0E06141F00071416008BD0010024098
:100CB00000000140002809DB00F01F0201219140E3
:100CC0004009800000F1E020C0F8001170470000EA
:100CD000F0B40E4B1B680C46C3F30223C3F10705A7
:100CE000042D00D90425191D072901D2002300E095
:100CF000DB1E012606FA05F1491E214099409E405F
:100D0000761E16403143F0BC02F024B80CED00E032
:100D1000064900F0070208684FF6FF03184040EA52
:100D20000220034A10430860704700000CED00E009
:100D30000000FA052DE9F0470F46050061D0434E4B
:100D4000306800F00700B84209D2306820F0070090
:100D500038433060306800F00700B84251D128684D
:100D60003B4C810712D5400703D5606840F4E06032
:100D700060602878000703D5606840F460506060C8
:100D80006068A96820F0F000084360602878C00718
:100D900028D06868012810D02168022810D089075F
:100DA00000292EDA616821F0030101436160FFF739
:100DB00073FC804641F288390DE021688903EFE732
:100DC0008901EDE7FFF768FCA0EB0801494502D96E
:100DD0000320BDE8F0876068696800F00C00B0EBA4
:100DE000810FEFD1306800F00700B8420BD93068AE
:100DF00020F0070038433060306800F00700B84248
:100E000001D00120E5E72878400705D56068E9684A
:100E100020F4E060084360602878000706D5606829
:100E2000296920F4605040EAC100606000F038F8A1
:100E30006168084AC1F30311515CC8400649086063
:100E400006480068FFF7F8FE0020C2E700200240D5
:100E500000100240543300082C0000202400002021
:100E60000448054900684968044AC1F30221515CFD
:100E7000C84070472C000020001002406433000876
:100E80000448054900684968044AC1F3C221515C1D
:100E9000C84070472C000020001002406433000856
:100EA0000E4A51680E4801F00C03042B11D0082B98
:100EB0000FD10C48C1F38343C903C05C0AD5516804
:100EC000084AC1F34041921E515C054A5043B0FBB1
:100ED000F1F0704704494843704700000010024099
:100EE00000127A004433000800093D002DE9F84F54
:100EF000040070D02078C04DC00749D06868C0F3A6
:100F00008100012807D06868C0F38100022809D158
:100F10006868C00306D52868800339D56068002852
:100F2000E7D035E06068B0F5803F0BD010B1B0F588
:100F3000A02F11D0286820F480302860286820F481
:100F4000802002E0286840F480302860606890B11A
:100F5000FFF7A2FB06460AE0286840F480202860DC
:100F6000F0E700BFFFF798FB801B642873D8286860
:100F70008003F7D50CE0FFF78FFB064605E000BFC6
:100F8000FFF78AFB801B6428F0D828688003F7D419
:100F900020789A4E80074FF001094FF0000839D5AC
:100FA000686810F00C0F07D06868C0F38100022851
:100FB00009D16868C00306D42868800714D5206961
:100FC000012808D110E02069B0B1C6F80090FFF701
:100FD00063FB074605E00AE1FFF75EFBC01B022842
:100FE000C4D828688007F7D52868616920F0F80020
:100FF00040EAC10028600DE0C6F80080FFF74CFB16
:10100000074604E0FFF748FBC01B022823D82868E6
:101010008007F7D4207800072CD57948A169D9B189
:10102000C0F80090FFF738FB074604E0FFF734FBF9
:10103000C01B02280FD8686A8007F7D571484FF4A3
:10104000FA510068B0FBF1F0009000BF0098411E1B
:101050000091FAD20EE080E0C0F80080FFF71CFBA0
:10106000074604E0FFF718FBC01B022875D8686A22
:101070008007F7D42078400760D5E8690027C000D2
:1010800008D4E86940F08050E861E869012700F081
:10109000805000905C480168C90513D401688346FC
:1010A00041F480710160FFF7F7FA824606E000BF65
:1010B000FFF7F2FAA0EB0A0064284ED8DBF8000034
:1010C000C005F5D5E06801280AD008B1052813D07D
:1010D000286A20F001002862286A20F0040002E05B
:1010E000286A40F001002862E06841F2883B98B12C
:1010F000FFF7D2FA82460BE0286A40F0040028622B
:10110000EEE700BFFFF7C8FAA0EB0A0159455AD82D
:10111000286A8007F6D50CE0FFF7BEFA824605E0A4
:10112000FFF7BAFAA0EB0A0159454CD8286A8007A4
:10113000F6D41FB1E86920F08050E861E06988B317
:101140006968C1F38101022944D00228C6F8608091
:1011500004D0FFF7A1FA044638E034E0FFF79CFA28
:10116000074604E0FFF798FAC01B02282BD828682E
:101170008001F7D4206AB0F5803F05D16868A16886
:1011800020F4003008436860D4E908010843696826
:1011900021F4741108436860C6F86090FFF77CFA88
:1011A000044606E025E000BFFFF776FA001B0228A0
:1011B00009D828688001F7D51BE000BFFFF76CFA5B
:1011C000001B022802D90320BDE8F88F286880019F
:1011D000F4D40EE00128F7D06868226A00F4803168
:1011E000914204D1616A00F47010884201D001205C
:1011F000EAE70020E8E70000001002400000424259
:10120000800442422C0000200070004010B5401EB7
:10121000B0F1807F01D3012010BD4FF0E024606168
:101220000F21601701F096FD0020A06107202061CA
:10123000002010BD7047704770B590F83C20012A1F
:101240002CD0012480F83C40022280F83D20036825
:101250005A689D6822F070060A6832435A60104B43
:1012600002689A420ED00F4B9A420BD0B2F1804FD7
:1012700008D00D4B9A4205D00C4B9A4202D00C4B31
:101280009A4204D1496825F080031943916080F89F
:101290003D40002180F83C10084670BD022070BD22
:1012A000002C0140003401400004004000080040D0
:1012B000000C004010B5040003D094F83D0010B1BC
:1012C00007E0012010BD002084F83C00204600F01B
:1012D0001FF8022084F83D00211D206801F07AFAF1
:1012E000012084F8460084F83E0084F83F0084F82A
:1012F000400084F8410084F8420084F8430084F8F8
:10130000440084F8450084F83D00002010BD000032
:1013100008B501681048B1F1804F14D00F4A9142CE
:1013200019D1C16941F00201C161C069002200F018
:101330000200009011461D20FFF7CAFCBDE80840DE
:101340001D20FFF7B7BCC16941F00101C161C0694F
:1013500000F00100009008BD0010024000040040B1
:1013600090F83D10012901D001207047022180F83A
:101370003D100168CA6842F00102CA6000680E4967
:1013800088420ED00D4988420BD0B0F1804F08D072
:101390000B49884205D00B49884202D00A4988424D
:1013A00004D1816801F00701062903D0016841F0EA
:1013B0000101016000207047002C01400034014011
:1013C0000004004000080040000C004070B50446D6
:1013D00090F83C000025012817D0012684F83C60D5
:1013E000022084F83D002068826822F0770222F40F
:1013F0007F4282600868502838D00DDC20284FD00A
:1014000005DC90B3102811D14AE0022070BD3028CD
:1014100046D040280AD13BE060282FD070280DD05C
:10142000B0F5805F03D0B0F5005F12D0012584F8DD
:101430003D60002084F83C00284670BDCB68D1E9AF
:101440000121206801F021FA2068816841F07701CC
:1014500009E0CB68D1E90121206801F016FA206883
:10146000816841F480418160E1E719E0CA68496818
:10147000206801F0DFFA5021206806E0CA68496858
:10148000206801F0E8FA6021206801F008FACEE750
:10149000CA684968206801F0CDFA40212068F4E765
:1014A000226801461046F0E770472DE9F0410446F6
:1014B0000068C66805694FF00007A90713D5B10792
:1014C00011D5F91E0161012020772068806980070D
:1014D000204602D0FFF7E8FF04E000F0A3F8204622
:1014E00000F035F92777680716D5700714D52168FD
:1014F0006FF004000861022020772068806910F4F2
:10150000407F204602D0FFF7CFFF04E000F08AF8CA
:10151000204600F01CF92777280715D5300713D58A
:1015200021686FF008000861042020772068C069F6
:101530008007204602D0FFF7B7FF04E000F072F802
:10154000204600F004F92777E80616D5F00614D5F2
:1015500021686FF010000861082020772068C069BA
:1015600010F4407F204602D0FFF79EFF04E000F019
:1015700059F8204600F0EBF82777E80708D0F00785
:1015800006D021686FF001000861204600F03AF9AA
:10159000280608D5300606D521686FF0800008615E
:1015A0002046FFF747FE680608D5700606D5216875
:1015B0006FF040000861204600F0B2F9A8060AD595
:1015C000B00608D521686FF0200008612046BDE80C
:1015D000F041FFF730BEBDE8F081000000B585B0F6
:1015E000002100910191029103910068B0F1804FB8
:1015F00011D10A48816941F004018161806969461D
:1016000000F0040004900F2000900220019003904D
:101610000348FEF73FFF05B000BD00000010024088
:1016200000080140704770B5044690F83C00002661
:101630000D4601280FD0012084F83C006AB1042A2D
:101640001DD0082A2FD00C2A3FD00126002084F874
:101650003C00304670BD022070BD206801F028F9C2
:101660002068816941F0080181612068816921F069
:1016700004018161206881692A69114311E02068B1
:1016800001F046F92068816941F4006181612068B8
:10169000816921F480618161206881692A6941EA58
:1016A00002218161D2E7206801F068F92068C169F0
:1016B00041F00801C1612068C16921F00401C161E4
:1016C0002068C1692A69114311E0206801F08AF994
:1016D0002068C16941F40061C1612068C16921F4D9
:1016E0008061C1612068C1692A6941EA0221C16142
:1016F000ACE710B5040003D094F83D0010B107E04A
:10170000012010BD002084F83C00204600F01EF8A7
:10171000022084F83D00211D206801F05BF80120C3
:1017200084F8460084F83E0084F83F0084F84000C6
:1017300084F8410084F8420084F8430084F84400AF
:1017400084F8450084F83D00002010BD70477047C4
:1017500010B50446022249B104290ED0082913D03D
:1017600094F84100012816D0012010BD94F83E00E5
:101770000128F9D184F83E200FE094F83F000128B9
:10178000F2D184F83F2008E094F840000128EBD122
:1017900084F8402001E084F841200122206801F013
:1017A00067F813492068134A884201D0904203D158
:1017B000436C43F400434364206888420DD0904258
:1017C0000BD0B0F1804F08D00B49884205D00B49AF
:1017D000884202D00A49884204D1816801F0070199
:1017E000062903D0016841F001010160002010BD0D
:1017F000002C01400034014000040040000800407B
:10180000000C0040F0B50068404987B0884259D1CB
:101810006A463F493F4800F07DFD3F49059801F089
:101820004FFC3E4EF16901F0F3FAF0610146306180
:101830003078302846D0B06801F030FA0746F068BA
:1018400001F026FC0546394601F0E2FA01F004FCFD
:1018500004462846394601F0FFFC01F0FDFB054631
:10186000307851284AD013DC41282DD0442838D074
:10187000452827D160B2054600F074FC604240B2B2
:10188000044600F03DFF284600F040FC204617E0EB
:10189000532807D0572815D160B2044600F062FCE7
:1018A00068B206E0604240B2044600F05BFC684269
:1018B00040B2054600F024FF204600F027FC2846F1
:1018C00000F0F2FE07B0F0BD604240B200F04AFC0A
:1018D00068B200F015FF60B200F018FC684240B238
:1018E000EEE760B200F03EFC684240B200F008FF54
:1018F000604240B200F00AFC68B2E1E7604240B2E8
:10190000054600F02FFC60B2BAE70000000400407A
:1019100030000020400000200AD7233C00000020B7
:101920007047704770470000F8B5016804460868C2
:10193000CA684B6910F00F0F4FF0000559D003F043
:10194000010602F49077374365D0C10705D0D10571
:1019500003D5616C41F001016164410705D5D907E8
:1019600003D0616C41F002016164810705D5D9079C
:1019700003D0616C41F004016164010707D502F0F6
:101980002001314303D0616C41F008016164616C56
:1019900000293AD0800604D5900602D5204601F0F1
:1019A0009BF820684069616CC0F38010090700D47F
:1019B00060B3204601F069F820684069400621D5EF
:1019C0002068143050E8001F21F0400140E8001268
:1019D000002AF5D1E06BA8B16D494163E06BFEF7D9
:1019E000AFFC002811D0E06B416B01B0BDE8F040C6
:1019F000084783060FD593060DD52046BDE8F8406D
:101A000001F06AB82046FFF78DFFF8BD2046FFF7CA
:101A100089FF6564F8BD266B2023012E7CD1C606A4
:101A20007AD5D60678D508684868009048694FF09E
:101A30000206400640D5E16B086840680004000CCF
:101A4000E8D0A28D8242E5D9E085886920282DD092
:101A500020680C3050E8001F21F4807140E800122B
:101A6000002AF5D12068143050E8001F21F0010150
:101A700040E80012002AF5D12068143050E8001F19
:101A800021F0400140E80012002AF5D184F84230EC
:101A9000256320680C3050E8001F21F0100140E859
:101AA0000012002AF5D1E06BFEF726FC6663A08DDC
:101AB000E18D401A81B22AE0A08DE18D401A81B2F9
:101AC000E08D0028A6D00029A4D022680C3252E86C
:101AD000000F20F4907042E80007002FF5D1206835
:101AE000143050E8002F22F0010240E80027002FB8
:101AF000F5D184F84230256320680C3050E8002F7F
:101B000022F0100240E80023002BF5D16663204646
:101B1000FFF707FFF8BDFFE705062BD5150629D50A
:101B200094F841002128F5D1A068B0F5805F01D17B
:101B30002069B0B1206A411C2162216800784860A8
:101B4000E08C401E0004000CE084E3D12068C168F2
:101B500021F08001C1602068C16841F04001C1608E
:101B6000D8E7206A0088C0F308004860206A801C1B
:101B70002062E5E74006CDD55006CBD5CA682046A1
:101B800022F04002CA6084F8413000F0ABF8C1E7AF
:101B90007B2A000870B5040004D094F841000025A9
:101BA00010B106E0012070BD84F84050204600F0DE
:101BB00023F8242084F841002068C16821F40051F2
:101BC000C160204600F0EAFF2068016921F49041DD
:101BD00001612068416921F02A0141612068C168E2
:101BE00041F40051C1606564202084F8410084F80C
:101BF00042006563002070BD30B585B000240094BC
:101C00000194029403940068184988422CD1184822
:101C1000816941F480418161816901F480410491CD
:101C2000816941F0040181618069124D00F0040076
:101C300004904FF400700090022001900320039064
:101C400069462846FEF726FC2815CDE900046946BA
:101C500028460294FEF71EFC002211462520FFF7BD
:101C600037F82520FFF726F805B030BD00380140D1
:101C7000001002400008014090F84230202B01D0B3
:101C80000220704721B11AB10023036300F0E2BFC4
:101C90000120704710B51148441E01782069512970
:101CA00016D006DC412913D0442911D0452904D18E
:101CB0000EE053290CD057290AD04F202070FEF790
:101CC00008FBBDE81040012204490548FFF7D4BFD6
:101CD0002170A060FEF7E0FC6060F2E701000020E8
:101CE000240100207047FEE701684A69D24352058B
:101CF0000FD46FF480624A61002140F8301F202227
:101D000042738173026942F004020261017301208F
:101D100070470020704700002DE9F84F0446C06A64
:101D20001E4693460D4621680A6842F480620A60A6
:101D3000082807D0012805D010F5803F02D0206B7D
:101D4000112804D12068016841F4807101604FF0CE
:101D500001195B46002249462046009600F0CCF867
:101D60004FF4007840B120680068C00501D5C4F880
:101D700040800320BDE8F88F2069DFF884A0B0F52B
:101D8000804F0FD00620216800EAD51747F0F000F9
:101D9000086133465A460AF10601204600F0F4F87D
:101DA00058BB03E0E8B240F001001CE02168E8B253
:101DB000086133465A465146204600F0E5F8E0B93E
:101DC0002068416981690091016841F48071016076
:101DD0005B46002249462046009600F08DF8002818
:101DE000C1D147F0F1002168086133465A46514697
:101DF000204600F0C9F80028BCD00120BAE7000056
:101E000002000100F8B50446C06A1E460D4617469A
:101E1000082807D0012805D010F5803F02D0206B9C
:101E2000122804D12068016841F4807101601346D2
:101E300000224FF001112046009600F05DF840B1FD
:101E400020680068C00502D54FF4007020640320AC
:101E5000F8BD2069B0F5804F0ED00620216800EA59
:101E6000D51040F0F000086133463A460B49204651
:101E700000F08AF878B902E005F0FE0000E0E8B270
:101E800021680861054933463A46891F204600F01B
:101E90007BF80028DCD00120F8BD0000080001001C
:101EA00070B516460D4604461EE02046FFF71CFF9F
:101EB00008B1012070BD681C16D0FEF7EDFB801B39
:101EC000A84200D885B920684069C04340070BD5B7
:101ED000002044F8300F20216173A073216941F084
:101EE000200121612073E4E720684069C043400776
:101EF000DBD4002070BD00002DE9F047984617465E
:101F00000D460446C1F30746DDF820902AE000BFE5
:101F1000B8F1FF3F26D0FEF7BFFBA0EB090141451A
:101F200002D8B8F1000F1DD12068012E16D08069AB
:101F300025EA00000004000C12D00020B84211D1A4
:101F4000002044F8300F20216173A073216941F013
:101F50002001216120730120BDE8F0874069E7E797
:101F60000120EBE72068012E0AD0806925EA0000F5
:101F70000004000C06D00020B842C9D00020EBE7D6
:101F80004069F3E70120F7E72DE9F0479846164648
:101F90000D4604464FF000094FF0200AC1F30747F1
:101FA00023E020684069C043400515D420680168DB
:101FB00041F40071016021686FF480604861C4F8E9
:101FC000309084F83DA084F83E90216C41F00401EB
:101FD000216484F83C9021E0701C06D0FEF75CFB85
:101FE000A0EB0800B04203D816B1012F1FD021E0AA
:101FF0002068012F15D0806925EA00000004000C3C
:1020000018D000BF44F8309F84F80DA084F80E90DB
:10201000216941F02001216184F80C900120BDE884
:10202000F087406925EA00000004000CEAD120682E
:10203000406901E02068806925EA00000004000C86
:10204000AFD1ECE72DE9F041002590460E4604465D
:10205000202728E04069C043C0060CD454F8301B48
:102060006FF01000486144F810596777A577206A2F
:102070002062257714E0FEF70FFBA0EB0800B042CA
:1020800000D886B920684069C04340060BD544F8A3
:10209000305F6773A573206940F0200020612573CD
:1020A0000120BDE8F08120684169C9434906D1D4C7
:1020B0000020F6E770B516460D4604461EE02046A1
:1020C000FFF712FE08B1012070BD681C16D0FEF7A4
:1020D000E3FA801BA84200D885B920684069C04354
:1020E00000060BD5002044F8300F20216173A07347
:1020F000216941F0200121612073E4E720684069F3
:10210000C0430006DBD4002070BD000070B5134D45
:10211000134E041E06DD012210212846FEF7B6FAF2
:10212000002206E00CD1012210212846FEF7AEFA6B
:10213000012220212846FEF7A9FA3068C46370BD49
:10214000002210212846FEF7A1FA0122202128466C
:10215000FEF79CFA31686042C86370BD0008014018
:102160009400002070B5134D134E041E06DD0122AD
:1021700011462846FEF78AFA002206E00CD1012219
:1021800011462846FEF782FA012202212846FEF770
:102190007DFA3068446370BD002201212846FEF7B5
:1021A00075FA012202212846FEF770FA3168604272
:1021B000486370BD00080140940000202DE9F34FF2
:1021C000002089B00C468346824681460646054675
:1021D0000690642705903B208DF81C00012307AA78
:1021E000D02100970998FEF749FC00284CD10E2316
:1021F00001AAD02100970998FEF718FB002843D1C7
:10220000BDF80400DDF8188040BA03B2BDF806003E
:10221000434440BA0FFA80FEBDF80800F34440BAC8
:1022200001B2BDF80C008A4440BA0FFA80FCBDF838
:102230000E00E14440BA02B2BDF81000164440BAA4
:1022400000B2054401200693FEF712F90598401CE0
:1022500080B20590B0F57A7FBDD306994FF47A70BD
:1022600091FBF0F121809BFBF0F161809AFBF0F192
:10227000A1F58041A18099FBF0F1E18096FBF0F19E
:1022800095FBF0F0218160810BB0BDE8F08FFEB5C9
:102290000C46054600226B2100F0DCF8B8BB0A2092
:1022A000FEF7E6F875208DF80800642601AF0123DB
:1022B00002AAD02128460096FEF7E0FB38BB012396
:1022C0003A46D02128460096FEF7B0FAF8B99DF8B4
:1022D000040068281BD100221921284600F0BAF812
:1022E000A8B900221A21284600F0B4F878B90026CF
:1022F000324626731B21284600F0ACF838B9324626
:1023000066731C21284600F0A5F8002800D00120A3
:10231000FEBD00002DE9F04F0C460746497B8DB00D
:1023200015464FF08D4071B1082904D0102905D011
:10233000182908D105E04FF08C4004E04FF08B40A5
:1023400001E04FF08A400290217B3E4859B10829B4
:1023500004D0102904D0182905D103E03A4802E03E
:102360003A4800E03A48642683463B208DF81C003A
:10237000012307AAD02138460096FEF77FFB38B923
:102380000E2303AAD02138460096FEF74FFA18B163
:1023900001200DB0BDE8F08FBDF80E10BDF80C00A7
:1023A00049BA0FFA81FABDF8101040BA49BA0FFACB
:1023B00081F9BDF8141000B249BA0FFA81F8BDF8DE
:1023C000161049BA0FB2BDF8181049BA0EB2B4F9D6
:1023D0000010401A00F05CFE029900F07BFD2860BE
:1023E000B4F90200AAEB000000F052FE029900F0DE
:1023F00071FD6860B4F90400A9EB000000F048FE2C
:10240000029900F067FDA860B4F90600A8EB00008F
:1024100000F03EFE594600F05DFDE860B4F90800AA
:10242000381A00F035FE594600F054FD2861B4F921
:102430000A00301A00F02CFE594600F04BFD68618E
:102440000020A6E700000343000083423333034229
:10245000333383411CB502238DF8041064218DF8B9
:102460000520009101AAD021FEF708FB1CBD000049
:102470002DE9F04385B000241D4800940194029496
:102480000394816941F004018161816901F00401D3
:102490000491816941F0080181618069DFF854800D
:1024A00000F0080004900022F0214046FEF7EEF80C
:1024B000DFF844904FF47057002239464846FEF743
:1024C000E5F8F02001250226CDE90005CDE9024618
:1024D00069464046FDF7DEFF00970396CDE90154BB
:1024E00069464846FDF7D6FF05B0BDE8F083000019
:1024F0000010024000080140000C01400D4810B5DA
:102500000B4901600C49416000214FF48042816019
:10251000C0E9031241618161C1610162FEF7C2F845
:10252000002803D0BDE81040FDF7E4BE10BD000058
:102530000054004040000020A086010010B58EB07D
:1025400000240794089409940A940B941C2168466B
:102550000C94FDF75BFE2A484FF08041016040F289
:10256000CF21C0E901144FF6FF71C0E90314846163
:10257000FEF7A0FE08B1FDF7BDFE4FF480500790B6
:1025800007A91F48FEF722FF08B1FDF7B3FE1C485C
:10259000FFF7AFF808B1FDF7ADFE0B940BA9184893
:1025A0000C94FEF749FE08B1FDF7A4FE6020CDE9CA
:1025B000000402940022694611480494FFF733F89E
:1025C00008B1FDF797FE042269460D48FFF72BF886
:1025D00008B1FDF78FFE082269460948FFF723F886
:1025E00008B1FDF787FE0C2269460548FFF71BF886
:1025F00008B1FDF77FFE0248FEF7F0FF0EB010BDF8
:102600009400002010B586B0002416480094019470
:1026100002940394049412490594C0E900144FF6FF
:10262000FF71C0E9024104618461FEF743FE08B115
:10263000FDF760FE4FF48050009069460948FEF7B0
:10264000C5FE08B1FDF756FE049404A9054805949B
:10265000FEF7F2FD002801D0FDF74CFE06B010BDDC
:1026600000040040DC0000200C4810B50A4901605D
:102670004FF4E1314160002181600C22C160C0E96A
:1026800004128161C161FFF785FA002803D0BDE81B
:102690001040FDF72FBE10BD00380140240100207E
:1026A000FEE7FEE77047000070B5134D134E041EA1
:1026B00006DD012240212846FDF7E8FF002206E062
:1026C0000CD1012240212846FDF7E0FF01228021A4
:1026D0002846FDF7DBFF3068046470BD002240210E
:1026E0002846FDF7D3FF012280212846FDF7CEFFC3
:1026F00031686042086470BD000801409400002009
:102700002DE9F041144D154E041E4FF480514FF445
:10271000005705DD01222846FDF7B8FF002205E03D
:102720000CD101222846FDF7B1FF01223946284687
:10273000FDF7ACFF30688463BDE8F08100222846D5
:10274000FDF7A4FF012239462846FDF79FFF3168B7
:1027500060428863F0E70000000C01409400002014
:102760007047FEF74FBA30B58FB028216846FDF7A5
:102770004DFD14210AA8FDF749FD01210804CDE90A
:1027800000100024029402250491CDE907504FF473
:10279000E01009906846FEF7A9FB08B172B6FEE7A3
:1027A0000F20CDE90A054FF48060CDE90C400221ED
:1027B0000AA80E94FEF7BEFA002801D072B6FEE712
:1027C0000FB030BD704700000148FEF76EBE00003C
:1027D000DC000020F0B50268204C214D214E224F34
:1027E000224B4FF0804CA04209D0984207D0604560
:1027F00005D0A84203D0B04201D0B84204D122F0A3
:10280000700E4A6842EA0E02A04209D0984207D0F0
:10281000604505D0A84203D0B04201D0B84203D1F0
:1028200022F44075CA682A434D6922F080022A4387
:1028300002608A68C2620A688262A04201D098423D
:1028400001D109690163012141610169C90703D00F
:10285000016921F001010161F0BD0000002C01407F
:102860000004004000080040000C0040003401401B
:1028700010B501F01F030121046A99408C430462E2
:10288000016A9A401143016210BD10B5846842EAA2
:10289000032224F47F440A432243826010BD8268ED
:1028A00022F070020A4342F0070181607047000085
:1028B000F0B5036A026A22F001020262426884698A
:1028C000124E24F073050C682C4323F002058B682C
:1028D0002B430D4DA84201D0B04205D123F008078B
:1028E000CB683B4323F00403A84201D0B04205D19A
:1028F0004D6922F4407215438A692A43426084611B
:10290000496841630362F0BD002C0140003401407E
:10291000F0B5026A036A23F0100303624368846916
:102920000D6824F4E64444EA05248D6822F0200270
:1029300042EA05120F4D104EA84201D0B04206D116
:10294000CF6822F0800242EA071222F04002A84239
:1029500001D0B04207D14D6923F4406343EA8503B7
:102960008D6943EA8503436084614968816302623B
:10297000F0BD0000002C014000340140F0B5026AB7
:10298000036A23F4807303624368C46922F400720B
:1029900024F073050C68124E2C438D6842EA052220
:1029A0000E4DA84201D0B04206D1CF6822F4006299
:1029B00042EA072222F48062A84201D0B04207D145
:1029C0004D6923F4405343EA05138D6943EA051327
:1029D0004360C4614968C1630262F0BD002C0140DC
:1029E0000034014030B5046A026A22F48052026267
:1029F0004268C3690D6823F4E64343EA05238D6802
:102A000024F4005444EA0534084DA84202D0084D8D
:102A1000A84204D14D6922F4804242EA8512426004
:102A2000C36149680164046230BD0000002C0140AC
:102A30000034014010B5036A046A24F00104046202
:102A4000846924F0F00444EA021423F00A020A43E1
:102A50008461026210BD10B5036A046A24F0100498
:102A60000462846923F0A00324F4704444EA02322F
:102A700043EA01118261016210BD10B5406A002174
:102A8000C185C184FEF74EFF10BD01680C3151E8CD
:102A9000002F22F4907241E80023002BF5D1016849
:102AA000143151E8002F22F0010241E80023002BED
:102AB000F5D1016B012909D101680C3151E8002FD2
:102AC00022F0100241E80023002BF5D1202180F8EC
:102AD000421000210163704708B590F84210222986
:102AE00001D0022008BD82684FF480539A4201D180
:102AF000016921B1816A9A421BD04AB10AE0026899
:102B0000816A5268C2F308020A80816A891C08E05F
:102B1000026972B10268526802F07F020A70816A2B
:102B2000491C8162C18D491E0904090CC18503D06D
:102B30001BE002685268F1E70168CA6822F02002CF
:102B4000CA600168CA6822F48072CA6001684A6972
:102B500022F001024A61202180F8421000214163E5
:102B6000026B012A03D0FFF795F8002008BD01632E
:102B700001680C3151E8002F22F0100241E80023D7
:102B8000002BF5D101680A68D20602D50A684968A7
:102B90000091818DFEF7C5FEE7E7000070B50446A1
:102BA00000680169E26821F4405111430161216923
:102BB000A0680843616908432168CA6841F20C6350
:102BC0009A430243CA6020684169A26921F44071B6
:102BD000114341611E492068884202D1FEF750F935
:102BE00001E0FEF73DF900EBC00101EB0012606867
:102BF00064218000B2FBF0F3B3FBF1F36FF0180631
:102C00007343B2FBF0F5B2FBF0F605EB830532231C
:102C100003EB0515B5FBF1F5B6FBF1F605F0F00594
:102C200005EB0615B2FBF0F6B2FBF0F0B0FBF1F0ED
:102C30006FF01802504306EB800003EB0010B0FB6E
:102C4000F1F0216800F00F002844886070BD00009A
:102C50000038014081628285C285002141642221C1
:102C600080F84210016921B10168CA6842F480729B
:102C7000CA6001684A6942F001024A610068C1689D
:102C800041F02001C1600020704700000148FEF7BC
:102C90004BBE000024010020FEE700002DE9F041BA
:102CA00000F0DAFA2149224C0546884203DD21462C
:102CB00000F0D2FA05461F48854204D9214628462D
:102CC00000F0A6F805461C49284600F0F9F91B4E0D
:102CD00080463146284600F0F3F9194CA16900F00E
:102CE00097F81849A061884200DD08461649A0619E
:102CF000884200D908461549A06100F0E1F907466D
:102D00002846616900F0A8FA114900F0D9F9314666
:102D100000F0E0F8064639464046656100F078F874
:102D20003146BDE8F04100F073B8000000003443C4
:102D30000000B443000034C3000020400AD7233C05
:102D40000000002000004842000048C2CDCC4C3DAD
:102D50009A99193F0907090E002804DB00F1E020C9
:102D600080F80014704700F00F0000F1E02080F8B8
:102D7000141D70471FB5FDF74DFFFFF7F4FCFFF77B
:102D800077FBFFF7BBFBFFF7D9FBFFF73BFCFFF738
:102D90006BFC69461A48FFF77AFA00B1FEE74FF478
:102DA0007A70FDF765FB69461548FFF707FA154885
:102DB000FEF7D6FA00211348FEF7CAFC0421114899
:102DC000FEF7C6FC08210F48FEF7C2FC0C210D4897
:102DD000FEF7BEFCFDF77DFA01220B490B48FEF71A
:102DE0004BFFFDF759FC084C641E6060FDF754FC76
:102DF0006168401A6428F9D9FDF76BFAF6E700001C
:102E00004000002094000020010000202401002048
:102E100090EA010F48BF81F0004100F12482421A7C
:102E20003CBF801A89184FEAD0524FF07F4C1CEA01
:102E3000410FA2EBD15318BF9CEA026F00F03B8018
:102E40004FF0004C4CEA00204CEA012121FA03FC2F
:102E500010EB0C0C1ED202F1FF325FEA1C2040EB9B
:102E6000C25038BF70471CF07F0F4FEA400C18BFAC
:102E7000BCF17F4F38BF7047C3F12003994008BFB2
:102E800020F00100BCF17F4F38BF7047A0F1C04077
:102E900000F0DDB94FEA3C00000A40EBC25028BF09
:102EA0001CF0FF0F4FEA400CE6D018BFBCF17F4F7B
:102EB00038BF7047EAE79CEA026F05D010EA5C0F62
:102EC00008BF00F00040704710B500F07AF900BF6D
:102ED00064FBBE3E4FF47F0C1CEAD0121EBF1CEAFE
:102EE000D11392EA0C0F93EA0C0F00F0858090EA60
:102EF000010F48BF42F4807240F4000C41F400001E
:102F00002CF07F4120F07F4000B58142A2EB03020C
:102F10000FF2081CACEB504EC0F100009EF800E030
:102F20004FEA4E0E00FB0EFC38BF49004FEA2C1C46
:102F300002F5FA020CFB0EF34FEACE1E4FEA112CFB
:102F40004FEAC1210EEB635E42EB22420EFB0CFC0A
:102F50004FEA1C5300FB03114FEA112C4FEA0131D9
:102F60000EFB0CFC4FEADC4C00FB0C11C14228BFED
:102F700009184CEB03335DF804EB10EB410143EB14
:102F8000C250B2F57C0F38BF704729D512F0F00F50
:102F90001CBF00F1C04000F00040704700818283F8
:102FA0008485868788898B8C8D8E8F919293959658
:102FB00097999A9C9D9FA0A2A3A5A7A8AAACAEB0E2
:102FC000B2B3B5B7B9BCBEC0C2C5C7C9CCCED1D4E7
:102FD000D7D9DCDFE2E6E9ECF0F3F7FAFE00000017
:102FE0004FEA400C0CF1807CBCF17E4F28BF70474B
:102FF000B0F1C04000F02BB990EA010F0CEAD113F8
:1030000048BF42F48072624538BF634507D213F46B
:103010007F0F16D080EA010000F00040704710B525
:1030200000F0CFF8097EFC3E00F005B880EA010010
:1030300000F00040704780EA010000F0004000F01E
:1030400006B912F47F0F04BF0248704780EA0100FE
:1030500000F0FDB80000C07F41000B0ED3F19E02CE
:1030600008D950F400034FEA032323FA02F048BFC3
:103070004042704710B500F0A4F800BF4992248088
:10308000002070476FF0004282EA20007047000085
:1030900010F0004148BF4042B0FA80F310FA03F24A
:1030A000C3F19D030BD051EAC35101EB122053062B
:1030B00038BF704700F1010008BF20F001007047E1
:1030C0004FF47F0C1CEAD0121EBF1CEAD11392EA07
:1030D0000C0F93EA0C0F00F0478090EA010F48BFF5
:1030E00042F480724FF0004C4CEA00204CEA01217F
:1030F00002EB0302A0FB0113A2F50002002918BF96
:1031000043F001035B0028BF4FEA330342EB224246
:103110005FEA132C4CEBC2502EBFBCEB436FB2F5F1
:103120007C0F70474FEA036CBCF1004F08BF20F0E2
:103130000100B2F57C0F38BF70470BD582F0FF025B
:1031400012F5803FC8BF704700F1C040D8BF00F003
:103150000040704700F5000C5FEA4C0C48BF704718
:10316000B0F1C04000F073B890EA010F0CEAD1133F
:1031700048BF42F48072624538BF634504D280EA9A
:10318000010000F00040704710B500F01AF800BFD1
:103190008900013E00F007B800F009B85FEA410C71
:1031A0005FEA1C6C08D080EA010000F050B85FEACA
:1031B000400C5FEA1C6CF6D14FF00040A0F5800097
:1031C00070470EF1020E2EF0030E5EF8044B2442FF
:1031D00004D44FEA4102B2F17F4F11D84FEA4003C5
:1031E000B3F17F4F0CD80ED14FEAD07CB2F17F4FB4
:1031F0000CEB4C0C0CF1020C08BF4CEBD17C04E046
:103200004FF0080C01E04FEAD17C0CEB4C0324FAA0
:1032100003F404F00704B4F1040C06D20EEB840CA2
:10322000BDE810404CF0010C6047DFE80CF00708E7
:1032300002024FF00040A0F5800010BD0846420099
:1032400018BFD2F1807288BF00F0004010BDFF218E
:1032500041EAD050C005704790EA010F48BF81F0A5
:1032600000413FF5DCAD421A04D882F00042A0EBE9
:10327000020011444FEAD0524FF07F4C1CEA410F3C
:10328000A2EBD15318BF9CEA026F4AD04FF0004C1A
:103290004CEA00204CEA012121FA03FCB0EB0C0CB3
:1032A0000FD412F0FE0F36D05FEA4C001DD500128D
:1032B00040EBC25038BF70471CF03F0F18BF70473B
:1032C0000BE0A2F101025FEA1C2040EBC25038BFC4
:1032D00070471CF07F0F18BF7047C3F1200399405F
:1032E00014BF401E20F00100704780084FEA1223EF
:1032F00008BF7047B0FA80FCA2EB0C02CCF1280C9E
:1033000060FA0CF093EA122F04BF00EBC250704732
:103310004FEAC3707047130A5FEADC1008BF7047BA
:10332000F6E79CEA026F04D010EA5C0F08BF0020A9
:10333000704710B5FFF745FF40DFF63E81F00040D3
:103340007047010202030405060708090A0B0C0D69
:103350000E0F101000000000000000000102030426
:103360000607080900000000010203048C3300086E
:1033700000000020300000006C010008BC33000891
:1033800030000020A0070000880100084F00000066
:1033900000000000000000003200000000000000FB
:1033A000000000000000000000000000010000001C
:0C33B000100000000000000000127A0075
:0400000508000131BD
:00000001FF
