:020000040800F2
:10000000C007002045010008C7250008751E00082C
:10001000112400086F040008A52C0008000000004F
:10002000000000000000000000000000552700084C
:1000300071040008000000009926000857270008F6
:100040005F0100085F0100085F0100085F01000810
:100050005F0100085F0100085F0100085F01000800
:100060005F0100085F0100085F0100085F010008F0
:100070005F0100085F0100085F0100085F010008E0
:100080005F0100085F0100085F0100085F010008D0
:100090005F0100085F0100085F0100085F010008C0
:1000A0005F0100085F0100085F0100085F010008B0
:1000B0005F0100085F0100085F0100085F010008A0
:1000C0005F0100085F0100085F0100085F01000890
:1000D0005F0100088D2C0008992C00085F010008C2
:1000E0005F0100085F0100085F0100085F01000870
:1000F0005F0100085F010008C92700085F010008D0
:100100005F0100085F0100085F0100085F0100084F
:100110005F0100085F010008BD2700085F010008BB
:100120005F0100085F0100085F0100085F0100082F
:10013000DFF80CD000F07AF900480047E52C000801
:10014000C00700200648804706480047FEE7FEE754
:10015000FEE7FEE7FEE7FEE7FEE7FEE7FEE7FEE777
:10016000B927000831010008D2B201E000F8012BE4
:10017000491EFBD270470022F6E710B513460A4627
:1001800004461946FFF7F0FF204610BDF0B480EAA0
:100190000102D40F4200B2EB410F02D202460846E0
:1001A00011464A0042D0C30DDDB2C1F3C752AD1AA9
:1001B000202D35DAC1F3160141F4000204B1524298
:1001C000C5F1200602FA06F12A411044B3EBD05FD4
:1001D00023D0C4B1012DA0EBC35009DCF0BC4FF01B
:1001E000004202EAC352DBB200F5000000F0EFB8B3
:1001F000400000F1807000EBC350A0F1807040EA35
:10020000D170490009E0490841EAC071A0EBC35030
:1002100000F50000400800EBC350F0BC00F0CEB881
:100220006142012202EB4101001BF6E7F0BC70477E
:1002300081F00041AAE780F00040A7E780EA0102D0
:1002400010B502F00043400022D04A001FD0010E3A
:1002500001EB1261C0F35600C2F3560240F40000F5
:1002600042F40002A0FB022000047F39140400D0F5
:10027000401C50EA124001D44000491EC2B20C0694
:1002800004EBD010401C4008802A02D003E000207C
:1002900010BD20F00100002900DA0020184310BD35
:1002A00030B480EA010202F0004530F0004221F053
:1002B000004013D090B1C30DD40DC2F31601C0F3AA
:1002C0001600E41A41F4000140F400027D3491422A
:1002D00001D3641C00E04900002C02DA30BC00208D
:1002E00070474FF400000023914201D3891A034361
:1002F00040084FEA4101F7D151B1914202D14FF08C
:10030000004105E002D24FF0010101E06FF0010170
:1003100003EBC450284430BC00F050B8C10F80EA51
:10032000E0700844CA079623002100F050B89623D5
:100330000022114600F04BB800F0004220F00040CF
:10034000C10DC0F3160040F400007F2901DA00203F
:100350007047962903DCC1F19601C84001E0963947
:100360008840002AF4D04042704720F00040C10D80
:10037000C0F3160040F400007F2901DA0020704726
:10038000962903DCC1F19601C84070479639884030
:1003900070470000002801DBC0F10040002901DBAC
:1003A000C1F1004181427047002801DBC0F10040EB
:1003B000002901DBC1F10041884270470029A8BF34
:1003C0007047401C490008BF20F00100704710B47E
:1003D000B0FA80FC00FA0CF050EA010404BF10BC33
:1003E000704749B1CCF1200421FA04F411FA0CF160
:1003F00018BF012121430843A3EB0C01CB1D4FEA99
:1004000000614FEA102042BF002010BC704700EB93
:10041000C35010440029A4BF10BC7047401C4900C1
:1004200008BF20F0010010BC70470000064C074DCB
:1004300006E0E06840F0010394E8070098471034B4
:10044000AC42F6D3FFF778FED42D0008F42D000857
:1004500010B5002001F03CFD002002F04BF9002017
:1004600001F00AFDBDE81040002002F017B9FEE7D8
:10047000704700002DE9F0411B4A904203D11068FB
:10048000446A1A4D06E01A4A904213D11068446A31
:10049000164D0C356868261A0846FFF748FF0746D0
:1004A0003046FFF73BFF3946FFF7FAFEC5E901404A
:1004B000BDE8F0810F4A904204D11068446A0B4DA8
:1004C000183506E00C4A9042F2D11068446A074D94
:1004D00024356868271A0846FFF729FF064638467C
:1004E000FFF71CFF3146DFE7340100200401002044
:1004F000C40100200C020020540200200C49884254
:1005000001D10C4810E00C49884202D109480C3056
:100510000AE00A49884202D10648183004E0084936
:10052000884203D103482430806870470020704718
:100530003401002004010020C40100200C0200202E
:100540005402002072B6FEE710B590F82110002288
:10055000022905D00421816380F82020012010BDEC
:1005600001680B6823F00E030B6001680B6823F031
:1005700001030B6090F84030C46B012101FA03F3D2
:10058000636080F8211080F82020104610BD000024
:100590002DE9F05F90F821100024022903D00421F6
:1005A0008163012485E001680A6822F00E020A6076
:1005B00001680A6822F001020A603F4E3E4FB21500
:1005C000DFF8F4C0DFF8F090DFF8ECA0DFF8E8B077
:1005D000DFF8E4E00168783F13011502ACF1640C28
:1005E000A9F15009AAF13C0AABF1280BAEF1140EA7
:1005F0004FF48018B14227D9B9420ED0614512D0CC
:1006000049451DD0514518D0594518D0714501D1E3
:10061000424615E0294EB14201D1012210E0274E99
:100620001436B14201D110220AE0244E2836B142DC
:1006300006D0224A3C32914201D11A4600E02A46B5
:100640001E49091F0A602BE0B94213D0614517D03B
:10065000494522D051451DD059451DD0714501D184
:1006600042461AE0B14202D14FF0807215E0134EBB
:10067000B14201D1012210E0104E1436B14201D135
:1006800010220AE00D4E2836B14206D00B4A3C3209
:10069000914201D11A4600E02A46074980394A6052
:1006A000012180F82110002180F82010416B01B158
:1006B00088472046BDE8F09F8000024008040240C1
:1006C0002DE9F84FDFF8C8910024A9F1040B234667
:1006D0000F2709F1040AABF1040ED1E00125A54072
:1006E00006EA0502AA4276D1DFF8A8C14E68A6EB59
:1006F0000C0866452BD00DDC032E34D005DC36B358
:10070000012E19D0022E2FD11BE0112E16D0122E41
:100710002AD119E0B8F5881F19D006DCB8F5803F5A
:1007200015D0B8F5801F1FD111E0B8F5001F0ED00D
:10073000B8F5041F18D10AE0CB6815E0CB681B1D83
:1007400012E0CB6808330FE0CB680C330CE08B6809
:100750002BB1012B4FF0080303D0456104E00423C3
:1007600002E0056100E00023FF2A01D8064601E00F
:1007700000F104064FEA840501D9A5F12005D6F859
:10078000008007FA05FC28EA0C0803FA05F548EA98
:100790000508C6F800804D68ED0070D53E4DAE6985
:1007A00046F00106AE61AD6924F0030605F00105CF
:1007B00000953A4D06EB050CDCF80850A607360FFD
:1007C00007FA06F825EA0805DFF8D480404503D18A
:1007D0004FF0000825E052E0DFF8C880404502D124
:1007E0004FF001081DE0DFF8C080404502D14FF016
:1007F000020816E0DFF8B480404502D14FF003084C
:100800000FE0DFF8AC80404502D14FF0040808E06B
:10081000DFF8A080404502D14FF0050801E04FF01D
:10082000060808FA06F848EA0508CCF808804D687A
:10083000D9F80060ED024D4601D5164300E096431D
:100840002E604D68DAF80060AD02554601D51643BA
:1008500000E096432E604D68DBF80060AD035D4616
:1008600001D5164300E096432E604D68DEF8006027
:10087000ED03754601D5164300E096432E60641CD7
:100880000A681646E2407FF429AFBDE8F88F000001
:100890000804014000001110001002400000014057
:1008A00000080140000C014000100140001401400C
:1008B00000180140001C01400AB1016170470904A1
:1008C000FBE700000148806870470000F40000204A
:1008D000024881680278114481607047F40000206A
:1008E000074810B5016841F010010160032000F0D5
:1008F00075F80F2000F006F800F024F8002010BD75
:100900000020024070B50D4D04464FF47A712878EE
:10091000B1FBF0F00A490968B1FBF0F000F0DCFA35
:1009200048B9102C07D200222146501E00F036F89C
:1009300000206C6070BD012070BD0000F40000203C
:10094000000100200C4808B5816941F00101816176
:10095000816901F001010091C16941F08051C161DB
:10096000C06900F0805000900448416821F0E061C7
:1009700041F00071416008BD0010024000000140DC
:10098000002809DB00F01F0201219140400980008E
:1009900000F1E020C0F8001170470000F0B40E4BE9
:1009A0001B680C46C3F30223C3F10705042D00D9CD
:1009B0000425191D072901D2002300E0DB1E0126B2
:1009C00006FA05F1491E214099409E40761E1640C8
:1009D0003143F0BC02F067B90CED00E0064900F0CD
:1009E000070208684FF6FF03184040EA0220034A56
:1009F00010430860704700000CED00E00000FA05AD
:100A00002DE9F0470F46050061D0434E306800F0F5
:100A10000700B84209D2306820F007003843306040
:100A2000306800F00700B84251D128683B4C81077C
:100A300012D5400703D5606840F4E0606060287814
:100A4000000703D5606840F4605060606068A96882
:100A500020F0F000084360602878C00728D068685C
:100A6000012810D02168022810D0890700292EDA29
:100A7000616821F0030101436160FFF723FF8046B5
:100A800041F288390DE021688903EFE78901EDE73C
:100A9000FFF718FFA0EB0801494502D90320BDE884
:100AA000F0876068696800F00C00B0EB810FEFD14F
:100AB000306800F00700B8420BD9306820F007001A
:100AC00038433060306800F00700B84201D00120A0
:100AD000E5E72878400705D56068E96820F4E0601C
:100AE000084360602878000706D56068296920F40B
:100AF000605040EAC100606000F038F86168084A60
:100B0000C1F30311515CC8400649086006480068FB
:100B1000FFF7F8FE0020C2E700200240001002406C
:100B2000BA2D000800010020F80000200448054903
:100B300000684968044AC1F30221515CC84070470B
:100B40000001002000100240CA2D00080448054999
:100B500000684968044AC1F3C221515CC84070472B
:100B60000001002000100240CA2D00080E4A516802
:100B70000E4801F00C03042B11D0082B0FD10C48A8
:100B8000C1F38343C903C05C0AD55168084AC1F365
:100B90004041921E515C054A5043B0FBF1F0704752
:100BA00004494843704700000010024000127A00D8
:100BB000AA2D000800093D002DE9F84F040070D06F
:100BC0002078C04DC00749D06868C0F38100012873
:100BD00007D06868C0F38100022809D16868C003A3
:100BE00006D52868800339D560680028E7D035E04D
:100BF0006068B0F5803F0BD010B1B0F5A02F11D0D8
:100C0000286820F480302860286820F4802002E0E2
:100C1000286840F480302860606890B1FFF752FE89
:100C200006460AE0286840F480202860F0E700BF0C
:100C3000FFF748FE801B642873D828688003F7D527
:100C40000CE0FFF73FFE064605E000BFFFF73AFE67
:100C5000801B6428F0D828688003F7D420789A4E47
:100C600080074FF001094FF0000839D5686810F08F
:100C70000C0F07D06868C0F38100022809D16868AA
:100C8000C00306D42868800714D52069012808D13C
:100C900010E02069B0B1C6F80090FFF713FE0746D8
:100CA00005E00AE1FFF70EFEC01B0228C4D8286841
:100CB0008007F7D52868616920F0F80040EAC10094
:100CC00028600DE0C6F80080FFF7FCFD074604E051
:100CD000FFF7F8FDC01B022823D828688007F7D447
:100CE000207800072CD57948A169D9B1C0F80090C7
:100CF000FFF7E8FD074604E0FFF7E4FDC01B02280C
:100D00000FD8686A8007F7D571484FF4FA51006828
:100D1000B0FBF1F0009000BF0098411E0091FAD2A4
:100D20000EE080E0C0F80080FFF7CCFD074604E04D
:100D3000FFF7C8FDC01B022875D8686A8007F7D482
:100D40002078400760D5E8690027C00008D4E8692A
:100D500040F08050E861E869012700F08050009081
:100D60005C480168C90513D40168834641F4807169
:100D70000160FFF7A7FD824606E000BFFFF7A2FD76
:100D8000A0EB0A0064284ED8DBF80000C005F5D5BA
:100D9000E06801280AD008B1052813D0286A20F09D
:100DA00001002862286A20F0040002E0286A40F06E
:100DB00001002862E06841F2883B98B1FFF782FDAC
:100DC00082460BE0286A40F004002862EEE700BF8C
:100DD000FFF778FDA0EB0A0159455AD8286A800729
:100DE000F6D50CE0FFF76EFD824605E0FFF76AFDE1
:100DF000A0EB0A0159454CD8286A8007F6D41FB1E8
:100E0000E86920F08050E861E06988B36968C1F35F
:100E10008101022944D00228C6F8608004D0FFF77F
:100E200051FD044638E034E0FFF74CFD074604E08E
:100E3000FFF748FDC01B02282BD828688001F7D493
:100E4000206AB0F5803F05D16868A16820F40030C1
:100E500008436860D4E908010843696821F4741103
:100E600008436860C6F86090FFF72CFD044606E072
:100E700025E000BFFFF726FD001B022809D82868DF
:100E80008001F7D51BE000BFFFF71CFD001B022807
:100E900002D90320BDE8F88F28688001F4D40EE061
:100EA0000128F7D06868226A00F48031914204D1A9
:100EB000616A00F47010884201D00120EAE7002046
:100EC000E8E7000000100240000042428004424275
:100ED000000100200070004010B5401EB0F1807F7E
:100EE00001D3012010BD4FF0E02460610F21601795
:100EF00001F0D9FE0020A06107202061002010BD74
:100F00007047704710B590F83C20012A22D001228A
:100F100080F83C20CA688C6822F4407222434C68F6
:100F200022F4806222430C6822F4006222430C699E
:100F300022F4805222434C6922F400522243C969B0
:100F4000002322F480420A4301684A6480F83C305E
:100F5000002010BD022010BD70B590F83C20012A81
:100F60002CD0012480F83C40022280F83D20036808
:100F70005A689D6822F070060A6832435A60104B26
:100F800002689A420ED00F4B9A420BD0B2F1804FBA
:100F900008D00D4B9A4205D00C4B9A4202D00C4B14
:100FA0009A4204D1496825F080031943916080F882
:100FB0003D40002180F83C10084670BD022070BD05
:100FC000002C0140003401400004004000080040B3
:100FD000000C004010B5040003D094F83D0010B19F
:100FE00007E0012010BD002084F83C00204600F0FE
:100FF0001FF8022084F83D00211D206801F0EAFB63
:10100000012084F8460084F83E0084F83F0084F80C
:10101000400084F8410084F8420084F8430084F8DA
:10102000440084F8450084F83D00002010BD000015
:1010300008B501681948B1F1804F11D0184A9142A2
:1010400017D1C16941F01001C161C069002200F0EF
:101050001000009011463620FFF7A0FC362019E062
:10106000C16941F00101C161C06900F00100009057
:1010700008BD0C4A9142FBD1816941F40051816164
:101080008069002200F40050009011462E20FFF7E6
:1010900085FC2E20BDE80840FFF772BC001002401E
:1010A000001000400034014090F83D10012901D0AB
:1010B00001207047022180F83D100168CA6842F0A3
:1010C0000102CA6000680E4988420ED00D4988426C
:1010D0000BD0B0F1804F08D00B49884205D00B49A6
:1010E000884202D00A49884204D1816801F0070190
:1010F000062903D0016841F001010160002070471A
:10110000002C014000340140000400400008004071
:10111000000C004070B5044690F83C000025012802
:1011200017D0012684F83C60022084F83D00206836
:10113000826822F0770222F47F4282600868502899
:1011400038D00DDC20284FD005DC90B3102811D109
:101150004AE0022070BD302846D040280AD13BE04A
:1011600060282FD070280DD0B0F5805F03D0B0F587
:10117000005F12D0012584F83D60002084F83C0017
:10118000284670BDCB68D1E90121206801F07DFBC4
:101190002068816841F0770109E0CB68D1E901213D
:1011A000206801F072FB2068816841F48041816011
:1011B000E1E719E0CA684968206801F03BFC50216A
:1011C000206806E0CA684968206801F044FC602194
:1011D000206801F064FBCEE7CA684968206801F026
:1011E00029FC40212068F4E7226801461046F0E718
:1011F0002DE9F0410D46040003D094F83D0018B1EC
:1012000008E00120BDE8F081002084F83C00204681
:1012100000F040F8022084F83D002068816844F224
:10122000070291438160211D206801F0D3FA2268F2
:1012300090689169166A2B68AF69034340F20330E6
:10124000814341EA0721A868EF6908434FF6FC4152
:101250008843E96840EA0720014328692F6A0001B2
:1012600040EA0730084369686D6926F0220646EABD
:101270000515294393602268906154F8460B01627A
:10128000012004F81F09E0752076E0762077A0752C
:101290000020B7E710B586B00021009101910291BE
:1012A0000391414A01684148414C91421ED18169F4
:1012B00041F400618161816901F4006104918169F7
:1012C00041F0400181618069694600F0400004906E
:1012D0004FF4206000903748FFF7F2F9606820F083
:1012E000C00040F0E06040F0C0001FE0324A914290
:1012F0001FD1C16941F00201C161C16901F0020160
:101300000491816941F0080181618069694600F0BA
:1013100008000490302000902848FFF7D1F9606859
:1013200020F4406040F0E06040F40060606006B08F
:1013300010BD234A91421CD1C16941F00401C16131
:10134000C16901F004010491816941F020018161CA
:101350008069694600F0200004904FF440500090EE
:101360001848FFF7ADF9606840F0E06040F4805045
:10137000DCE7154A9142DAD1C16941F00801C16147
:10138000C16901F008010491816941F004018161A2
:101390008069694600F004000490032000900B4827
:1013A000FFF78EF9C3E70000002C01400010024057
:1013B000000001400018014000040040000C014002
:1013C0000008004000140140000C004000080140EB
:1013D00070472DE9F04104460068C66805694FF082
:1013E0000007A90713D5B10711D5F91E0161012026
:1013F0002077206880698007204602D0FFF7E8FF49
:1014000004E000F0DBF8204600F06DF9277768076C
:1014100016D5700714D521686FF00400086102200A
:1014200020772068806910F4407F204602D0FFF7C3
:10143000CFFF04E000F0C2F8204600F054F927770F
:10144000280715D5300713D521686FF0080008610B
:10145000042020772068C0698007204602D0FFF76B
:10146000B7FF04E000F0AAF8204600F03CF9277727
:10147000E80616D5F00614D521686FF01000086153
:10148000082020772068C06910F4407F204602D0F1
:10149000FFF79EFF04E000F091F8204600F023F9EA
:1014A0002777E80708D0F00706D021686FF0010021
:1014B0000861204600F0B0F9280608D5300606D5A8
:1014C00021686FF0800008612046FFF719FD68066B
:1014D00008D5700606D521686FF0400008612046E7
:1014E00000F03EFAA8060AD5B00608D521686FF0CC
:1014F000200008612046BDE8F041FFF702BDBDE8CD
:10150000F081000010B586B0002100910191029198
:101510000391016823480224B1F1804F15D0224A7B
:10152000914210D1816941F0100181618069694661
:1015300000F0100004904FF47070CDE900041B48D7
:101540000394FFF7BDF806B010BD816941F00801B2
:101550008161816901F008010491816941F0040110
:1015600081618069694600F00400049040F60840FB
:10157000CDE900040E480394FFF7A2F84FF40040B1
:10158000CDE9000469460B480394FFF799F80A482F
:10159000416821F4407141F0E06141F440714160E3
:1015A000D1E700000010024000340140001001406B
:1015B000000C01400008014000000140704770B578
:1015C000044690F83C0000260D4601280FD001206B
:1015D00084F83C006AB1042A1DD0082A2FD00C2AB6
:1015E0003FD00126002084F83C00304670BD022028
:1015F00070BD206801F05CF92068816941F0080144
:1016000081612068816921F004018161206881691C
:101610002A69114311E0206801F07AF92068816994
:1016200041F4006181612068816921F480618161F8
:10163000206881692A6941EA02218161D2E7206834
:1016400001F09CF92068C16941F00801C16120687E
:10165000C16921F00401C1612068C1692A6911438F
:1016600011E0206801F0BEF92068C16941F4006111
:10167000C1612068C16921F48061C1612068C169CC
:101680002A6941EA0221C161ACE710B5040003D028
:1016900094F83D0010B107E0012010BD002084F84F
:1016A0003C00204600F01EF8022084F83D00211D79
:1016B000206801F08FF8012084F8460084F83E008D
:1016C00084F83F0084F8400084F8410084F8420028
:1016D00084F8430084F8440084F8450084F83D0011
:1016E000002010BD7047704710B50446022249B172
:1016F00004290ED0082913D094F84100012816D0EF
:10170000012010BD94F83E000128F9D184F83E2054
:101710000FE094F83F000128F2D184F83F2008E060
:1017200094F840000128EBD184F8402001E084F8CF
:1017300041200122206801F09BF813492068134AD8
:10174000884201D0904203D1436C43F40043436488
:10175000206888420DD090420BD0B0F1804F08D065
:101760000B49884205D00B49884202D00A49884279
:1017700004D1816801F00701062903D0016841F016
:1017800001010160002010BD002C01400034014027
:101790000004004000080040000C004030B5044642
:1017A0000D460068002201F063F8194B41F2111157
:1017B00020688A10984202D0164B984209D1036AD9
:1017C0000B4206D1036A134203D1436C23F4004356
:1017D00043642068036A0B4206D1016A114203D1B7
:1017E000016821F00101016001203DB1042D08D004
:1017F000082D09D084F84100002030BD84F83E0057
:10180000FAE784F83F00F7E784F84000F4E70000C7
:10181000002C0140003401402DE9F0414649884246
:101820007ED10A214548FEF725FE0A214448FEF7ED
:1018300021FE0A214348FEF71DFE0A214248FEF719
:1018400019FE424C616920690F460646FEF7F0FC1E
:10185000A16905468846FEF7EBFC0446394630464A
:10186000FEF794FC06464146FEF790FC07463046DC
:101870004146FEF7DDFC064628464146FEF786FC5B
:1018800005462146012000F0F1FE3946022000F015
:10189000EDFE3146032000F0E9FE2946042000F069
:1018A000E5FE2648FEF72AFEFEF738FD07462448E7
:1018B000FEF724FEFEF732FD06462248FEF71EFE26
:1018C000FEF72CFD05462048FEF718FEFEF726FD24
:1018D000044639461E4800F077FE074631461D484B
:1018E00000F072FE064629461B4800F06DFE0546D4
:1018F00021461A4800F068FE04463846FEF71CFDF3
:1019000040B200F0E5FA3046FEF716FD40B200F0B6
:10191000F1FE2846FEF710FD40B200F0ADFA00E0FF
:1019200007E02046FEF708FDBDE8F04140B200F0B8
:10193000B5BEBDE8F08100009C020020340100200B
:10194000C40100200C02002054020020D00000201E
:10195000000000202C0000205800002084000020FF
:101960007047704770470000F8B501680446086882
:10197000CA684B6910F00F0F4FF0000559D003F003
:10198000010602F49077374365D0C10705D0D10531
:1019900003D5616C41F001016164410705D5D907A8
:1019A00003D0616C41F002016164810705D5D9075C
:1019B00003D0616C41F004016164010707D502F0B6
:1019C0002001314303D0616C41F008016164616C16
:1019D00000293AD0800604D5900602D5204601F0B1
:1019E0007BF820684069616CC0F38010090700D45F
:1019F00060B3204601F049F820684069400621D5CF
:101A00002068143050E8001F21F0400140E8001227
:101A1000002AF5D1E06BA8B16D494163E06BFEF798
:101A2000B7FD002811D0E06B416B01B0BDE8F0407C
:101A3000084783060FD593060DD52046BDE8F8402C
:101A400001F04AB82046FFF78DFFF8BD2046FFF7AA
:101A500089FF6564F8BD266B2023012E7CD1C60664
:101A60007AD5D60678D508684868009048694FF05E
:101A70000206400640D5E16B086840680004000C8F
:101A8000E8D0A28D8242E5D9E085886920282DD052
:101A900020680C3050E8001F21F4807140E80012EB
:101AA000002AF5D12068143050E8001F21F0010110
:101AB00040E80012002AF5D12068143050E8001FD9
:101AC00021F0400140E80012002AF5D184F84230AC
:101AD000256320680C3050E8001F21F0100140E819
:101AE0000012002AF5D1E06BFEF72EFD6663A08D93
:101AF000E18D401A81B22AE0A08DE18D401A81B2B9
:101B0000E08D0028A6D00029A4D022680C3252E82B
:101B1000000F20F4907042E80007002FF5D12068F4
:101B2000143050E8002F22F0010240E80027002F77
:101B3000F5D184F84230256320680C3050E8002F3E
:101B400022F0100240E80023002BF5D16663204606
:101B5000FFF707FFF8BDFFE705062BD5150629D5CA
:101B600094F841002128F5D1A068B0F5805F01D13B
:101B70002069B0B1206A411C216221680078486068
:101B8000E08C401E0004000CE084E3D12068C168B2
:101B900021F08001C1602068C16841F04001C1604E
:101BA000D8E7206A0088C0F308004860206A801CDB
:101BB0002062E5E74006CDD55006CBD5CA68204661
:101BC00022F04002CA6084F8413000F052F9C1E7C7
:101BD0007B2A000870B5040004D094F84100002569
:101BE00010B106E0012070BD84F84050204600F09E
:101BF00023F8242084F841002068C16821F40051B2
:101C0000C160204600F0CAFF2068016921F49041BC
:101C100001612068416921F02A0141612068C168A1
:101C200041F40051C1606564202084F8410084F8CB
:101C300042006563002070BD70B586B0002400943A
:101C40000194029403942E4E03682E49022003222D
:101C50002D4DB34226D18B6943F480438B618B6950
:101C600003F4804304938B6943F004038B61896917
:101C7000039201F0040104910102CDE900106946CC
:101C80002846FEF71DFD2815CDE9000469462846C3
:101C90000294FEF715FD002211462520FEF77EFE78
:101CA000252028E0194EB34227D1CB6943F40033F5
:101CB000CB61CB6903F4003304938B6943F00403D5
:101CC0008B618969039201F0040104910421CDE93B
:101CD000001069462846FEF7F3FC0820CDE9000411
:101CE000694628460294FEF7EBFC002211462620A6
:101CF000FEF754FE2620FEF743FE06B070BD00003E
:101D0000003801400010024000080140004400403B
:101D100090F84230202B01D00220704721B11AB137
:101D20000023036300F096BF012070472DE9F041C6
:101D30003C49884273D190F84100202804D1072201
:101D400039493A4800F07CF83748374C002500798B
:101D50001C3C374E374F51283BD008DC412824D05B
:101D6000432852D044282AD0452851D13BE053285B
:101D700010D0572804D0582844D05A2848D13EE0E3
:101D800057202070E068A060FEF79CFD6060C4E909
:101D9000046508E053202070E068A060FEF792FD23
:101DA0006060C4E90475A56132E041202070E068FC
:101DB000A060FEF787FD6060C4E90456F3E74420A5
:101DC0002070E068A060FEF77DFD6060C4E9045704
:101DD000E9E751202070E068A060FEF773FD2561FF
:101DE0006060154808E045202070E068A060FEF7BC
:101DF00069FD256160601148C4E9055008E00120D3
:101E000000F008FB022000F005FB032000F002FBBD
:101E1000BDE8F041072204490248FFF779BFBDE859
:101E2000F08100002C030020EC000020740300204F
:101E300000004842000048C20000F0410000F0C12C
:101E400090F84130202B01D00220704779B172B157
:101E500001628284C28400214164212180F8411002
:101E60000068C16841F08001C16000207047012016
:101E700070477047FEE7000070B5134D134E041E07
:101E800006DD012210212846FEF716FD002206E09D
:101E90000CD1012210212846FEF70EFD012220213F
:101EA0002846FEF709FD3068C46370BD002210218A
:101EB0002846FEF701FD012220212846FEF7FCFC02
:101EC00031686042C86370BD000801407C01002099
:101ED00070B5134D134E041E06DD0122114628462F
:101EE000FEF7EAFC002206E00CD10122114628464A
:101EF000FEF7E2FC012202212846FEF7DDFC3068F5
:101F0000446370BD002201212846FEF7D5FC012262
:101F100002212846FEF7D0FC31686042486370BD5C
:101F2000000801407C0100202DE9F04186B000242A
:101F30002B480094019402940394816941F00401B8
:101F40008161816901F004010491816941F0080116
:101F50008161816901F008010491816941F04001CA
:101F60008161816901F040010491816941F02001A2
:101F70008161816901F020010491816941F01001C2
:101F800081618069174F00F0100004900022F02159
:101F90003846FEF791FCDFF85080012203214046CD
:101FA000FEF78AFC00224FF440514046FEF784FCC5
:101FB000F02001250226CDE90005CDE9024669465B
:101FC0003846FEF77DFB43F20300CDE90005CDE97D
:101FD000024669464046FEF773FB06B0BDE8F08155
:101FE0000010024000080140000C014010B58CB008
:101FF00024216846FEF7BFF80024164809941449C6
:102000000A94C0E900144FF6FF71C0E9024104616F
:10201000446184610320CDE900040120CDE902047C
:102020000494CDE90540079469460A480894FFF7EF
:10203000DFF808B1FEF786FA099409A905480A9461
:10204000FEF78AFF002801D0FEF77CFA0CB010BD25
:10205000002C01403401002010B58EB000240794FC
:10206000089409940A940B941C2168460C94FEF77A
:1020700082F82A484FF08041016040F2CF21C0E948
:1020800001144FF6FF71C0E903148461FEF7A2FF4B
:1020900008B1FEF757FA4FF48050079007A91F4880
:1020A000FFF738F808B1FEF74DFA1C48FFF7EDFAD4
:1020B00008B1FEF747FA0B940BA918480C94FEF7E9
:1020C0004BFF08B1FEF73EFA6020CDE90004029410
:1020D0000022694611480494FFF771FA08B1FEF72F
:1020E00031FA042269460D48FFF769FA08B1FEF794
:1020F00029FA082269460948FFF761FA08B1FEF794
:1021000021FA0C2269460548FFF759FA08B1FEF793
:1021100019FA0248FFF7F6F90EB010BD7C01002055
:1021200010B58CB024216846FEF725F80024164827
:10213000099414490A94C0E900144FF6FF71C0E9EC
:102140000241046184610320CDE900040120CDE94E
:1021500002040494CDE90540079469460A480894AE
:10216000FFF746F808B1FEF7EDF9099409A906480A
:102170000A94FEF7F1FE002801D0FEF7E3F90CB057
:1021800010BD000000040040C401002010B58CB058
:1021900024216846FDF7EFFF0024164809941449EE
:1021A0000A94C0E900144FF6FF71C0E902410461CE
:1021B00084610320CDE900040120CDE902040494E8
:1021C000CDE90540079469460A480894FFF710F8DE
:1021D00008B1FEF7B7F9099409A906480A94FEF771
:1021E000BBFE002801D0FEF7ADF90CB010BD000019
:1021F000000800400C02002010B58CB02421684675
:10220000FDF7B9FF00241548099413490A94C0E961
:1022100000144FF6FF71C0E902410461846101209E
:10222000CDE90004CDE902040494CDE9054007940A
:1022300069460A480894FEF7DBFF08B1FEF782F909
:10224000099409A905480A94FEF786FE002801D0E2
:10225000FEF778F90CB010BD000C004054020020CD
:102260001CB500240F4800940D490194016040F210
:10227000CF21C0E901144FF6FF718461C160FEF700
:10228000A9FE08B1FEF75EF900946946054801947D
:10229000FEF762FE002801D0FEF754F91CBD0000D5
:1022A000001000409C02002010B596B000240F944E
:1022B00010941194129413941C2168461494FDF701
:1022C0005AFF202107A8FDF756FF34483249016024
:1022D0004721C0E901146321C0E90314446184610A
:1022E000FEF778FE08B1FEF72DF94FF480500F90FD
:1022F0000FA92A48FEF70EFF08B1FEF723F9274879
:10230000FFF7C3F908B1FEF71DF9139413A9234889
:102310001494FEF721FE08B1FEF714F96020009036
:102320003220CDE901040394049405940022694607
:102330001A480694FFF743F908B1FEF703F904229F
:1023400069461648FFF73BF908B1FEF7FBF808228B
:1023500069461248FFF733F908B1FEF7F3F80C228B
:1023600069460E48FFF72BF908B1FEF7EBF8079422
:10237000089409944FF400500A94CDE90B4007A942
:1023800006480E94FEF7BEFD08B1FEF7DBF80348E1
:10239000FFF7B8F816B010BD00340140E402002089
:1023A0000C4810B50A4901604FF4165141600021F4
:1023B00081600C22C160C0E904128161C161FFF734
:1023C00009FC002803D0BDE81040FEF7BBB810BDE3
:1023D000003801402C0300200C4810B50A49016068
:1023E0004FF416514160002181600C22C160C0E9A8
:1023F00004128161C161FFF7EDFB002803D0BDE845
:102400001040FEF79FB810BD004400407403002048
:10241000FEE700002DE9F04781462148FDF7A5FFC2
:1024200006003BD0484600F08FF800240127DFF873
:1024300074804846B9F1010F1ED008F1100502283A
:1024400026D0B9F1030F29D1404600F0B3F8014678
:1024500028734046C0E90064C8F8084088F80D7049
:10246000C5E90064AC606F73484600F01DF848464B
:10247000BDE8F04700F046B80A4800F09BF8014676
:102480004046C0E90064C8F8084088F80D70EBE7E2
:102490000448103000F08EF80146E1E7BDE8F0870F
:1024A00056558941B000002070B501291DD0002586
:1024B000134C01281BD002280BD003281FD12A4619
:1024C00001212046FEF7F8F92A4602212046FEF7B0
:1024D000F3F92A4604212046FEF7EEF92A460821A0
:1024E0002046BDE87040FEF7E7B90125E0E72A463F
:1024F00001212046FEF7E0F92A460221F0E770BDEF
:10250000001C014010B5012815D0022809D003286D
:1025100017D100210B48FFF7E7F804210948FFF71E
:10252000E3F808210748FFF7DFF80C21BDE8104069
:102530000448FFF7D9B800210248FFF7D5F8042175
:10254000F4E710BDE402002070B50024174D012807
:1025500018D005F1100602281ED0032811D1002141
:102560001348FFF71BF904211148FFF717F9082159
:102570000F48FFF713F90C210D48FFF70FF96C73A3
:10258000747370BD00210A48FFF708F90421084858
:10259000FFF704F96C7370BD08210548FFF7FEF8DA
:1025A0000C210348FFF7FAF8EAE70000B00000202A
:1025B000E40200200146007B012801D0012000E058
:1025C000002008737047FEE72DE9F0410446C0681B
:1025D000FDF72EFE01462061A069FDF7D7FDA06141
:1025E00005466168606AFDF75BFE2946FDF7D2FE8D
:1025F000616801D2606A08E0A06AFDF751FEA16936
:10260000FDF7D2FE04D26168A06AFDF749FEA06121
:10261000D4E904512846FDF70BFE0146E061A068AD
:10262000FDF70CFE0746A1696068FDF707FE064648
:1026300029462068FDF702FE3146FDF7A7FD394621
:10264000FDF7A4FD2062616AFDF7AEFE01D2606A6B
:1026500005E0A16A206AFDF79DFE01D2A06A206212
:1026600020696061206ABDE8F0810000012808D07F
:10267000022809D003280AD0042801D10548C160E6
:10268000704704488438FAE702485838F7E70148A9
:102690002C38F4E7840000207047000070B5134D1B
:1026A000134E041E06DD012240212846FEF704F9E0
:1026B000002206E00CD1012240212846FEF7FCF85A
:1026C000012280212846FEF7F7F83068046470BDC7
:1026D000002240212846FEF7EFF8012280212846FB
:1026E000FEF7EAF831686042086470BD00080140F6
:1026F0007C0100202DE9F041144D154E041E4FF4CD
:1027000080514FF4005705DD01222846FEF7D4F82A
:10271000002205E00CD101222846FEF7CDF8012267
:1027200039462846FEF7C8F830688463BDE8F08172
:1027300000222846FEF7C0F8012239462846FEF757
:10274000BBF8316860428863F0E70000000C01408C
:102750007C0100207047FEF7BBB830B58FB0282150
:102760006846FDF708FD14210AA8FDF704FD0121C4
:102770000804CDE900100024029402250491CDE95B
:1027800007504FF4E01009906846FEF715FA08B1BB
:1027900072B6FEE70F20CDE90A054FF48060CDE95F
:1027A0000C4002210AA80E94FEF72AF9002801D055
:1027B00072B6FEE70FB030BD704700000148FEF76B
:1027C00008BE00009C0200200148FEF702BE000087
:1027D000E4020020F0B50268204C214D214E224F2A
:1027E000224B4FF0804CA04209D0984207D0604560
:1027F00005D0A84203D0B04201D0B84204D122F0A3
:10280000700E4A6842EA0E02A04209D0984207D0F0
:10281000604505D0A84203D0B04201D0B84203D1F0
:1028200022F44075CA682A434D6922F080022A4387
:1028300002608A68C2620A688262A04201D098423D
:1028400001D109690163012141610169C90703D00F
:10285000016921F001010161F0BD0000002C01407F
:102860000004004000080040000C0040003401401B
:1028700010B501F01F030121046A99408C430462E2
:10288000016A9A401143016210BD10B5846842EAA2
:10289000032224F47F440A432243826010BD8268ED
:1028A00022F070020A4342F0070181607047000085
:1028B000F0B5036A026A22F001020262426884698A
:1028C000124E24F073050C682C4323F002058B682C
:1028D0002B430D4DA84201D0B04205D123F008078B
:1028E000CB683B4323F00403A84201D0B04205D19A
:1028F0004D6922F4407215438A692A43426084611B
:10290000496841630362F0BD002C0140003401407E
:10291000F0B5026A036A23F0100303624368846916
:102920000D6824F4E64444EA05248D6822F0200270
:1029300042EA05120F4D104EA84201D0B04206D116
:10294000CF6822F0800242EA071222F04002A84239
:1029500001D0B04207D14D6923F4406343EA8503B7
:102960008D6943EA8503436084614968816302623B
:10297000F0BD0000002C014000340140F0B5026AB7
:10298000036A23F4807303624368C46922F400720B
:1029900024F073050C68124E2C438D6842EA052220
:1029A0000E4DA84201D0B04206D1CF6822F4006299
:1029B00042EA072222F48062A84201D0B04207D145
:1029C0004D6923F4405343EA05138D6943EA051327
:1029D0004360C4614968C1630262F0BD002C0140DC
:1029E0000034014030B5046A026A22F48052026267
:1029F0004268C3690D6823F4E64343EA05238D6802
:102A000024F4005444EA0534084DA84202D0084D8D
:102A1000A84204D14D6922F4804242EA8512426004
:102A2000C36149680164046230BD0000002C0140AC
:102A30000034014010B5036A046A24F00104046202
:102A4000846924F0F00444EA021423F00A020A43E1
:102A50008461026210BD10B5036A046A24F0100498
:102A60000462846923F0A00324F4704444EA02322F
:102A700043EA01118261016210BD10B5406A002174
:102A8000C185C184FEF76EFF10BD01680C3151E8AD
:102A9000002F22F4907241E80023002BF5D1016849
:102AA000143151E8002F22F0010241E80023002BED
:102AB000F5D1016B012909D101680C3151E8002FD2
:102AC00022F0100241E80023002BF5D1202180F8EC
:102AD000421000210163704708B590F84210222986
:102AE00001D0022008BD82684FF480539A4201D180
:102AF000016921B1816A9A421BD04AB10AE0026899
:102B0000816A5268C2F308020A80816A891C08E05F
:102B1000026972B10268526802F07F020A70816A2B
:102B2000491C8162C18D491E0904090CC18503D06D
:102B30001BE002685268F1E70168CA6822F02002CF
:102B4000CA600168CA6822F48072CA6001684A6972
:102B500022F001024A61202180F8421000214163E5
:102B6000026B012A03D0FFF7E1F8002008BD0163E2
:102B700001680C3151E8002F22F0100241E80023D7
:102B8000002BF5D101680A68D20602D50A684968A7
:102B90000091818DFEF7E5FEE7E7000070B5044681
:102BA00000680169E26821F4405111430161216923
:102BB000A0680843616908432168CA6841F20C6350
:102BC0009A430243CA6020684169A26921F44071B6
:102BD000114341611E492068884202D1FDF7B6FFCA
:102BE00001E0FDF7A3FF00EBC00101EB00126068FC
:102BF00064218000B2FBF0F3B3FBF1F36FF0180631
:102C00007343B2FBF0F5B2FBF0F605EB830532231C
:102C100003EB0515B5FBF1F5B6FBF1F605F0F00594
:102C200005EB0615B2FBF0F6B2FBF0F0B0FBF1F0ED
:102C30006FF01802504306EB800003EB0010B0FB6E
:102C4000F1F0216800F00F002844886070BD00009A
:102C50000038014081628285C285002141642221C1
:102C600080F84210016921B10168CA6842F480729B
:102C7000CA6001684A6942F001024A610068C1689D
:102C800041F02001C1600020704700000148FEF7BC
:102C90006BBE00002C0300200148FEF765BE00005B
:102CA00074030020FEE70907090E002804DB00F189
:102CB000E02080F80014704700F00F0000F1E020E1
:102CC00080F8141D704702E008C8121F08C1002ACE
:102CD000FAD170477047002001E001C1121F002A9D
:102CE000FBD17047FDF7FCFDFFF737FDFFF71CF93F
:102CF000FFF7B2F9FFF714FAFFF752FBFFF776F987
:102D0000FFF744FAFFF778FAFFF7CEFAFFF7A8FAD1
:102D1000FFF762FB1F48FEF7C7F900211D48FEF7C9
:102D2000E3FC04211B48FEF7DFFC08211948FEF7ED
:102D3000DBFC0C211748FEF7D7FC00211648FEF7F4
:102D4000D3FC00211548FEF7CFFCFDF781FB1249AB
:102D50004FF4FA7009684863104940F2CF700A686E
:102D6000D062C86007220E490E48FEF7D1FFFDF77A
:102D7000A9FD0B4D00241C3DC5F80400FDF7A2FD84
:102D80006968401A6428F9D9FDF762FB2C616C610F
:102D9000AC61F3E77C010020340100200C0200202C
:102DA000EC0000202C0300200102020304050607AA
:102DB00008090A0B0C0D0E0F101000000000000097
:102DC00000000102030406070809000000000102D8
:102DD00003040000F42D000800000020040100009E
:102DE000C62C0008F82E000804010020BC060000D4
:102DF000D62C000800000040CDCCCC3DCDCC4C3DC5
:102E000000000000000000000000000000000000C2
:102E100000000000000000000000C8420000C8C21E
:102E200000000040CDCCCC3DCDCC4C3D000000009E
:102E30000000000000000000000000000000000092
:102E4000000000000000C8420000C8C200000040AE
:102E5000CDCCCC3DCDCC4C3D0000000000000000AE
:102E60000000000000000000000000000000000062
:102E70000000C8420000C8C200000040CDCCCC3DDC
:102E8000CDCC4C3D00000000000000000000000020
:102E90000000000000000000000000000000C84228
:102EA0000000C8C200000000000000000000000098
:102EB0000100000000000000000000000000000011
:102EC0000100000000000000000000000000000001
:102ED00000000000000000000000000000000000F2
:102EE00000000000000000000100000010000000D1
:082EF0000000000000127A004E
:0400000508000131BD
:00000001FF
