:020000040800F2
:100000000806002045010008072B0008C11F000852
:10001000052B000813040008FD3000080000000054
:10002000000000000000000000000000C52B0008D8
:100030008504000800000000092B0008C72B0008F9
:100040005F0100085F0100085F0100085F01000810
:100050005F0100085F0100085F0100085F01000800
:100060005F0100085F0100085F0100085F010008F0
:100070005F0100085F0100085F0100085F010008E0
:100080005F0100085F0100085F0100085F010008D0
:100090005F0100085F0100085F0100085F010008C0
:1000A0005F0100085F0100085F0100085F010008B0
:1000B0005F0100082D2C00085F0100085F010008A7
:1000C0005F0100085F0100085F0100085F01000890
:1000D0005F010008F13000085F0100085F010008BF
:1000E0005F0100085F0100085F0100085F01000870
:1000F0005F0100085F0100085F0100085F01000860
:100100005F0100085F0100085F0100085F0100084F
:100110005F0100085F0100085F0100085F0100083F
:100120005F0100085F0100085F0100085F0100082F
:10013000DFF80CD000F04CF900480047F931000816
:10014000080600200648804706480047FEE7FEE70D
:10015000FEE7FEE7FEE7FEE7FEE7FEE7FEE7FEE777
:10016000292C000831010008D2B201E000F8012B6F
:10017000491EFBD270470022F6E710B513460A4627
:1001800004461946FFF7F0FF204610BDF0B480EAA0
:100190000102D40F4200B2EB410F02D202460846E0
:1001A00011464A0042D0C30DDDB2C1F3C752AD1AA9
:1001B000202D35DAC1F3160141F4000204B1524298
:1001C000C5F1200602FA06F12A411044B3EBD05FD4
:1001D00023D0C4B1012DA0EBC35009DCF0BC4FF01B
:1001E000004202EAC352DBB200F5000000F0C1B8E1
:1001F000400000F1807000EBC350A0F1807040EA35
:10020000D170490009E0490841EAC071A0EBC35030
:1002100000F50000400800EBC350F0BC00F0A0B8AF
:100220006142012202EB4101001BF6E7F0BC70477E
:1002300081F00041AAE780F00040A7E780EA0102D0
:1002400010B502F00043400022D04A001FD0010E3A
:1002500001EB1261C0F35600C2F3560240F40000F5
:1002600042F40002A0FB022000047F39140400D0F5
:10027000401C50EA124001D44000491EC2B20C0694
:1002800004EBD010401C4008802A02D003E000207C
:1002900010BD20F00100002900DA0020184310BD35
:1002A00030B480EA010202F0004530F0004221F053
:1002B000004013D090B1C30DD40DC2F31601C0F3AA
:1002C0001600E41A41F4000140F400027D3491422A
:1002D00001D3641C00E04900002C02DA30BC00208D
:1002E00070474FF400000023914201D3891A034361
:1002F00040084FEA4101F7D151B1914202D14FF08C
:10030000004105E002D24FF0010101E06FF0010170
:1003100003EBC450284430BC00F022B8C10F80EA7F
:10032000E0700844CA079623002100F022B800F0CC
:10033000004220F00040C10DC0F3160040F4000060
:100340007F2901DA00207047962903DCC1F196016C
:10035000C84001E096398840002AF4D040427047F6
:100360000029A8BF7047401C490008BF20F00100C9
:10037000704710B4B0FA80FC00FA0CF050EA0104A7
:1003800004BF10BC704749B1CCF1200421FA04F439
:1003900011FA0CF118BF012121430843A3EB0C0112
:1003A000CB1D4FEA00614FEA102042BF002010BC75
:1003B000704700EBC35010440029A4BF10BC704725
:1003C000401C490008BF20F0010010BC704700002D
:1003D000064C074D06E0E06840F0010394E8070092
:1003E00098471034AC42F6D3FFF7A6FEF832000867
:1003F0001833000810B5002002F020F8002002F0A9
:10040000B1FB002001F0EEFFBDE81040002002F03B
:100410007DBBFEE708B5322101EB40008DF80000FE
:1004200001226946044801F0B1FD04499DF800002D
:100430000968486308BD0000BC0100209C00002042
:1004400010B50F4B012808D001290ED0012211460A
:100450001846BDE8104000F0E1B9002201211C4619
:10046000184600F0DBF9012206E0002201211C46BB
:10047000184600F0D3F9002202212046E9E70000E7
:10048000000C0140704772B6FEE710B590F82110DD
:100490000022022905D00421816380F82020012058
:1004A00010BD01680B6823F00E030B6001680B6838
:1004B00023F001030B6090F84030C46B012101FA76
:1004C00003F3636080F8211080F82020104610BDEF
:1004D0002DE9F05F90F821100024022903D00421B7
:1004E0008163012485E001680A6822F00E020A6037
:1004F00001680A6822F001020A603F4E3E4FB215C1
:10050000DFF8F4C0DFF8F090DFF8ECA0DFF8E8B037
:10051000DFF8E4E00168783F13011502ACF1640CE8
:10052000A9F15009AAF13C0AABF1280BAEF1140E67
:100530004FF48018B14227D9B9420ED0614512D08C
:1005400049451DD0514518D0594518D0714501D1A4
:10055000424615E0294EB14201D1012210E0274E5A
:100560001436B14201D110220AE0244E2836B1429D
:1005700006D0224A3C32914201D11A4600E02A4676
:100580001E49091F0A602BE0B94213D0614517D0FC
:10059000494522D051451DD059451DD0714501D145
:1005A00042461AE0B14202D14FF0807215E0134E7C
:1005B000B14201D1012210E0104E1436B14201D1F6
:1005C00010220AE00D4E2836B14206D00B4A3C32CA
:1005D000914201D11A4600E02A46074980394A6013
:1005E000012180F82110002180F82010416B01B119
:1005F00088472046BDE8F09F800002400804024082
:1006000070B5044600F010F90546601C02D004489D
:100610000078044400F008F9401BA042FAD370BDF2
:10062000280000202DE9F84FDFF8C8910024A9F137
:10063000040B23460F2709F1040AABF1040ED1E0A5
:100640000125A54006EA0502AA4276D1DFF8A8C135
:100650004E68A6EB0C0866452BD00DDC032E34D07B
:1006600005DC36B3012E19D0022E2FD11BE0112E3E
:1006700016D0122E2AD119E0B8F5881F19D006DC41
:10068000B8F5803F15D0B8F5801F1FD111E0B8F53F
:10069000001F0ED0B8F5041F18D10AE0CB6815E092
:1006A000CB681B1D12E0CB6808330FE0CB680C331E
:1006B0000CE08B682BB1012B4FF0080303D0456190
:1006C00004E0042302E0056100E00023FF2A01D8D2
:1006D000064601E000F104064FEA840501D9A5F1C0
:1006E0002005D6F8008007FA05FC28EA0C0803FA72
:1006F00005F548EA0508C6F800804D68ED0070D59C
:100700003E4DAE6946F00106AE61AD6924F00306C8
:1007100005F0010500953A4D06EB050CDCF8085094
:10072000A607360F07FA06F825EA0805DFF8D48091
:10073000404503D14FF0000825E052E0DFF8C880C3
:10074000404502D14FF001081DE0DFF8C080404570
:1007500002D14FF0020816E0DFF8B480404502D124
:100760004FF003080FE0DFF8AC80404502D14FF0B6
:10077000040808E0DFF8A080404502D14FF00508EA
:1007800001E04FF0060808FA06F848EA0508CCF838
:1007900008804D68D9F80060ED024D4601D516433A
:1007A00000E096432E604D68DAF80060AD025546D1
:1007B00001D5164300E096432E604D68DBF80060DB
:1007C000AD035D4601D5164300E096432E604D68AB
:1007D000DEF80060ED03754601D5164300E0964350
:1007E0002E60641C0A681646E2407FF429AFBDE81B
:1007F000F88F0000080401400000111000100240B2
:100800000000014000080140000C014000100140C0
:100810000014014000180140001C01400AB10161B0
:1008200070470904FBE7000001488068704700003A
:100830002800002070B5040025D094F83D00002564
:1008400020B984F83C50204600F076FA242084F841
:100850003D002068016821F0010101602068016805
:1008600041F4004101602068016821F40041016009
:1008700000F0BEFB4D4A6168914201D84C4900E04E
:100880004C49884201D2012070BD4B492368B0FB1E
:10089000F1F15E6826F03F060E435E6063689342A6
:1008A00006D94FF4967359434FF47A73B1FBF3F1C1
:1008B0002368491C1E6A26F03F06314319626168AD
:1008C000914210D84900401EB0FBF1F2521CC2F315
:1008D0000B02042A01D2042022E0B0FBF1F0401CFC
:1008E000C0F30B001CE0A268F2B301EBC10303EB01
:1008F0000116431EB3FBF6F35B1C43F480431B0558
:1009000049D092B301EBC10202EB0111401EB0FBD2
:10091000F1F0401CC0F30B0040F4804040F4004074
:100920002168CA694CF6FF739A431043C861D4E941
:10093000071001432068026822F0C00211430160E1
:10094000D4E9030101432068826848F2FF339A43E7
:1009500011438160D4E9050108432168CA6822F087
:10096000FF021043C86001E00EE016E02068016855
:1009700041F0010101602564202084F83D002563D9
:1009800084F83E50002070BD01EB4106431EB3FBCE
:10099000F6F35B1CB3E70120C2E701EB4101401E07
:1009A000B0FBF1F0401CC0F30B00B7E7A0860100DC
:1009B00080841E0000093D0040420F002DE9F84FE1
:1009C0000025DDF82890984617468A46044600958B
:1009D000FFF72AFF064694F83D0020287AD1192314
:1009E000012286492046009601F0F2FB0028F5D14D
:1009F00094F83C0001286DD0012084F83C00206868
:100A00000168C90703D1016841F001010160206854
:100A1000016821F400610160222084F83D0010206B
:100A200084F83E0025646762A4F82A80608D2085E2
:100A30007348E06233464A465146204601F0D8FAF0
:100A400000287CD1208DDFF8BC81202768B10128E7
:100A500014D00228206801681ED041F48061016032
:100A60002068416980690090BBE020684169816924
:100A70000091016841F400710160B2E020680168F2
:100A800021F48061016072B620684169816900913A
:100A9000016841F400710AE041F40061016072B63E
:100AA0002068416981690091016821F480610160D9
:100AB00062B696E0032865D801280CD002284B4680
:100AC0004FF000024146204600960BD001F080FB1B
:100AD000A8BB0CE090E032464946204601F01EFCDF
:100AE00068BB71E001F074FB48BB72B633E020686C
:100AF000016821F48061016072B620680069616A52
:100B00000870606A401C6062208D401E2085608DE8
:100B1000401E60853C4846F2A8110068B0FBF1F029
:100B2000C0EBC00000EB80000090401E009007D09A
:100B300020684069C04340070DD50098F5E727E0DD
:100B400044F8305F6773A573206940F0200020618E
:100B500062B625731CE02068016841F400710160F1
:100B600020680069616A0870606A401C6062218DBB
:100B7000491E2185618D491E618562B6216809691A
:100B8000017025E032464946204601F0C7FB10B10E
:100B90000120BDE8F88F20680069616A0870606A0A
:100BA000401C6062208D401E81B22185608D401EF8
:100BB000608520684269D243520712D4032903D1C9
:100BC000016821F48061016020680069616A087031
:100BD000606A401C6062208D401E2085608D401E32
:100BE0006085208D00287FF465AF84F83D7084F81F
:100BF0003E5084F83C50CCE70220CAE702001000C7
:100C00000000FFFF04000100340000202DE9F84F30
:100C10001F4690468A460446DDF82890FFF704FEFA
:100C2000054694F83D0020287FD119230122404930
:100C30002046009501F0CCFA002876D194F83C00CB
:100C4000012872D0012084F83C0020680168C9079F
:100C500003D1016841F0010101602068016821F4BD
:100C600000610160212084F83D00102084F83E00DE
:100C700000262664C4F824806785608D20852D4871
:100C8000E0622B464A465146204601F027FA90B9C9
:100C9000206841698069009036E02A46494620462E
:100CA00001F074FB50B1206C042804D12068016865
:100CB00041F4007101600120BDE8F88F606A21688D
:100CC00000780861606A401C6062618D491E618520
:100CD000218D491E89B2218522685369DB435B0758
:100CE0000BD451B100781061606A401C6062608D65
:100CF000401E6085208D401E20852A46494620469C
:100D000001F03AFA0028CED1208D0028C5D154F840
:100D10003D0B016841F400710160202004F81E09B8
:100D2000E67766770020C7E7FFE70220C4E7000008
:100D3000020010000000FFFF10B586B000210091F6
:100D400001910291039100680F4988421AD10F4C1A
:100D5000A06940F00800A061A069694600F00800A1
:100D60000490C020009012200190032003900848B6
:100D7000FFF758FCE06940F40010E061E06900F41E
:100D80000010049006B010BD005400400010024056
:100D9000000C01400248816802781144816070476C
:100DA00028000020074810B5016841F010010160DB
:100DB000032000F075F80F2000F006F800F024F88A
:100DC000002010BD0020024070B50D4D04464FF4C8
:100DD0007A712878B1FBF0F00A490968B1FBF0F0AC
:100DE00000F0DCFA48B9102C07D200222146501E30
:100DF00000F036F800206C6070BD012070BD00006E
:100E000028000020340000200C4808B5816941F01A
:100E100001018161816901F001010091C16941F025
:100E20008051C161C06900F0805000900448416861
:100E300021F0E06141F00071416008BD0010024006
:100E400000000140002809DB00F01F020121914051
:100E50004009800000F1E020C0F800117047000058
:100E6000F0B40E4B1B680C46C3F30223C3F1070515
:100E7000042D00D90425191D072901D2002300E003
:100E8000DB1E012606FA05F1491E214099409E40CD
:100E9000761E16403143F0BC02F08EB90CED00E036
:100EA000064900F0070208684FF6FF03184040EAC1
:100EB0000220034A10430860704700000CED00E078
:100EC0000000FA052DE9F0470F46050061D0434EBA
:100ED000306800F00700B84209D2306820F00700FF
:100EE00038433060306800F00700B84251D12868BC
:100EF0003B4C810712D5400703D5606840F4E060A1
:100F000060602878000703D5606840F46050606036
:100F10006068A96820F0F000084360602878C00786
:100F200028D06868012810D02168022810D08907CD
:100F300000292EDA616821F0030101436160FFF7A7
:100F400073FC804641F288390DE021688903EFE7A0
:100F50008901EDE7FFF768FCA0EB0801494502D9DC
:100F60000320BDE8F0876068696800F00C00B0EB12
:100F7000810FEFD1306800F00700B8420BD930681C
:100F800020F0070038433060306800F00700B842B6
:100F900001D00120E5E72878400705D56068E968B9
:100FA00020F4E060084360602878000706D5606898
:100FB000296920F4605040EAC100606000F038F810
:100FC0006168084AC1F30311515CC84006490860D2
:100FD00006480068FFF7F8FE0020C2E70020024044
:100FE00000100240DE320008340000202C000020F7
:100FF0000448054900684968044AC1F30221515C6C
:10100000C84070473400002000100240EE32000853
:101010000448054900684968044AC1F3C221515C8B
:10102000C84070473400002000100240EE32000833
:101030000E4A51680E4801F00C03042B11D0082B06
:101040000FD10C48C1F38343C903C05C0AD5516872
:10105000084AC1F34041921E515C054A5043B0FB1F
:10106000F1F0704704494843704700000010024007
:1010700000127A00CE32000800093D002DE9F84F39
:10108000040070D02078C04DC00749D06868C0F314
:101090008100012807D06868C0F38100022809D1C7
:1010A0006868C00306D52868800339D560680028C1
:1010B000E7D035E06068B0F5803F0BD010B1B0F5F7
:1010C000A02F11D0286820F480302860286820F4F0
:1010D000802002E0286840F480302860606890B189
:1010E000FFF7A2FB06460AE0286840F4802028604B
:1010F000F0E700BFFFF798FB801B642873D82868CF
:101100008003F7D50CE0FFF78FFB064605E000BF34
:10111000FFF78AFB801B6428F0D828688003F7D487
:1011200020789A4E80074FF001094FF0000839D51A
:10113000686810F00C0F07D06868C0F381000228BF
:1011400009D16868C00306D42868800714D52069CF
:10115000012808D110E02069B0B1C6F80090FFF76F
:1011600063FB074605E00AE1FFF75EFBC01B0228B0
:10117000C4D828688007F7D52868616920F0F8008E
:1011800040EAC10028600DE0C6F80080FFF74CFB84
:10119000074604E0FFF748FBC01B022823D8286855
:1011A0008007F7D4207800072CD57948A169D9B1F8
:1011B000C0F80090FFF738FB074604E0FFF734FB68
:1011C000C01B02280FD8686A8007F7D571484FF412
:1011D000FA510068B0FBF1F0009000BF0098411E8A
:1011E0000091FAD20EE080E0C0F80080FFF71CFB0F
:1011F000074604E0FFF718FBC01B022875D8686A91
:101200008007F7D42078400760D5E8690027C00040
:1012100008D4E86940F08050E861E869012700F0EF
:10122000805000905C480168C90513D4016883466A
:1012300041F480710160FFF7F7FA824606E000BFD3
:10124000FFF7F2FAA0EB0A0064284ED8DBF80000A2
:10125000C005F5D5E06801280AD008B1052813D0EB
:10126000286A20F001002862286A20F0040002E0C9
:10127000286A40F001002862E06841F2883B98B19A
:10128000FFF7D2FA82460BE0286A40F00400286299
:10129000EEE700BFFFF7C8FAA0EB0A0159455AD89C
:1012A000286A8007F6D50CE0FFF7BEFA824605E013
:1012B000FFF7BAFAA0EB0A0159454CD8286A800713
:1012C000F6D41FB1E86920F08050E861E06988B386
:1012D0006968C1F38101022944D00228C6F8608000
:1012E00004D0FFF7A1FA044638E034E0FFF79CFA97
:1012F000074604E0FFF798FAC01B02282BD828689D
:101300008001F7D4206AB0F5803F05D16868A168F4
:1013100020F4003008436860D4E908010843696894
:1013200021F4741108436860C6F86090FFF77CFAF6
:10133000044606E025E000BFFFF776FA001B02280E
:1013400009D828688001F7D51BE000BFFFF76CFAC9
:10135000001B022802D90320BDE8F88F286880010D
:10136000F4D40EE00128F7D06868226A00F48031D6
:10137000914204D1616A00F47010884201D00120CA
:10138000EAE70020E8E700000010024000004242C7
:1013900080044242340000200070004010B5401E1E
:1013A000B0F1807F01D3012010BD4FF0E0246061D7
:1013B0000F21601701F000FF0020A06107202061CD
:1013C000002010BD7047704710B590F83C20012AEE
:1013D00022D0012280F83C20CA688C6822F4407236
:1013E00022434C6822F4806222430C6822F400629B
:1013F00022430C6922F4805222434C6922F40052A9
:101400002243C969002322F480420A4301684A64E6
:1014100080F83C30002010BD022010BD70B590F85F
:101420003C20012A2CD0012480F83C40022280F884
:101430003D2003685A689D6822F070060A683243AE
:101440005A60104B02689A420ED00F4B9A420BD052
:10145000B2F1804F08D00D4B9A4205D00C4B9A4206
:1014600002D00C4B9A4204D1496825F080031943FD
:10147000916080F83D40002180F83C10084670BD26
:10148000022070BD002C01400034014000040040E7
:1014900000080040000C004010B5040003D094F890
:1014A0003D0010B107E0012010BD002084F83C0091
:1014B000204600F01FF8022084F83D00211D20681E
:1014C00001F0BAFB012084F8460084F83E0084F85D
:1014D0003F0084F8400084F8410084F8420084F81A
:1014E000430084F8440084F8450084F83D0000205F
:1014F00010BD000008B51C4A01681C48914207D184
:10150000816941F400618161806900F400601EE03E
:10151000B1F1804F14D0164A91421AD1C16941F0FD
:101520000201C161C069002200F002000090114672
:101530001D20FFF795FCBDE808401D20FFF782BC89
:10154000C16941F00101C161C06900F00100009072
:1015500008BD084A9142FBD1C16941F00401C16153
:10156000C06900F00400F2E7002C014000100240C6
:10157000000400400008004090F83D10012901D00F
:1015800001207047022180F83D100168CA6842F0CE
:101590000102CA6000680E4988420ED00D49884297
:1015A0000BD0B0F1804F08D00B49884205D00B49D1
:1015B000884202D00A49884204D1816801F00701BB
:1015C000062903D0016841F0010101600020704745
:1015D000002C01400034014000040040000800409D
:1015E000000C004070B5044690F83C00002501282E
:1015F00017D0012684F83C60022084F83D00206862
:10160000826822F0770222F47F42826008685028C4
:1016100038D00DDC20284FD005DC90B3102811D134
:101620004AE0022070BD302846D040280AD13BE075
:1016300060282FD070280DD0B0F5805F03D0B0F5B2
:10164000005F12D0012584F83D60002084F83C0042
:10165000284670BDCB68D1E90121206801F047FB25
:101660002068816841F0770109E0CB68D1E9012168
:10167000206801F03CFB2068816841F48041816072
:10168000E1E719E0CA684968206801F005FC5021CB
:10169000206806E0CA684968206801F00EFC6021F5
:1016A000206801F02EFBCEE7CA684968206801F087
:1016B000F3FB40212068F4E7226801461046F0E77A
:1016C00070472DE9F04104460068C66805694FF08F
:1016D0000007A90713D5B10711D5F91E0161012033
:1016E0002077206880698007204602D0FFF7E8FF56
:1016F00004E000F0E3F8204600F075F9277768076A
:1017000016D5700714D521686FF004000861022017
:1017100020772068806910F4407F204602D0FFF7D0
:10172000CFFF04E000F0CAF8204600F05CF927770C
:10173000280715D5300713D521686FF00800086118
:10174000042020772068C0698007204602D0FFF778
:10175000B7FF04E000F0B2F8204600F044F9277724
:10176000E80616D5F00614D521686FF01000086160
:10177000082020772068C06910F4407F204602D0FE
:10178000FFF79EFF04E000F099F8204600F02BF9E7
:101790002777E80708D0F00706D021686FF001002E
:1017A0000861204600F07AF9280608D5300606D5EB
:1017B00021686FF0800008612046FFF703FE68068D
:1017C00008D5700606D521686FF0400008612046F4
:1017D00000F0F2F9A8060AD5B00608D521686FF026
:1017E000200008612046BDE8F041FFF7ECBDBDE8F0
:1017F000F081000010B586B00021009101910291A6
:101800000391274B026827490220274C9A4217D19F
:101810008A6942F040028A618969039001F04001BF
:1018200004910102CDE9001069462048FEF7FAFE56
:10183000606820F0C00040F0E06040F0C0001AE0B6
:10184000B2F1804F1AD01A4B9A4215D18A6942F0F0
:1018500020028A618969039001F0200104919914A2
:10186000CDE9001069461348FEF7DCFE606840F0E1
:10187000E06040F48050606006B010BD8A6942F0BC
:1018800004028A618969039001F0040104910F2127
:10189000CDE9001069460848FEF7C4FEECE70000F9
:1018A000002C0140001002400000014000180140DF
:1018B000000800400014014000080140704770B566
:1018C000044690F83C0000260D4601280FD0012068
:1018D00084F83C006AB1042A1DD0082A2FD00C2AB3
:1018E0003FD00126002084F83C00304670BD022025
:1018F00070BD206801F00EFA2068816941F008018E
:1019000081612068816921F0040181612068816919
:101910002A69114311E0206801F02CFA20688169DE
:1019200041F4006181612068816921F480618161F5
:10193000206881692A6941EA02218161D2E7206831
:1019400001F04EFA2068C16941F00801C1612068C8
:10195000C16921F00401C1612068C1692A6911438C
:1019600011E0206801F070FA2068C16941F400615B
:10197000C1612068C16921F48061C1612068C169C9
:101980002A6941EA0221C161ACE710B5040003D025
:1019900094F83D0010B107E0012010BD002084F84C
:1019A0003C00204600F01EF8022084F83D00211D76
:1019B000206801F041F9012084F8460084F83E00D7
:1019C00084F83F0084F8400084F8410084F8420025
:1019D00084F8430084F8440084F8450084F83D000E
:1019E000002010BD7047704710B50446022249B16F
:1019F00004290ED0082913D094F84100012816D0EC
:101A0000012010BD94F83E000128F9D184F83E2051
:101A10000FE094F83F000128F2D184F83F2008E05D
:101A200094F840000128EBD184F8402001E084F8CC
:101A300041200122206801F04DF913492068134A22
:101A4000884201D0904203D1436C43F40043436485
:101A5000206888420DD090420BD0B0F1804F08D062
:101A60000B49884205D00B49884202D00A49884276
:101A700004D1816801F00701062903D0016841F013
:101A800001010160002010BD002C01400034014024
:101A90000004004000080040000C0040F0B5006861
:101AA000404987B0884259D16A463F493F4800F0D3
:101AB0009DFD3F490598FEF7C1FB3E4EF169FEF7DB
:101AC00065FBF061014630613078002846D0B0688F
:101AD00001F016FB0746F068FEF720FC0546394684
:101AE000FEF754FBFEF723FC044628463946FEF772
:101AF0009FFBFEF71CFC0546307851284AD013DCCA
:101B000041282DD0442838D0452827D160B2054639
:101B100000F094FC604240B2044601F023F82846ED
:101B200000F060FC204617E0532807D0572815D155
:101B300060B2044600F082FC68B206E0604240B247
:101B4000044600F07BFC684240B2054601F00AF80A
:101B5000204600F047FC284600F0D8FF07B0F0BD53
:101B6000604240B200F06AFC68B200F0FBFF60B275
:101B700000F038FC684240B2EEE760B200F05EFC74
:101B8000684240B200F0EEFF604240B200F02AFC32
:101B900068B2E1E7604240B2054600F04FFC60B237
:101BA000BAE7000000040040380000204800002090
:101BB0000AD7233C000000207047704770470000A0
:101BC000F8B5016804460868CA684B6910F00F0F41
:101BD0004FF0000559D003F0010602F49077374327
:101BE00065D0C10705D0D10503D5616C41F0010175
:101BF0006164410705D5D90703D0616C41F002014A
:101C00006164810705D5D90703D0616C41F00401F7
:101C10006164010707D502F02001314303D0616CF4
:101C200041F008016164616C00293AD0800604D556
:101C3000900602D5204601F081F920684069616C68
:101C4000C0F38010090700D460B3204601F04FF9BB
:101C500020684069400621D52068143050E8001FF4
:101C600021F0400140E80012002AF5D1E06BA8B154
:101C70006D494163E06BFEF72BFC002811D0E06B4F
:101C8000416B01B0BDE8F040084783060FD59306CD
:101C90000DD52046BDE8F84001F050B92046FFF7C9
:101CA0008DFFF8BD2046FFF789FF6564F8BD266B00
:101CB0002023012E7CD1C6067AD5D60678D50868B1
:101CC0004868009048694FF00206400640D5E16B35
:101CD000086840680004000CE8D0A28D8242E5D973
:101CE000E085886920282DD020680C3050E8001F3E
:101CF00021F4807140E80012002AF5D120681430E8
:101D000050E8001F21F0010140E80012002AF5D13F
:101D10002068143050E8001F21F0400140E8001214
:101D2000002AF5D184F84230256320680C3050E851
:101D3000001F21F0100140E80012002AF5D1E06BED
:101D4000FEF7A3FB6663A08DE18D401A81B22AE005
:101D5000A08DE18D401A81B2E08D0028A6D0002927
:101D6000A4D022680C3252E8000F20F4907042E8B0
:101D70000007002FF5D12068143050E8002F22F022
:101D8000010240E80027002FF5D184F84230256396
:101D900020680C3050E8002F22F0100240E80023A9
:101DA000002BF5D166632046FFF707FFF8BDFFE77C
:101DB00005062BD5150629D594F841002128F5D123
:101DC000A068B0F5805F01D12069B0B1206A411CE4
:101DD0002162216800784860E08C401E0004000CFD
:101DE000E084E3D12068C16821F08001C1602068EF
:101DF000C16841F04001C160D8E7206A0088C0F3A3
:101E000008004860206A801C2062E5E74006CDD5C6
:101E10005006CBD5CA68204622F04002CA6084F83A
:101E2000413000F0CCF8C1E7DF2E000870B50400A7
:101E300004D094F84100002510B106E0012070BDE7
:101E400084F84050204600F023F8242084F8410014
:101E50002068C16821F40051C160204601F0D0F82B
:101E60002068016921F4904101612068416921F0F5
:101E70002A0141612068C16841F40051C160656474
:101E8000202084F8410084F842006563002070BD82
:101E900030B585B000240094019402940394006846
:101EA000184988422CD11848816941F480418161E8
:101EB000816901F480410491816941F004018161EB
:101EC0008069124D00F0040004904FF400700090FF
:101ED000022001900320039069462846FEF7A2FBEA
:101EE0002815CDE90004694628460294FEF79AFBBE
:101EF000002211462520FEF7B3FF2520FEF7A2FFA2
:101F000005B030BD0038014000100240000801401B
:101F100090F84230202B01D00220704721B11AB135
:101F20000023036301F0C8B80120704710B5154CB9
:101F30006078FEF76FFAE178A078FEF781FA2079F1
:101F4000203C512816D006DC412813D0442811D05B
:101F5000452804D10EE053280CD057280AD0002081
:101F60002070FEF747FABDE81040072205490648F1
:101F7000FFF7CEBF20702069A060FEF755FC6060BF
:101F8000F1E7000020000020BC01002090F8413063
:101F9000202B01D00220704779B172B10162828496
:101FA000C28400214164212180F841100068C16889
:101FB00041F08001C16000207047012070477047E8
:101FC000FEE701684A69D24352050FD46FF480627C
:101FD0004A61002140F8301F202242738173026958
:101FE00042F0040202610173012070470020704733
:101FF0002DE9F84F0446C06A1E4693460D462168F7
:102000000A6842F480620A60082807D0012805D0D7
:1020100010F5803F02D0206B112804D120680168A0
:1020200041F4807101604FF001195B46002249467E
:102030002046009600F0CCF84FF4007840B12068BC
:102040000068C00501D5C4F840800320BDE8F88FC2
:102050002069DFF884A0B0F5804F0FD006202168FA
:1020600000EAD51747F0F000086133465A460AF1F6
:102070000601204600F0F4F858BB03E0E8B240F057
:1020800001001CE02168E8B2086133465A46514617
:10209000204600F0E5F8E0B92068416981690091C7
:1020A000016841F4807101605B4600224946204688
:1020B000009600F08DF80028C1D147F0F1002168AA
:1020C000086133465A465146204600F0C9F80028B8
:1020D000BCD00120BAE7000002000100F8B50446B8
:1020E000C06A1E460D461746082807D0012805D0AD
:1020F00010F5803F02D0206B122804D120680168BF
:1021000041F480710160134600224FF00111204616
:10211000009600F05DF840B120680068C00502D567
:102120004FF4007020640320F8BD2069B0F5804FA3
:102130000ED00620216800EAD51040F0F0000861BA
:1021400033463A460B49204600F08AF878B902E057
:1021500005F0FE0000E0E8B2216808610549334659
:102160003A46891F204600F07BF80028DCD0012089
:10217000F8BD00000800010070B516460D46044683
:102180001EE02046FFF71DFF08B1012070BD681C4E
:1021900016D0FEF749FB801BA84200D885B92068FD
:1021A0004069C04340070BD5002044F8300F202180
:1021B0006173A073216941F0200121612073E4E77C
:1021C00020684069C0434007DBD4002070BD000098
:1021D0002DE9F047984617460D460446C1F30746D9
:1021E000DDF820902AE000BFB8F1FF3F26D0FEF7CF
:1021F0001BFBA0EB0901414502D8B8F1000F1DD12E
:102200002068012E16D0806925EA00000004000C29
:1022100012D00020B84211D1002044F8300F202104
:102220006173A073216941F02001216120730120B5
:10223000BDE8F0874069E7E70120EBE72068012E61
:102240000AD0806925EA00000004000C06D00020B6
:10225000B842C9D00020EBE74069F3E70120F7E777
:102260002DE9F047984616460D4604464FF0000902
:102270004FF0200AC1F3074723E020684069C043BC
:10228000400515D42068016841F40071016021689F
:102290006FF480604861C4F8309084F83DA084F801
:1022A0003E90216C41F00401216484F83C9021E0CF
:1022B000701C06D0FEF7B8FAA0EB0800B04203D8B5
:1022C00016B1012F1FD021E02068012F15D08069A1
:1022D00025EA00000004000C18D000BF44F8309F2D
:1022E00084F80DA084F80E90216941F0200121614D
:1022F00084F80C900120BDE8F087406925EA0000D1
:102300000004000CEAD12068406901E0206880697F
:1023100025EA00000004000CAFD1ECE72DE9F04104
:10232000002590460E460446202728E04069C04319
:10233000C0060CD454F8301B6FF01000486144F80C
:1023400010596777A577206A2062257714E0FEF799
:102350006BFAA0EB0800B04200D886B9206840694B
:10236000C04340060BD544F8305F6773A5732069FE
:1023700040F02000206125730120BDE8F081206835
:102380004169C9434906D1D40020F6E770B5164625
:102390000D4604461EE02046FFF713FE08B101205B
:1023A00070BD681C16D0FEF73FFA801BA84200D80B
:1023B00085B920684069C04300060BD5002044F869
:1023C000300F20216173A073216941F02001216148
:1023D0002073E4E720684069C0430006DBD4002096
:1023E00070BD000070B5134D134E041E06DD0122B2
:1023F00010212846FEF712FA002206E00CD1012235
:1024000010212846FEF70AFA012220212846FEF76D
:1024100005FA3068C46370BD002210212846FEF71B
:10242000FDF9012220212846FEF7F8F931686042C3
:10243000C86370BD00080140E400002070B5134D72
:10244000134E041E06DD012211462846FEF7E6F96A
:10245000002206E00CD1012211462846FEF7DEF9E3
:10246000012202212846FEF7D9F93068446370BD85
:10247000002201212846FEF7D1F901220221284637
:10248000FEF7CCF931686042486370BD0008014036
:10249000E40000202DE9F34F002089B00C4683466C
:1024A00082468146064605460690642705903B20F5
:1024B0008DF81C00012307AAD02100970998FEF788
:1024C000A5FB00284CD10E2301AAD0210097099822
:1024D000FEF774FA002843D1BDF80400DDF8188037
:1024E00040BA03B2BDF80600434440BA0FFA80FE7A
:1024F000BDF80800F34440BA01B2BDF80C008A44AC
:1025000040BA0FFA80FCBDF80E00E14440BA02B2B6
:10251000BDF81000164440BA00B2054401200693ED
:10252000FEF76EF80598401C80B20590B0F57A7FF2
:10253000BDD306994FF47A7091FBF0F121809BFB9B
:10254000F0F161809AFBF0F1A1F58041A18099FB47
:10255000F0F1E18096FBF0F195FBF0F021816081D4
:102560000BB0BDE8F08FFEB50C46054600226B218E
:1025700000F0DCF8B8BB0A20FEF742F875208DF8B1
:102580000800642601AF012302AAD0212846009644
:10259000FEF73CFB38BB01233A46D0212846009683
:1025A000FEF70CFAF8B99DF8040068281BD1002248
:1025B0001921284600F0BAF8A8B900221A212846A5
:1025C00000F0B4F878B90026324626731B2128465D
:1025D00000F0ACF838B9324666731C21284600F08A
:1025E000A5F8002800D00120FEBD00002DE9F04F25
:1025F0000C460746497B8DB015464FF08D4071B1B2
:10260000082904D0102905D0182908D105E04FF079
:102610008C4004E04FF08B4001E04FF08A40029084
:10262000217B3E4859B1082904D0102904D018292B
:1026300005D103E03A4802E03A4800E03A4864260F
:1026400083463B208DF81C00012307AAD021384681
:102650000096FEF7DBFA38B90E2303AAD0213846DC
:102660000096FEF7ABF918B101200DB0BDE8F08F70
:10267000BDF80E10BDF80C0049BA0FFA81FABDF88A
:10268000101040BA49BA0FFA81F9BDF8141000B21F
:1026900049BA0FFA81F8BDF8161049BA0FB2BDF861
:1026A000181049BA0EB2B4F90010401AFDF736FE00
:1026B0000299FDF7F5FD2860B4F90200AAEB0000CD
:1026C000FDF72CFE0299FDF7EBFD6860B4F90400FC
:1026D000A9EB0000FDF722FE0299FDF7E1FDA860DD
:1026E000B4F90600A8EB0000FDF718FE5946FDF707
:1026F000D7FDE860B4F90800381AFDF70FFE594617
:10270000FDF7CEFD2861B4F90A00301AFDF706FE88
:102710005946FDF7C5FD68610020A6E700000343A8
:102720000000834233330342333383411CB5022319
:102730008DF8041064218DF80520009101AAD021A4
:10274000FEF764FA1CBD00002DE9F04186B00024BC
:1027500027480094019402940394816941F0040194
:102760008161816901F004010491816941F00801EE
:102770008161816901F008010491816941F04001A2
:102780008161816901F040010491816941F020017A
:1027900081618069174F00F0200004900022F02131
:1027A0003846FEF73BF8DFF850800122032140460F
:1027B000FEF734F800224FF470514046FEF72EF831
:1027C000F02001250226CDE90005CDE90246694643
:1027D0003846FDF727FF43F60340CDE90005CDE974
:1027E000024669464046FDF71DFF06B0BDE8F08190
:1027F0000010024000080140000C01400D4810B5D7
:102800000B4901600C49416000214FF48042816016
:10281000C0E9031241618161C1610162FEF70AF8FA
:10282000002803D0BDE81040FDF72DBE10BD00000C
:102830000054004048000020A086010010B596B06A
:1028400000240F9410941194129413941C2108A83E
:102850001494FDF790FC20216846FDF78CFC284875
:10286000264901604721C0E9011440F2E731C0E97F
:10287000031444618461FEF70FFE08B1FDF703FE07
:102880004FF480500F900FA91D48FEF7ABFE08B122
:10289000FDF7F9FD1A48FFF778F808B1FDF7F3FDE9
:1028A000139413A916481494FEF7B8FD08B1FDF768
:1028B000EAFD6020CDE908040A940B940C940D9471
:1028C000002208A90E480E94FEF7F9FF08B1FDF7A3
:1028D000DAFD00944FF40050CDE9044002940194D5
:1028E0000394694606480794FEF76EFD08B1FDF7AC
:1028F000CAFD0348FEF77EFF16B010BD002C014054
:102900009C00002010B58EB0002407940894099410
:102910000A940B941C2168460C94FDF72CFC2A4861
:102920004FF08041016040F2CF21C0E901144FF621
:10293000FF71C0E903148461FEF7AEFD08B1FDF735
:10294000A2FD4FF48050079007A91F48FEF74AFEEA
:1029500008B1FDF798FD1C48FFF717F808B1FDF71F
:1029600092FD0B940BA918480C94FEF757FD08B183
:10297000FDF789FD6020CDE900040294002269463C
:1029800011480494FEF79BFF08B1FDF77CFD04227B
:1029900069460D48FEF793FF08B1FDF774FD082264
:1029A00069460948FEF78BFF08B1FDF76CFD0C2264
:1029B00069460548FEF783FF08B1FDF764FD02484C
:1029C000FEF718FF0EB010BDE400002010B586B071
:1029D000002416480094019402940394049412492C
:1029E0000594C0E900144FF6FF71C0E9024104618B
:1029F0008461FEF751FD08B1FDF745FD4FF48050AD
:102A0000009069460948FEF7EDFD08B1FDF73BFD72
:102A1000049404A905480594FEF700FD002801D0A0
:102A2000FDF731FD06B010BD000400402C01002070
:102A300010B58EB000240794089409940A940B945E
:102A40001C2168460C94FDF796FB1F481D49016048
:102A500040F2CF21C0E901144FF6FF71C0E9031421
:102A60008461FEF719FD08B1FDF70DFD4FF48050AC
:102A7000079007A91448FEF7B5FD08B1FDF703FD5F
:102A80001148FEF782FF08B1FDF7FDFC0B940BA97E
:102A90000D480C94FEF7C2FC08B1FDF7F4FC602071
:102AA000CDE9000402940022694607480494FEF729
:102AB00006FF08B1FDF7E7FC0348FEF79BFE0EB0EA
:102AC00010BD000000080040740100200C4810B543
:102AD0000A4901604FF4E1314160002181600C221C
:102AE000C160C0E904128161C161FFF79FF900284C
:102AF00003D0BDE81040FDF7C6BC10BD0038014052
:102B0000BC010020FEE7FEE77047000070B5134DE2
:102B1000134E041E06DD012240212846FDF77EFEED
:102B2000002206E00CD1012240212846FDF776FE66
:102B3000012280212846FDF771FE3068046470BDD3
:102B4000002240212846FDF769FE01228021284607
:102B5000FDF764FE31686042086470BD0008014002
:102B6000E40000202DE9F041144D154E041E4FF4F1
:102B700080514FF4005705DD01222846FDF74EFE37
:102B8000002205E00CD101222846FDF747FE012274
:102B900039462846FDF742FE30688463BDE8F0817F
:102BA00000222846FDF73AFE012239462846FDF765
:102BB00035FE316860428863F0E70000000C014098
:102BC000E40000207047FEF7E5B830B58FB028214B
:102BD0006846FDF7D0FA14210AA8FDF7CCFA0121C6
:102BE0000804CDE900100024029402250491CDE9E7
:102BF00007504FF4E01009906846FEF73FFA08B11D
:102C000072B6FEE70F20CDE90A054FF48060CDE9EA
:102C10000C4002210AA80E94FEF754F9002801D0B6
:102C200072B6FEE70FB030BD704700000148FEF7F6
:102C300048BD00002C010020F0B50268204C214D59
:102C4000214E224F224B4FF0804CA04209D0984297
:102C500007D0604505D0A84203D0B04201D0B842A9
:102C600004D122F0700E4A6842EA0E02A04209D056
:102C7000984207D0604505D0A84203D0B04201D0A9
:102C8000B84203D122F44075CA682A434D6922F044
:102C900080022A4302608A68C2620A688262A04295
:102CA00001D0984201D109690163012141610169A3
:102CB000C90703D0016921F001010161F0BD0000E5
:102CC000002C01400004004000080040000C0040BF
:102CD0000034014010B501F01F030121046A99403E
:102CE0008C430462016A9A401143016210BD10B521
:102CF000846842EA032224F47F440A432243826028
:102D000010BD826822F070020A4342F00701816020
:102D100070470000F0B5036A026A22F00102026205
:102D200042688469124E24F073050C682C4323F02A
:102D300002058B682B430D4DA84201D0B04205D14E
:102D400023F00807CB683B4323F00403A84201D0DB
:102D5000B04205D14D6922F4407215438A692A4375
:102D600042608461496841630362F0BD002C014008
:102D700000340140F0B5026A036A23F010030362D5
:102D8000436884690D6824F4E64444EA05248D68A8
:102D900022F0200242EA05120F4D104EA84201D047
:102DA000B04206D1CF6822F0800242EA071222F038
:102DB0004002A84201D0B04207D14D6923F44063DC
:102DC00043EA85038D6943EA85034360846149686A
:102DD00081630262F0BD0000002C0140003401401C
:102DE000F0B5026A036A23F4807303624368C4691E
:102DF00022F4007224F073050C68124E2C438D6887
:102E000042EA05220E4DA84201D0B04206D1CF6859
:102E100022F4006242EA072222F48062A84201D032
:102E2000B04207D14D6923F4405343EA05138D693D
:102E300043EA05134360C4614968C1630262F0BD9F
:102E4000002C01400034014030B5046A026A22F4CB
:102E5000805202624268C3690D6823F4E64343EA84
:102E600005238D6824F4005444EA0534084DA84233
:102E700002D0084DA84204D14D6922F4804242EAB2
:102E800085124260C36149680164046230BD00007C
:102E9000002C01400034014010B5036A046A24F09C
:102EA00001040462846924F0F00444EA021423F06B
:102EB0000A020A438461026210BD10B5036A046A03
:102EC00024F010040462846923F0A00324F4704405
:102ED00044EA023243EA01118261016210BD10B579
:102EE000406A0021C185C184FEF768FE10BD0168FB
:102EF0000C3151E8002F22F4907241E80023002B9E
:102F0000F5D10168143151E8002F22F0010241E8A7
:102F10000023002BF5D1016B012909D101680C3187
:102F200051E8002F22F0100241E80023002BF5D1D8
:102F3000202180F8421000210163704708B590F805
:102F40004210222901D0022008BD82684FF480532C
:102F50009A4201D1016921B1816A9A421BD04AB1DA
:102F60000AE00268816A5268C2F308020A80816A34
:102F7000891C08E0026972B10268526802F07F029F
:102F80000A70816A491C8162C18D491E0904090CBD
:102F9000C18503D01BE002685268F1E70168CA6886
:102FA00022F02002CA600168CA6822F48072CA60F6
:102FB00001684A6922F001024A61202180F842102A
:102FC00000214163026B012A03D0FEF7AFFF00200E
:102FD00008BD016301680C3151E8002F22F0100296
:102FE00041E80023002BF5D101680A68D20602D51A
:102FF0000A6849680091818DFEF7DFFDE7E7000070
:1030000070B5044600680169E26821F4405111433B
:1030100001612169A0680843616908432168CA68A1
:1030200041F20C639A430243CA6020684169A26975
:1030300021F44071114341611E492068884202D148
:10304000FDF7E6FF01E0FDF7D3FF00EBC00101EB68
:103050000012606864218000B2FBF0F3B3FBF1F36F
:103060006FF018067343B2FBF0F5B2FBF0F605EB18
:103070008305322303EB0515B5FBF1F5B6FBF1F63D
:1030800005F0F00505EB0615B2FBF0F6B2FBF0F02B
:10309000B0FBF1F06FF01802504306EB800003EB39
:1030A0000010B0FBF1F0216800F00F0028448860A8
:1030B00070BD00000038014081628285C285002118
:1030C0004164222180F84210016921B10168CA6877
:1030D00042F48072CA6001684A6942F001024A61A2
:1030E0000068C16841F02001C16000207047000005
:1030F0000148FEF765BD0000BC010020FEE70000AE
:103100002DE9F041FDF794F82149224C054688420B
:1031100003DD2146FDF78CF805461F48854204D99A
:1031200021462846FDF732F805461C492846FDF79A
:1031300085F81B4E804631462846FDF77FF8194C2E
:10314000A169FDF723F81849A061884200DD08460F
:103150001649A061884200D908461549A061FDF7CB
:103160006DF8074628466169FDF762F81149FDF7D9
:1031700065F83146FDF794F80646394640466561E4
:10318000FDF704F83146BDE8F041FCF7FFBF000051
:10319000000034430000B443000034C3000020406A
:1031A0000AD7233C0000002000004842000048C22B
:1031B000CDCC4C3D9A99193F0907090E002804DB34
:1031C00000F1E02080F80014704700F00F0000F1DB
:1031D000E02080F8141D704702E008C8121F08C1E3
:1031E000002AFAD170477047002001E001C1121F88
:1031F000002AFBD1704700001FB5FDF7D3FDFFF794
:10320000E4FCFFF7A1FAFFF7F9FAFFF77BFBFFF702
:10321000DDFBFFF75BFCFFF711FBFFF709FC6946DD
:103220002448FFF7A0F900B1FEE74FF47A70FDF7EC
:10323000E7F969461F48FFF72DF91F48FEF79CF98B
:1032400000211D48FEF7D0FB04211B48FEF7CCFBF4
:1032500008211948FEF7C8FB0C211748FEF7C4FBEC
:1032600000211648FEF7C0FB00211548FEF7BCFB05
:10327000FDF7C0F811494FF4FA7009684863104926
:1032800040F2CF700A68D062C86007220D490E482C
:10329000FEF73EFEFDF7C8FA0A4C203CC4F80400D5
:1032A000FDF7C2FA6168401A6428F9D9FDF7A2F85F
:1032B000F6E7000048000020E40000209C00002009
:1032C0007401002020000020BC0100200102020344
:1032D0000405060708090A0B0C0D0E0F101000005C
:1032E00000000000000001020304060708090000B6
:1032F0000000010203040000183300080000002051
:1033000038000000D8310008503300083800002091
:10331000D0050000E83100080000000000000000B7
:10332000000000003200000000000000000000006B
:10333000000000000000000000000000000000008D
:1033400001000000100000000000000000127A00E0
:0400000508000131BD
:00000001FF
